:108000001F92CDB7DEB7CFD01124809178009FEFBB
:1080100090937800837099F088EA91E680936808DD
:108020009093690880E180934C0880914C0884FF0C
:10803000FCCF109240088091680682FD8FD082E0CC
:1080400080936106C12CD12C97D0813479F494D0DF
:10805000898399D08981823811F485E005C08138FF
:1080600011F484E001C083E080D075C0823411F443
:1080700084E103C0853419F485E08CD06CC085356B
:1080800059F47AD0C82E78D0D12CD82A8D2D881FBB
:108090008827881F8BBF5EC0863521F484E07AD0A4
:1080A00080E0E2CF843641F567D066D0F82E64D008
:1080B000C601DCD000E010E25FD0F80181938F01AF
:1080C000FE12FACF60D0D7FC46C0CBD0C601DAD0C2
:1080D000760100E010E2F801619171918F01C70112
:1080E000DBD0F2E0EF0EF11C011581E2180799F7E1
:1080F000C601E0D0B6D02FC08437C1F43DD03CD00B
:10810000F82E3AD040D0F601EC2CEF0C8F010F5F27
:108110001F4F84912AD0E01207C0EFEFCE1ADE0A7B
:10812000FA94CF0CD11C17C0F801F0CF853739F481
:108130002AD08EE11AD085E918D082E495CF813516
:1081400049F421D080E111D08091A10886FFFCCFB5
:1081500005D001C018D080E108D076CFE0E0F0E093
:1081600084918F3F09F0099408959091A10895FF9B
:10817000FCCF8093A00808958091A10887FFFCCFD1
:108180008091A0080895F8DF803211F085E1EDDFDD
:1081900084E1EBCFCF93C82FEFDFC150E9F7CF9148
:1081A000F2CFA895089583EC8093520080915000FF
:1081B0008860809350008091510083FFFCCF82EC57
:1081C0008093550080915000806180935000809191
:1081D000510084FFFCCF88ED84BF1092400084BF23
:1081E00024E02093400087E08093A20087E88093FA
:1081F0008301109241081092420810924308109295
:10820000440810924608109247088FEF9FEF809322
:1082100066089093670810926008109261088BE0DE
:1082200080934008209365062093620688E180933E
:10823000720698E0909345069093410692E29093DF
:10824000A6081092A7088093A4088091A3088F7CA9
:1082500080618093A30883E08093A5088091A008A3
:1082600008958091CF0187FDFCCF08958F939F9350
:1082700082E2E0ECF1E08287FF91EF918DE984BF2B
:10828000E8950895FC0186E28093CA0188ED84BFD9
:1082900081E08093CB0108950F921F92FC01062E7E
:1082A000172E83E28093CA018DE984BFE8951F9061
:1082B0000F900895FC018EE28093CA018DE984BF7E
:0482C000E8950895A0
:040000030000800079
:00000001FF
