:100000000C94AC120C94DB120C94DB120C94DB12EB
:100010000C94DB120C94DB120C94DB120C94DB12AC
:100020000C94DB120C94DB120C94CF180C944580CA
:100030000C9493840C9498800C94DB120C945C19AF
:100040000C94BD180C94DB120C94D48B0C948F89F7
:100050000C94DB120C94DB120C94DB120C94DB126C
:100060000C941A850C94A8190C9401810C94688541
:100070000C94DB120C94DB120C94AE7D0C94DB120E
:100080000C94DB120C94DB120C94DB127E1B831B92
:100090002E1B341B571B571B571B741B791B7E1BB6
:1000A000831BA01BA01B881B3A1B931B931B541C78
:1000B000591C201C261C2C1C2C1C2C1C4A1C4F1CA4
:1000C000541C591C681C681C5F1C182C182C182CFC
:1000D000182C812C3E2C3E2C3E2C3E2C3E2C3E2CB3
:1000E0003E2C282C302C302C482C482C8C2C8C2C42
:1000F0005A2C8C2C8C2C8C2C8C2C8C2C772C772C9C
:100100008C2C8C2C8C2C8C2C8C2C8C2C8C2C8C2C2F
:100110008C2C8C2C8C2C8C2C8C2C8C2C8C2C8C2C1F
:100120008C2C8C2C8C2C8C2C732C8C2C8C2C2B2C89
:100130008C2C282C282C842C223B2C3B423B8F3BA4
:10014000CE3B2C3C373C3A3C943C983C89419E4108
:100150003B42CE435744C942EB47D445D144D944EE
:100160006745D846555128512B512F51355139519A
:100170003E517B5C8A5C955CAB5CB25CB95CC85CF4
:10018000DF5CF75CC25DED5DF55DFD5D095E2A5EDD
:100190003A5E645EB15EBD5EF85E105F215F2D5F0A
:1001A000395F455F716287628762876274627A62D3
:1001B00087627762876280627D6283629862CD6EB9
:1001C0006D65FF6BEE65CD6ECD6E6B69CD6E656D49
:1001D000CD6ECD6ECD6EAF64A862F266217C127CCE
:1001E0000E7C147C187C1C7C107C1F7C297C7D83FD
:1001F00080839783B283B283978397839D869F86FC
:10020000A286A786B886C786D586DF86EF86FF8654
:1002100004871A871D872187238725872A872E87AA
:1002200039873D8745874C8750875287568758873F
:100230005A875C876087648769876E87738778874A
:100240007D87204F6C642056657273696F6E204500
:100250004550524F4D202020434845434B205345A5
:100260005454494E47532F43414C494200416C611D
:10027000726D732044697361626C6564004545501A
:10028000524F4D206C6F77206D656D004C4F41448F
:10029000494E470003426F6F746C6F616465720072
:1002A0004861726477617265204D656E7520456E98
:1002B00061626C6564006D537461636B206F666C82
:1002C0006F7700537769746368205761726E696E47
:1002D000671F506C656173652052657365742053A8
:1002E00077697463686573005468726F74746C65C1
:1002F000206E6F742069646C651F5265736574208D
:100300007468726F74746C65004D45535341474572
:1003100000707265737320616E79204B65790050AF
:100320007265737320616E79206B657920746F201C
:10033000736B6970004F46464F4E205448735448C3
:1003400025002D2D2D004348002D2D2D20002D2D75
:100350002D2D00000064281007030100000000019B
:1003600001010202020201010300040420414C4584
:1003700052540000010203000201030301020003C2
:10038000020100055275642000456C652000546828
:1003900072200041696C20004F4E20004F464600FD
:1003A00003544852525544454C4549443049443120
:1003B00049443241494C47454154524E4C31204CFE
:1003C00032204C33204C34204C35204C36204C37D6
:1003D000204C38204C39204C41204C42204C4320AA
:1003E0004C44204C45204C46204C47204C48204C47
:1003F0004920454C80454C2D454C815255805255E5
:100400002D52558141498041492D414981474580BF
:1004100047452D474581504231504232001B1E272F
:100420002D36394B4E636C7278878D939CB1B4C670
:10043000C9D2D8E1E453706C617368008040000059
:1004400000000000000000000000000000000000AC
:10045000000000000000000000000000000000009C
:10046000000000000000000000000000000000008C
:10047000000000000000000000000000000000007C
:1004800000000000000000000080C0E0E0F0F8F88C
:10049000FCFCFCF8F8F8F0400000000000808080D0
:1004A000000000000000000000000000000000004C
:1004B00000000080C0C0E0E0E0F0F0F0E0C000002C
:1004C000000000C0F8FFFF9F8783838383838383BB
:1004D000838383838383838383838383838383036C
:1004E00083808383838383838383838383838383DF
:1004F000838383838383838383C3E3733F1F0000EA
:10050000000080E0F0F8FCFEFFFFFFFF7F3F1F1FB1
:100510000F0783C3E1E1E0E0C0000E1F3F7F7FFFD4
:10052000F3E0E0800000000000000000000080F028
:10053000FCFEFFFFFFFF7F3F0F03010101000000F2
:1005400080F0FEFFFFC7C1C1C1C1C1C1C1C1C1C1EE
:10055000C1C1C1C1C1C1C1C1C1C1C1C101C1F0FEDF
:10056000FF3F0F070F0D0D0D1D19191919313131ED
:100570003171616161E1C1C1C18100000080E0F8B9
:10058000FCFFFFFFFF2F170F038180C0E0F0F8FC96
:10059000FEFFFFFFFFFFFF7F0100000000000000E3
:1005A00001010307070E1E1C3870E0F0F8FEFFFF84
:1005B0007F1F0F030001000000000000000000008A
:1005C000000000000000000000000000000000002B
:1005D000000000000000000000000000000000001B
:1005E000000000000000000000000000000000000B
:1005F0000000000000000000000000007EFFFFFF80
:10060000FFFFFFFBF8FCFCFEFF7F3F1F0F07C3FF50
:10061000FFFFFFFFFF7F0700000000000000000059
:100620000000000000C0E0F8FEFFFF7F1F0F1F3D2D
:100630007CF8F8F0E08000000000000000000000FE
:1006400000000000000000000000000000000000AA
:10065000000000000000000000000000000000009A
:10066000000000000000000000000000000000008A
:100670000000000000000000000000000000010178
:10068000010101030707070301000000E0FCFFFF71
:10069000FFFFFF1F0300000000000000000000003B
:1006A000C0F078DE2713090E0703000000000000E9
:1006B000000001030F7FFFFC7878F80000000000C5
:1006C00000000000000080808080808080808000AA
:1006D000808000808000000000000000808080801A
:1006E000808080808080808080808080808000000A
:1006F00000000000000000000000000000000000FA
:1007000000000000000000000080F0FEFFFFFFFF7F
:100710003F0F010000000000000000C0E0381E0F85
:1007200003000100000000000000000000000000C5
:1007300000000000000000000003030100000000B2
:100740000000000000000E0E02020202020303007D
:100750000F0F000F0F080808080808080F0F0808F7
:100760000808080F0F000000000F0F000000000035
:100770000000000000000000000000000000000079
:1007800000000000000000C0F8BFFFFFFF1F7F0156
:100790000000000000000000F0FCFF7F7830000047
:1007A0000000000000000000000000000000000049
:1007B0000000000000000000000000000000000039
:1007C0000000000000000000000000000000000029
:1007D0000000000000000000000000000000000019
:1007E0000000000000000000000000000000000009
:1007F00000000000000000000000000000000000F9
:100800000000000000301C070E0F07010000000070
:1008100000000000000000000000000000000000D8
:1008200000000000000000000000000000000000C8
:100830000000000000000000000000000000005662
:100840004552533A2056312E312D1F444154453ADA
:100850002033302E31322E323031351F54494D4540
:100860003A2031303A35383A31361F2053564E3A15
:1008700020657239782D723831391F204D4F443A36
:10088000204652534B592020203132382020003C42
:1008900006064F4E202020204F4646202020424F63
:1008A0005448202031355365637333305365637387
:1008B00036305365637356617269626C005653003B
:1008C00007203820536563733132205365637331D9
:1008D000362053656373001E030153415658004E82
:1008E000756D62657220566F69636520537700539A
:1008F0006166657479205377697463686573004332
:100900004F5059205452494D205B4D454E555D0086
:100910000D4F6E000D4F6E004C4F474943414C2028
:100920005357495443484553003C010A436F756E81
:100930007420446F776E436F756E7420557020205D
:100940000054696D65721F54726967676572411F53
:1009500054726967676572421F54696D65721F52F0
:1009600065736574205377697463680020547970E7
:10097000651F20436F756E7472791F42696E641F24
:1009800052616E6765003C02094C50342F4C503563
:10099000202044534D326F6E6C792044534D322FDA
:1009A00044534D580044534D205479706500014E16
:1009B00059000B4F7074696F6E0004486967684C8A
:1009C0006F7720003C00044E6F6E65003C010543CC
:1009D000473032335944383239003C0205475245DA
:1009E000454E424C554520444D303037003C0207BF
:1009F00053594D4158202053594D41583543003CDF
:100A0000040759443731372020534B59574C4B5228
:100A100053594D4158322058494E58554E204E4951
:100A20004855492020003C010444534D3244534D65
:100A300058003C01054869736B79484B33313000ED
:100A40003C0306466C79736B795639783920205609
:100A50003678362020563931322020003C0D0646AB
:100A60006C79736B7948756273616E4672736B79DA
:100A7000204869736B792056327832202044534DD8
:100A80003220204465766F20205944373137204B7F
:100A90004E2020202053796D615820534C54202043
:100AA000204358313020204347303233204261798F
:100AB000616E670050726F746F636F6C1F54797052
:100AC000651F506F7765721F42696E642020202079
:100AD000204175746F62696E641F52616E676500B4
:100AE000660103504F534E454700506F6C61726969
:100AF00074790050504D2046724C656E0D6D5365F3
:100B000063000C52784E756D000434434820364320
:100B1000482038434820313043483132434831344B
:100B200043483136434800137553000650504D205A
:100B3000202050585820202044534D32202050501F
:100B40004D31362050504D53494D4D554C54492050
:100B500053425553202000317374204368616E1F47
:100B600050726F746F000444521F024578706F1FFB
:100B70001F015765696768741F1F44725377311FDF
:100B8000447253773200034869204D6964204C6FEA
:100B900077006604042D2D2D2D3132302031323076
:100BA0005831343020393020200053776173682069
:100BB000547970651F436F6C6C6563746976651F4B
:100BC00053776173682052696E671F454C45204416
:100BD0006972656374696F6E1F41494C2044697284
:100BE000656374696F6E1F434F4C2044697265637F
:100BF00074696F6E0052455441313233005404061B
:100C0000457870202020457846696E6546696E6596
:100C100020204D656469756D436F61727365005482
:100C200072696D20496E631F5472696D2053771F7E
:100C300048692E52657320536C6F772F44656C6141
:100C4000791F547261696E65721F42656570204339
:100C50006E74005A01062020456E642043656E7450
:100C6000726500452E204C696D6974731F5468725B
:100C70002E2044656661756C741F5468726F7474BD
:100C80006C6520726576657273651F5468726F7447
:100C9000746C65204F70656E1F542D5472696D1F02
:100CA000542D4578706F2D4472006607032D2D2D4D
:100CB0005031205032205033204756344756354764
:100CC00056364756370044656661756C7420537715
:100CD0001F437573746F6D53746B4E616D65731F35
:100CE0004175746F204C696D6974731F566F6C7514
:100CF0006D6520436F6E74726F6C00566F6963652B
:100D000020496E646578114D454E55004D6F646500
:100D10006C204E616D65007016871892187F1879E7
:100D20001872186516431867185C1899185F161E14
:100D30001AB9165318564100566F696365004D4540
:100D40004E55204C4F4E470044656C657465005607
:100D50006F6963652046696C65005402062D2D2D70
:100D60002D2D2D4E756D62657220417564696F0081
:100D7000660104506C61794D757465005402064E2D
:100D80006F202020204265666F726541667465722F
:100D900020004E03072D2D2D2D2D2D2D4861707413
:100DA0006963314861707469633248617074696362
:100DB00033000776603D76616C20763D76616C206D
:100DC000200007280D2900506C617920536F75723F
:100DD00063651F4F6E206E6F2054656C656D657482
:100DE00072791F46696C655479706500536F75722E
:100DF00063651F46756E6374696F6E1F56616C750F
:100E0000651F5377697463681F526174651F486179
:100E10007074696300566F69636520416C61726D1F
:100E200000034D4F564520535449434B532F504FC9
:100E300054530005534554204D4944504F494E5496
:100E400000035B4D454E555D20544F205354415295
:100E500054006607044E4F4E45455854314558548A
:100E600032504330205047322050423720504735CF
:100E7000204C2D575200454C4520737769746368A8
:100E80001F41494C207377697463681F50423120B9
:100E90007377697463681F50423220737769746393
:100EA000681F50473220496E7075741F50423720BA
:100EB000496E7075741F4C2D575220496E707574B1
:100EC000004D27536F756E642053657269616C0025
:100ED0004672736B79204D6F6420446F6E650054C9
:100EE000656C656D657472455A3E3D7239300042DD
:100EF000616E644761700043616C004D756C74698C
:100F0000706C696572001802036F6666202B3D20C5
:100F10003A3D00036D6F64650A25207372632020DB
:100F200073770007536C6176650012424700414EAB
:100F300041000F504232000F504231005472696D2F
:100F40002D202B00204C6566741F52696768741F42
:100F50000355701F20446F776E1F20457869741FFA
:100F6000204D656E75004449414700537469636BB9
:100F70005363726F6C6C00506F745363726F6C6C60
:100F80000053706C617368204E616D650053706C26
:100F90006173682073637265656E004F776E65726A
:100FA000204E616D6500416C61726D205761726EFB
:100FB000696E67004D656D6F7279205761726E6959
:100FC0006E67005468726F74746C65205761726E3E
:100FD000696E670042617474657279207761726E20
:100FE000696E671F496E61637469766974792061FF
:100FF0006C61726D136D005275642000456C652044
:1010000000546872200041696C200043726F737352
:101010005472696D1F5468726F74746C65207265C8
:1010200076657273651F456E61626C652050504D28
:1010300053494D1F4368616E6E656C204F72646545
:10104000721F4D6F6465002048617074696320539E
:101050007472656E6774680042040A426565706563
:101060007220202020506953706B72202020204273
:1010700065657072566F696365506953706B566F22
:101080006963654D656761536F756E642000540632
:10109000065175696574204E6F4B657920785368E9
:1010A0006F727453686F7274204E6F726D20204C93
:1010B0006F6E672020784C6F6E672000566F6C75DE
:1010C0006D651F4265657065721F536F756E642094
:1010D0004D6F64651F20537065616B6572205069A8
:1010E000746368004C696768742073776974636817
:1010F0001F4261636B6C6967687420696E76657204
:10110000741F4C69676874206F6666206166746539
:10111000721F4C69676874206F6E2053746B204D8A
:10112000761F466C617368206F6E20626565700083
:10113000436F6E747261737400D1168816A916B964
:1011400016A0169416C916C1167E167616B0165A33
:1011500065726F20416C742E005A65726F204131A8
:10116000204F666673005A65726F204132204F66C9
:1011700066730052657365742047505300096D70A3
:1011800068004C61743D124864671F4C6F6E3D1FD0
:10119000416C743D096D2020204D61783D1F5370D6
:1011A000643D096B7473204D61783D1F56313D07D6
:1011B00056323D0E56333D1F56343D0756353D0ED3
:1011C00056363D000A52504D004675656C002204AB
:1011D0007C5E54546D0003457870457846466E65D4
:1011E0004D65644372730041323D0041313D00431F
:1011F00041502053504143452044454C20494E53D3
:101200000011544F541F01544D45115453571F01A1
:1012100053544B1153542500035B4D454E555D20EF
:10122000746F207265667265736800746D72314CFC
:101230006174206D61781275731F746D72314C6129
:1012400074206D696E1275731F746D7231204A6956
:10125000747465721275731F746D61696E126D73AB
:101260000053544154000966726565004D4F444572
:101270004C53454C0020464D300A524554410042E3
:1012800041434B555020444F4E45004241434B553E
:101290005000524553544F52454400534156494E15
:1012A0004700524553544F52494E47004C4F41441A
:1012B000494E4700526573746F7265004261636BFB
:1012C00075700020464D005377697463681F54722F
:1012D000696D731F4661646520496E1F46616465D0
:1012E000204F757400464C204D4F44450052414EEE
:1012F000474520434845434B20525353493A000643
:1013000042494E44494E47004475706C69636174AC
:10131000696E67206D6F64656C0044454C455445AB
:10132000204D4F44454C004455504C494341544591
:10133000204D4F44454C0054656D706C617465736D
:10134000104D454E5500012B2A52004D495845522B
:1013500000202020202020202020202020202000CD
:1013600044454C455445204D49583F00436C656108
:101370007220414C4C206D697865733F00035945DC
:10138000530B4E4F1F035B4D454E555D0B5B455850
:1013900049545D004D6178206D69786572732072E3
:1013A000656163683A2033321F1F50726573732082
:1013B0005B455849545D20746F2061626F72740000
:1013C0004E020841646420202020204D756C746911
:1013D000706C795265706C6163652000437572763C
:1013E0006500084469666600114578706F00015514
:1013F0007365204F75747075742020200001536F41
:10140000757263651F015765696768741F014F66D0
:10141000667365741F01466978204F66667365744C
:101420001F01456E61626C654578706F44521F0103
:101430005472696D1F1F1F015377697463681F0120
:101440004D4F4445531F015761726E696E671F010E
:101450004D756C7470781F0144656C617920446F20
:10146000776E1F0144656C61792055701F01536CC4
:101470006F772020446F776E1F01536C6F772020A9
:1014800055700045444954204D495820004F5000A4
:1014900054656D706C61746573005343092B0D2A9C
:1014A000122F00044C314C324C334C344C354C36FA
:1014B0004C374C384C394C414C424C434C444C45D5
:1014C0004C464C474C484C490048010546697273EC
:1014D000744C61737420005363616C6572204E61BB
:1014E0006D6500536F757263651F1F4F6666736588
:1014F000741F4D756C7469706C6965721F446976F0
:1015000069736F721F556E69741F5369676E1F444C
:101510006563696D616C731F4F6666736574204106
:1015200074006601034F46464F4E20005A07042DB3
:101530002D2D2D4131202041322020466173205332
:101540004331205343322053433320534334005319
:10155000696E6B20546F6E6573005A02042D2D2D39
:101560002D767370644132202000464153204F662F
:10157000667365741F566172696F3A20536F757296
:1015800063651F015377697463681F0153656E7348
:10159000697469766974791F1F43757272656E7418
:1015A00020536F7572636500437573746F6D2044CB
:1015B0006973706C617900477073416C744D616937
:1015C0006E004E756D20426C6164657300420303CA
:1015D0002D2D2D59656C4F7267526564005278004D
:1015E000547852535349616C726D00600301762D3B
:1015F0005641004120206368616E2E004801034D72
:101600006574496D7000480105467248756257530C
:101610004868690055737250726F746F1F556E6918
:101620007473005B2D3E5D00435600505245534598
:1016300054004355525645006A01032D2D2D494E45
:10164000560053575220003C0203443136443820A0
:101650004C52503C0203416D654A617045757256AB
:101660006F696365004C2E53776974636865730016
:101670004D697865720044696167416E6100446933
:101680006167537774636800417564696F4861707E
:101690007469630043616C6962726174696F6E00A2
:1016A000436F6E74726F6C7300416C61726D730086
:1016B00048617264776172650047656E6572616C3E
:1016C0000056657273696F6E00547261696E65725F
:1016D00000446973706C61790030313233343536CF
:1016E00037383971776572747975696F70617364B1
:1016F0006667686A6B6C207A786376626E6D5F2DC0
:101700002E20005B4D454E555D205748454E2044E8
:101710004F4E4500454449540053454C4543540001
:1017200053454C2F4544495400434F5059004D4FA9
:1017300056450044454C455445004241434B5550A5
:1017400000524553544F5245004544495400494EB8
:101750005345525400434F5059004D4F5645004495
:10176000454C45544500434C45415220414C4C00AA
:101770000473494478735448527352554473454C2A
:10178000457341494C734745417354524E0012080A
:101790001200081C0808081C080000082200490064
:1017A00022080000000000227F2200000008220022
:1017B0004900220800000822004900220800000019
:1017C000227F2200000000000822004900220800B9
:1017D00000081C0808081C08005343004756000175
:1017E00001010000000202020202020202020200E3
:1017F00002020202020202020000000000000002D7
:1018000002020202030303030005466565742056C5
:101810006F6C74734465675F434465675F466D41F1
:10182000682020416D7073204D6574726557617436
:10183000747300465643466D416D5718242F2F0090
:1018400033383B54656D706C6174657300015245AB
:1018500054410050726F746F636F6C00476C6F621D
:10186000616C5661727300536166657479205377B9
:101870007300437572766573004D6F646573004540
:1018800078706F2F44720048656C692053657475D9
:1018900070004C696D6974730054656C656D657496
:1018A0007279004D6F64656C2053656C65637400DC
:1018B0004D6F64656C205365747570004C61737472
:1018C000204D656E7500526164696F2053657475B3
:1018D0007000537461746973746963730042656561
:1018E0007020636F756E74646F776E004D696E75EE
:1018F0007465206265657000032D2D2D52746D4551
:10190000746D54746D41746D52454E527564456CDE
:101910006554687241696C50312050322050332038
:10192000000420204F4E204F4646424F544820414D
:101930004C4C4F4E434500072D2D2D2D2020207659
:101940003E76616C2020763C76616C20207C767C33
:101950003E76616C7C767C3C76616C414E44202006
:1019600020204F522020202020584F52202020207D
:1019700076313D3D7632207631213D76322076310A
:101980003E7632202076313C763220204C617463E2
:10199000682020462D466C6F702054696D654F6637
:1019A0006676603D76616C20312D53686F7420310E
:1019B0002D53686F7452004E616D65000657617259
:1019C0006E31205761726E32204368656570205217
:1019D000696E672020536369466920526F626F7495
:1019E00020436869727020546164612020437269E9
:1019F000636B74536972656E20416C6D436C6B52FE
:101A000061746174615469636B2020486170746310
:101A10003148617074633248617074633300546993
:101A20006D6572005452453031324147470052785B
:101A30003D000354783D53777200204142434445B2
:101A4000464748494A4B4C4D4E4F505152535455BE
:101A5000565758595A6162636465666768696A6B6C
:101A60006C6D6E6F707172737475767778797A3089
:101A70003132333435363738395F2D2E00000102CC
:101A800003FEFF0405060A0B0C0D0E0F23FD202498
:101A900025261D1E1F27F6F7F8F9FAFBFCF528117D
:101AA000292AF1F2F3F4F0042D2D2D2D41313D20A2
:101AB00041323D20525353495453534954696D3177
:101AC00054696D32416C742047616C744773706463
:101AD00054313D2054323D2052504D204655454C06
:101AE0004D6168314D61683243766C744261747443
:101AF000416D70734D61682043746F744661735615
:101B000041636358416363594163635A5673706418
:101B1000477672314776723247767233477672343F
:101B200047767235477672364776723746776174F4
:101B3000527856204864672041333D2041343D208F
:101B400053433120534332205343332053433420F3
:101B5000546D4F4B00032D2D2D783E30783C307C5A
:101B6000787C663E30663C307C667C633120633234
:101B700020633320633420633520633620633720AD
:101B8000633820633920633130633131633132632C
:101B900031336331346331356331360004503120E1
:101BA00020503220205033202048414C4646554C8E
:101BB0004C43594331435943324359433350504DB9
:101BC0003150504D3250504D3350504D3450504D97
:101BD0003550504D3650504D3750504D38434831A8
:101BE000204348322043483320434834204348357B
:101BF000204348362043483720434838204348395B
:101C00002043483130434831314348313243483131
:101C100033434831344348313543483136535743D1
:101C200048475631204756322047563320475634CE
:101C300020475635204756362047563720544849C6
:101C40005300537769746368205761726E696E67D9
:101C50000067656E7772697465206572726F7200D5
:101C6000454550524F4D20466F726D617474696ED8
:101C7000670042616420454570726F6D2044617455
:101C80006100434845434B204D4F44454C20544947
:101C90004D45525300434845434B204D49582F442E
:101CA0005220534F5552434553004D4F44454C200D
:101CB00020202020004D4520202020202020200012
:101CC000454550524F4D206F766572666C6F7700B8
:101CD000E2AEA6A4A22F2500000000000000000034
:101CE00000000000000000000000000000000B07E2
:101CF000000000C0C0C0C0C0C0C0000000000000A4
:101D000000000000000000000000000606000000C7
:101D10000080E0781E06181E0701000000F8FC8E07
:101D2000C66EFCF8070F1D181C0F07080CFEFE00FE
:101D3000000018181F1F1818000C0E86C6EE7C38FD
:101D40001E1F1B1918181806C6C6C6EEFC38181830
:101D500018181D0F07C0E0B0988CFEFE01010101AC
:101D6000011F1F7E7E6666E6C686060C18181C0FCD
:101D700007F8FCE666E6CC88070F1C181C0F070660
:101D80000606C6E67E1E001C1F0300000038FCEE9F
:101D9000C6EEFC38070F1D181D0F0778FCCE86CE47
:101DA000FCF8040C1D191D0F070000003030000066
:101DB00000000003030000E0F89C869CF8E01F1F71
:101DC0000101011F1FFEFEC6C6EEFC381F1F1818BA
:101DD0001D0F07F8FC0E060E0C08070F1C181C0C34
:101DE00004FEFE060E1CF8F01F1F181C0E0703FE53
:101DF000FEC6C6C606061F1F1818181818FEFEC60F
:101E0000C6C606061F1F0000000000F8FC0E06CE26
:101E1000CCC8070F1C18181F0FFEFEC0C0C0FEFE66
:101E20001F1F0000001F1F0606FEFE0606001818F2
:101E30001F1F18180000060606FEFE060E1E1818C4
:101E40001F0F00FEFEF0381C0E061F1F03070E1C9E
:101E500018FEFE00000000001F1F1818181818FEBA
:101E6000FC187018FCFE1F1F0000001F1FFEFC70F6
:101E7000C080FEFE1F1F0000030F1FF8FC0E060EA1
:101E8000FCF8070F1C181C0F07FEFEC6C6EE7C38B8
:101E90001F1F0000000000F8FC0E060EFCF8070FE4
:101EA0001C1B1E0F1BFEFE86C6EE7C381F1F030781
:101EB0000E1C18387CEEC6C68E0C0C1C18181D0F94
:101EC000070606FEFE06060000001F1F000000FEBB
:101ED000FE000000FEFE070F1C181C0F07FEFE0090
:101EE0000000FEFE01070E180E0701FEFE00800036
:101EF000FEFE1F0F0603060F1F1E3EF0E0F03E1E03
:101F00001E1F0301031F1E7EFEC0C0FE7E000000D8
:101F10001F1F0000000686C6E6F67E3E1F1F1B1927
:101F200018181800000000000000181818181818D9
:101F3000180060606060E0C0060F1F1B1B1F1FFEC3
:101F4000FEE060E0C0801F1F1C181C0F07C0E0E00F
:101F50006060E0C00F1F1C18181C0C80C0E060E01F
:101F6000FEFE070F1C181C1F1FC0E0606060E0C071
:101F70000F1F1B1B1B1B01C0F8FCCEC60E0C001F45
:101F80001F00000000C0E0703070E0C003C7CECC7E
:101F9000EE7F3FFEFEC0E0E0C0801F1F0100001F7B
:101FA0001F000060E6E600000000181F1F18000078
:101FB000000000E3E300307060607F3F00FEFEC081
:101FC000E07038181F1F03070E1C18000006FEFEE5
:101FD00000000000181F1F1800E0E060C060E0C0B3
:101FE0001F1F0001001F1FE0E0C0E0E0C0801F1FB6
:101FF0000100001F1F80C0E060E0C080070F1C18B8
:102000001C0F07E0F0703070F0E0FFFF0E0C0E0FB9
:1020100007E0F0703070F0E0070F0E0C0EFFFFE0ED
:10202000E0C06060E0E01F1F0000000000C0E06052
:1020300060606060191B1B1B1B1F0E6060FEFE6052
:10204000600000000F1F181C0CE0E0000000E0E042
:10205000070F1C1C0E1F1FE0E0000000E0E001075E
:102060000E180E0701E0E0000000E0E00F1F180E60
:10207000181F0F60E0800080E060181C0703071C39
:1020800018E0E0000000E0E007CFCECCEC7F3F603E
:1020900060606060E0E01C1E1E1B1B191900000040
:1020A00000000000006F000007000700147F147F8D
:1020B00014242A7F2A1223130864623649552250B9
:1020C0000005030000001C2241000041221C0014F6
:1020D000083E081408083E080800503000000808B0
:1020E00008080800606000002010080402003E4953
:1020F000453E0000427F4000625149460041494947
:1021000036001814127F0027454539003E494932F0
:1021100000017905030036494936000649291E00A9
:102120000036360000005636000008142241141410
:102130001414144122140800020151090600060972
:1021400009067E0909097E7F494949363E414141D8
:10215000227F4141221C7F494949417F09090901E8
:102160003E4149497A7F0808087F00417F410020AD
:1021700040413F017F081422417F404040407F02A0
:102180000C027F7F0408107F3E4141413E7F0909D8
:1021900009063E4151215E7F0919294626494949D0
:1021A0003201017F01013F4040403F1F2040201F7E
:1021B0003F4030403F63140814630708700807610C
:1021C00051494543007F414100020408102000416D
:1021D000417F0004020102044040404040080408DE
:1021E000100820545454787F4844443838444444B8
:1021F00020384444487F3854545418087E0901025A
:102200000C5252523E7F0804047800447D40002066
:1022100040443D007F1028440000417F40007C0482
:102220001804787C0804047838444444387C141436
:102230001408081414187C7C0804040848545454E6
:1022400020043F4440203C4040207C1C2040201C77
:102250003C4020403C44281028440C5050503C4402
:1022600064544C44000836410000007F00000041E7
:102270003608000808221C08081C22080804027FEF
:10228000020410207F20100102040810204080402A
:10229000800804201002019CCE003264E2F100327A
:1022A00064645A505A6450463C46649C141E465A14
:1022B000536572766F20546573742838290053650E
:1022C00072766F205465737428313629004779720D
:1022D0006F2053657475700048656C692053657490
:1022E000757000456C65766F6E5C44656C7461005A
:1022F000562D5461696C00537469636B7920542DB9
:1023000043757400542D4375740053696D706C658A
:1023100020342D4348000A230423F722F022E3222D
:10232000D822CD22BE22B0220000891112239B3276
:102330002446AD573665BF74488CC19D5AAFD3BE95
:102340006CCAE5DB7EE9F7F88110080193331A22A5
:10235000A5562C47B7753E64C99C408DDBBF52AE75
:10236000EDDA64CBFFF976E802218B301002991385
:102370002667AF763444BD554AADC3BC588ED19F55
:102380006EEBE7FA7CC8F5D983310A209112180365
:10239000A7772E66B5543C45CBBD42ACD99E508F35
:1023A000EFFB66EAFDD874C904428D5316619F7035
:1023B0002004A9153227BB364CCEC5DF5EEDD7FC15
:1023C0006888E1997AABF3BA85520C4397711E6025
:1023D000A1142805B3373A26CDDE44CFDFFD56ECF5
:1023E000E9986089FBBB72AA06638F7214409D5105
:1023F0002225AB343006B9174EEFC7FE5CCCD5DDD5
:102400006AA9E3B8788AF19B87730E6295501C41E4
:10241000A3352A24B1163807CFFF46EEDDDC54CDB4
:10242000EBB962A8F99A708B088481951AA793B6C4
:102430002CC2A5D33EE1B7F04008C919522BDB3AB4
:10244000644EED5F766DFF7C899400859BB712A684
:10245000ADD224C3BFF136E0C1184809D33B5A2A94
:10246000E55E6C4FF77D7E6C0AA583B41886919764
:102470002EE3A7F23CC0B5D14229CB38500AD91B74
:10248000666FEF7E744CFD5D8BB502A49996108744
:10249000AFF326E2BDD034C1C3394A28D11A580B54
:1024A000E77F6E6EF55C7C4D0CC685D71EE597F414
:1024B0002880A1913AA3B3B2444ACD5B5669DF7834
:1024C000600CE91D722FFB3E8DD604C79FF516E404
:1024D000A9902081BBB332A2C55A4C4BD7795E6814
:1024E000E11C680DF33F7A2E0EE787F61CC495D5E4
:1024F0002AA1A3B03882B193466BCF7A5448DD59F4
:10250000622DEB3C700EF91F8FF706E69DD414C5C3
:10251000ABB122A0B9923083C77B4E6AD5585C49D3
:10252000E33D6A2CF11E780F2B050A0C0D0B102BC6
:102530002B082B2B2B2B2B2B0406171A11131415DE
:102540001609181B122B2B2B2B07191C1D1E1F27BE
:10255000202122262B00708F11241FBECFEFD0E147
:10256000DEBFCDBF11E0A0E0B1E0E2EDF0E201E0BE
:102570000BBF02C007900D92A231B107D9F71FE03F
:10258000A2E1B1E001C01D92A335B107E1F715E268
:10259000C8E5D5E200E006C022970109FE010BBFA5
:1025A0000E943290C635D10780E00807A9F70E9443
:1025B000FF8D0C9467900C940000E0915E0694E00F
:1025C000E99FF0011124E80FF11DED58FC4F8491B3
:1025D0008F5F0895F8948091790D90917A0D789499
:1025E0000895E82FF0E0E65AFC4F849108952AE020
:1025F000829FC00111248E589D4F089590916006CE
:1026000091708091C90586FB882780F989270895F4
:102610000F93022F207104FF03C00F7E9DE201C0C3
:1026200094E2411104C024E04EE453E00EC0453072
:10263000A0F49091C90594FF0BC0006194E0499FFC
:10264000A00111244858594F24E00E94497716C030
:102650002FEF240F43E853E00FC0941728F02BEF1F
:10266000240F4CE95BE108C0222311F0475B491BB2
:102670002CED240F47EA5AE10E946D770F910895DF
:102680000F93CF93DF93C82FD62F022F411104C091
:1026900024E049E453E00DC04A3010F086E101C067
:1026A00081E18C0F202F6D2F0E94FD7922E046E4FE
:1026B00053E06D2F8C2F0E944977DF91CF910F91BE
:1026C0000895CF93DF93E6E8F1E080918C061082C5
:1026D00091E0918381FF09C092E2928393E2938318
:1026E000EF01259694E2948304C0EF01239692E0D3
:1026F000928382FF09C09FE1988390E29983FE0153
:10270000339691E29A8304C0FE01319693E0988358
:1027100094E0908395E0918396E0928384FF09C0D2
:1027200095E2938396E29483EF01269697E2958350
:1027300004C0EF01249697E0938385FF09C098E2D7
:10274000988399E29983DE0113969AE29A8304C0F2
:10275000DE01119698E0988399E09C93FD0186FD37
:1027600002C0319604C032969BE2ED01998387FF47
:1027700003C08CE280833196DF018AE08D938F5F06
:102780008C31E1F7828BCF018457914080935801BF
:102790002DE1238B40E099270196242F30E082170A
:1027A000930754F0F901EA57FE4FE081F0E0E75A51
:1027B000FE4F40834F5FF1CF9091900690FF0AC08B
:1027C000809164008B7F80936400809165008460B9
:1027D0008093650091FF02C0BF98C79ADF91CF91A7
:1027E000089587FF03C0819591E001C090E0E82F34
:1027F000FF27E7FDF095E75AFE4F80819111819503
:10280000089587FF03C0819591E001C090E0E82F13
:10281000FF27E7FDF095EA57FE4F808191118195E2
:1028200008950F931F93CF93DF93D62FC42F022FBA
:1028300016E0180F442339F04C3141F0443E81F446
:102840004CE953E005C042E453E002C048E953E0DC
:102850006D2F812FDF91CF911F910F910C947F7776
:1028600047FF04C041E20E949176C1952FEF2C0FE3
:102870002D3114F02CEF2C0F40EA53E06D2F812FF7
:102880000E946D77DF91CF911F910F9108950F9363
:102890001F93CF93DF93D82F162FC42F022F4D32C3
:1028A00034F04DE682E18D0F0E949176CC52202FBC
:1028B0004C2F612F8AEF8D0FDF91CF911F910F91D8
:1028C000B0CFDF92EF92FF920F931F93CF93DF93DE
:1028D000D82F162FF42E27FF03C0E2E1F2E002C04A
:1028E000EDE0F2E0C281D3802370E22E81E0821716
:1028F00018F1C4306CF483E0C802A00111244B5CD1
:102900005C4F0F2D23E0612F8D2F0E94497718C057
:10291000CD5F0F2D2C2F45E55BE1612F8D2F0E94A0
:102920006D77C0310CF4D6502F2D45E2612F82E136
:102930008D0F0E94917604C082E028130AC004C063
:10294000E11007C0C13029F42F2D4D2D612F8D2F9F
:102950009EDFDF91CF911F910F91FF90EF90DF905D
:1029600008951F93CF93DF93EA0194E0699FF001EC
:102970001124EB50FB4F408150E01381107C103844
:1029800011F4440F551F9A01A82FB0E00E947A8FCE
:10299000103C49F424E630E040E050E00E94EE8F25
:1029A00091E081E41EC04436510570F4103461F0AA
:1029B000660F771F881F991F23E330E040E050E047
:1029C0000E94EE8F92E009C02FEF30E040E050E02F
:1029D0000E94EE8F103419F091E086E702C090E07B
:1029E00080E2209709F0988380935701C901DF9115
:1029F000CF911F910895DF92EF92FF920F931F9353
:102A0000CF93DF931F92CDB7DEB7D82EF62E842F4B
:102A1000102FAE014F5F5F4F622FA3DFAC018981A2
:102A2000813011F4106203C0823009F41063809188
:102A30005701863781F49A0140E050E065E0E62EC8
:102A4000012F6F2D8D2D0E94C27817FD16C0212FEA
:102A5000409157010DC0212F6F2D8D2D0E94CD79F2
:102A600080915701813449F417FD07C0212F41E4BB
:102A70006F2D8091650D0E949176809157010F9086
:102A8000DF91CF911F910F91FF90EF90DF9008950C
:102A9000873038F4E82FF0E0EE0FFF1FE15CF74FCE
:102AA00024C08C3050F18431C0F4482F50E0DA015A
:102AB000AA0FBB1FA45FBE4F2D913C91803148F4FB
:102AC000FA01EE0FFF1FEC5CF94F80819181281B0A
:102AD000390BC901880F991F0895843248F4E82FF3
:102AE000F0E0EE0FFF1FE950F84F808191810895CB
:102AF0008E3418F484520C947D2B80E090E008957D
:102B00000E94FB8D882311F0A895FACF1092A90D91
:102B100008951F93CF93DF93EC01162F0E94457603
:102B2000BE0188E10E94A47712FF04C067E182E140
:102B30000E94928710FD11C011FF06C06FE173E083
:102B400080E30E94A47706C041E153E068E38CE192
:102B50000E94BA774CE653E002C049E053E024E01B
:102B600060E086E1DF91CF911F910C947F7761E067
:102B7000D0DF0C94F57A0F93262F00E040EA53E063
:102B800060E10E946D770F9108951F93CF93DF93BB
:102B9000C6E110E08C2F0E94EE7B110F182BC15064
:102BA000CE30C1F780918C0682FF12C08FE10E9467
:102BB0009C7C24E0829FE0011124137CC12B84E0E3
:102BC0000E949C7C20E1829FC00111241C2F182BA5
:102BD000812FDF91CF911F91089570E0882399F0A4
:102BE00090E0019725E0289FF001299FF00D112426
:102BF000E60FF71FEE0FFF1FE35EFA4F8081918112
:102C00008B509E4F0895FB01E65CFB4F8081992716
:102C100087FD909508951F93CF93DF93D82F162F9C
:102C2000C4E0DD2391F0612F8D2FD7DF9C01253F7C
:102C300081E0380764F08BE0820F8D1710F08CE094
:102C4000820FC15029F0D82FECCFC0E001C0CD2FAA
:102C50008C2FDF91CF911F910895CF93C62FDBDF8B
:102C60006C2FCF91BACF8E3791053CF483382FEF7C
:102C7000920734F483E89FEF03C08DE790E0089556
:102C80000895FF920F931F93CF93DF938A01C62F6E
:102C9000D0E08823D9F0BFDFF82E8823B9F0C8012F
:102CA000E2DF2F2D30E02150310945E0429FF00155
:102CB000439FF00D1124EC0FFD1FEE0FFF1FE35E8D
:102CC000FA4F855F91409183808305C0C801CBDFB7
:102CD000C65CDB4F888386E0DF91CF911F910F9117
:102CE000FF900C943B7090914A01911103C08111A7
:102CF00006C00895811103C08FEF890F01C080E0E5
:102D000080934A018EEB809349010895E0914A0136
:102D1000F0E0EE0FFF1FE55BFE4F918380838FEBAA
:102D2000809349010895809162062AEF829FC00135
:102D30001124880F991F20913A0130913B012817E7
:102D4000390720F490933B0180933A010895EEE413
:102D5000FEE037A1303180F420A541E0420F40A7CA
:102D6000DF01A20FB11DA20FB11D8D939C934031C5
:102D700008F010A63F5F37A3089590E08C5F9E4F48
:102D8000E6CF90E0E4CF8093230290E04097DFCF3E
:102D90000F931F93CF93DF93EC018091690681FF1E
:102DA00007C180917A0686FF89C012E001E00E9487
:102DB0009C7D8F3F2FEF920781F029A9211104C03C
:102DC0008F31A9F709ABF3CF213011F419ABEFCF55
:102DD000223069F78AAB19AAEACF8EA1813041F57A
:102DE0003FA1332309F452C029A5FE01E20FF11DD2
:102DF000E20FF11D808191812F5F203108F020E0EA
:102E000029A731503FA32091D30121FDE0C097FDB8
:102E100002C021E101C028E22BA32FE12AA722E072
:102E20002BA78CA79DA718AA84E08FA72EA32EC03E
:102E3000811106C08091780D8D3340F186E025C068
:102E4000823021F19AA99078833049F4992329F0AE
:102E50008BA181508BA3811119C084E016C08430EE
:102E600021F4992399F083E00EC0853039F48BA1C9
:102E700081508BA381110AC081E007C0863031F4F4
:102E8000992321F084E18BA385E08EA38EA182306B
:102E900009F49DC08BA98F5F8BAB8A3008F497C073
:102EA0001BAA8DE18AA781E08BA798A1911101C08F
:102EB00080E08CA718AA83E08FA789C098A189A178
:102EC000992311F0846001C08B7F89A38EA181308A
:102ED00081F5C79A2FA1222349F189A531E0380F46
:102EE00039A7FE01E80FF11DE80FF11D80819181E6
:102EF0009DA38CA3303108F019A621502FA3209157
:102F0000D30121FD64C097FD02C021E101C028E288
:102F10002BA329A12C7F97FD226029A389A18BBB1C
:102F2000C7988FE18AA382E08EA351C089A18BBB91
:102F30004DC081110CC0C79A89A1836089A38BBB46
:102F40008091780D8D3308F441C086E02FC0823027
:102F500009F43DC089A18BBBC79ABF9800C000008F
:102F600000C086B38078BF9A9EA1933049F488232D
:102F700029F08BA181508BA3811128C084E016C059
:102F8000943021F4882311F183E00EC0953039F498
:102F90008BA181508BA3811119C081E007C09630AD
:102FA000A9F4882399F084E18BA385E08EA30EC059
:102FB0008091900681FD0BC08091660686FB882774
:102FC00080F998A1981711F0C79A01C0C798DF91AE
:102FD000CF911F910F91089590915E0690FD02C0D0
:102FE00093E08927E82FF0E0E35BF74FE081E7FD0E
:102FF000E95FE595E595E5951E1624F0EE2321F0B1
:10300000E19502C080E801C080E0E83008F0E7E028
:10301000F0E0ED5AFC4FE491EE2319F099E0909323
:1030200055018E2B0895853030F46FEF680F809135
:10303000030713DE24C08D3080F4E82FF0E0EE0F9C
:10304000FF1FED5CF74F8081918197FD0796E3E0CC
:1030500095958795EA95E1F712C08D3170F4E82FC8
:10306000F0E0EE0FFF1FEB5FF74F808191816AE088
:1030700070E00E94DB8FCB0102C080E090E0F3CDD6
:10308000482F833021F0882321F0E82F03C0E0E0AF
:1030900001C0E3E0F0E0EE0FFF1FED5EFE4F808128
:1030A0009181443080F420917B0630E002C0359558
:1030B00027954A95E2F720FF06C020E038E0A901F5
:1030C000481B590BCA0108951F93CF93DF9310E05B
:1030D000C0E0D0E0812FD4DFC80FD91F1F5F1430AC
:1030E000C9F7C058DF4F8D2F90E0DF91CF911F912E
:1030F0000895CF9380915E068170C2E0C81B8C2F2B
:10310000BFDF6C2F0E945E4B2091C90525FF05C0D3
:103110000F964F9728F080E004C081319C4FDCF778
:1031200081E0CF910895E3E1F1E040E0842F8064F5
:1031300087B900C000C0369A3699FECF24B135B1A8
:10314000369A3699FECF84B195B1820F931F369A85
:103150003699FECF24B135B1280F391F369A3699EA
:10316000FECF84B195B1820F931F96958795819379
:1031700091934F5F4830D1F6089578941F920F9243
:103180000FB60F9211248F93809112018F5F80935D
:1031900012018F910F900FBE0F901F901895789489
:1031A0001F920F920FB60F9211240BB60F922F930E
:1031B0008F939F93CF93DF93EF93FF93F89487B709
:1031C0008F7B87BF78942091D7018091D90190910E
:1031D0006906882359F090FF07C08091520F820F33
:1031E0008093520F87FF02C01B9A01C01B9891FF6A
:1031F00050C080917A0686FF22C0EEE4FEE087A5EB
:10320000882309F446C080911702811142C0809141
:103210009B0085FF0DC080A991E0980F90ABEF0156
:10322000C80FD11D8AA580939C0087A5815087A7D0
:1032300087A581112EC086A1823059F526C08091C4
:103240006209811126C0EEE4FEE086A1823009F514
:1032500083A1882311F081501BC021A1C79A82A1AC
:1032600080FD09C02D7F84A195A196FD2260880F65
:10327000991F95A384A381E082278BBB81A3C79864
:1032800082A1815082A3811104C083E086A385E0DE
:1032900083A3F89487B7806487BF7894FF91EF91F8
:1032A000DF91CF919F918F912F910F900BBE0F9037
:1032B0000FBE0F901F90189578941F920F920FB623
:1032C0000F9211240BB60F922F933F934F935F935E
:1032D0006F937F938F939F93AF93BF93EF93FF93DE
:1032E00081B7845681BF85ED91E00E94D0850E9410
:1032F000CC7C0E94E88C8091B10D82608093B10DEE
:10330000E2E0F1E08081815011F0808304C084E626
:10331000808381E081838281815011F0828305C0A6
:103320008AE08283838181608383FF91EF91BF91E3
:10333000AF919F918F917F916F915F914F913F914D
:103340002F910F900BBE0F900FBE0F901F901895EE
:1033500078941F920F920FB60F9211240BB60F9212
:103360002F933F934F935F936F937F938F939F938D
:10337000AF93BF93EF93FF93209180003091810032
:10338000F89480917D008F7D80937D00789480916A
:10339000AB069091AC06A901481B590BCA01969542
:1033A00087953093AC062093AB06409123019C0196
:1033B000215A3F402F3D3E4230F12FEF240F28305D
:1033C00028F59C012152334027373540F0F424E69C
:1033D00020932202E42FF0E0EE0FFF1FEE5DFE4F80
:1033E0009C012C5D354050916406565F529FC00190
:1033F000539F900D11246AE070E00E94DB8F71836F
:1034000060834F5F03C041E001C040E0409323016F
:10341000F89480917D00806280937D007894FF9184
:10342000EF91BF91AF919F918F917F916F915F913C
:103430004F913F912F910F900BBE0F900FBE0F90A9
:103440001F90189590E0880F991F8455914FFC01AB
:10345000F894808191817894089584E0F3DF20913D
:10346000E5073091E607820F931F089592EC980FBD
:1034700081E0973008F080E00895FC018081882386
:1034800059F0843218F085520C94EA2B815000DBFD
:1034900040E060E00C949A8708959C0165E03595C2
:1034A00027956A95E1F7280F391FAC01440F452F86
:1034B000441F550B241B350B892F990F990B8595AC
:1034C000820F931F08959DE7980F9B3F88F08E57BA
:1034D000E82FF0E0EE0FFF1FE15FFA4F80818617C3
:1034E0001CF46083862F0895481714F44083842FBA
:1034F000089544E66CE9E7CF982F8091690284FF34
:1035000003C081E0923009F080E0089549E284022E
:1035100090011124359527953595279587FD815C78
:1035200086FB880F880B80F9A901481B510987FD8C
:103530005395CA0108955F926F927F928F929F92E6
:10354000AF92BF92CF92DF92EF92FF920F931F93B1
:10355000CF93DF93982E842E882309F4E7C12CE1C2
:10356000821721F034EE831303C0DCC181E0DFC198
:10357000992787FD909597FF03C0919581959109B3
:103580008D3191056CF00E94307C982F81E01914E8
:103590001CF49111CCC1C6C1992309F4C8C1C2C1A0
:1035A000892D87FD81958A3040F4825F0E94EE7BF1
:1035B00019140CF4BCC191E0B3C18A50082F10E07B
:1035C0008C3008F4EBC0E801CC0FDD1FCC0FDD1F01
:1035D000C75CDA4F8A81882309F4A4C194E0981566
:1035E00008F4EBC0A88079800E94F112811117C005
:1035F0008FEF8A0D4DDA6C01888185326CF05BEDBE
:10360000B52EB80E69818B2D0E940C2B7C018B2D61
:103610000E94DF2AB82E16C0898178DF09C0823067
:1036200059F48FEF8A0D34DA6C018981815030DAD8
:103630007C01BB24B39406C0BB24B394E12CF12CD1
:10364000C12CD12C4A8150E0FA013197E131F105CA
:1036500008F09EC0EA5BFF4F0C942C90D7FE4EC042
:10366000D194C194D1084AC0D7FE4DC0D194C19421
:10367000D10849C08881FADE882369F08AE0960182
:10368000829F6001839FD00C11249701829F70015B
:10369000839FF00C1124CE18DF083FE1C30ED11C2C
:1036A00091E08FE3C816D10408F44FC047C0EE2460
:1036B000E394E80C4E2D60E08A2D3DDFF82E4E2D70
:1036C00060E0872D38DF982F8A81853031F4FF2024
:1036D00009F45EC091115AC05BC0863019F4F11034
:1036E00055C033C09F2531C091E0CE14DF0431F5C1
:1036F0002CC091E0CE14DF0441F520C091E0EC1421
:10370000FD041CF11BC091E0CE14DF04F4F016C0E0
:10371000F801EE0FFF1FE155FE4F91819095991F23
:103720009927991F12C0F801EE0FFF1FE155FE4FB8
:1037300091E020813181121613063CF090E005C023
:10374000F801EF56F94F90819170BB2009F1992350
:1037500001F18B818823C1F097EF980F933108F422
:103760008F5F9BE1980F933110F4815002C08C3130
:1037700021F0843E19F487EF01C089E041E0480D53
:1037800060E0D9DE982F05C091E003C0B110E1CF11
:1037900090E08A818C3008F0C0C0BBC05801AA0CF0
:1037A000BB1CE501C00FD11FC255DB4F8A818F7052
:1037B00009F4B8C094E0981530F4F801EF56F94FC9
:1037C00090819170AAC0688059800E94F112811185
:1037D00017C08FEF860D5CD96C01888185326CF043
:1037E0009BED792E780E6981872D0E940C2B7C0130
:1037F000872D0E94DF2A782E16C0898187DE09C0B6
:10380000823059F48FEF860D43D96C018981815044
:103810003FD97C017724739406C077247394E12CFC
:10382000F12CC12CD12C8A818F7090E0FC01319752
:10383000EE30F10508F066C0E95AFF4F0C942C9069
:10384000D7FE32C0D194C194D1082EC0D7FE31C06A
:10385000D194C194D1082DC0EE24E394E80C4E2DF0
:1038600060E0862D68DEF82E4E2D60E0852D63DE4B
:10387000982F2A812F70253031F4FF2009F442C09F
:1038800081113EC03FC0263019F4F11039C025C067
:103890009F2523C091E0CE14DF0479F41EC091E08F
:1038A000CE14DF04D1F409C091E0EC14FD04ACF0B7
:1038B00004C091E0CE14DF0484F090E00EC0F50166
:1038C000E155FE4F91819095991F9927991F05C049
:1038D000F801EF56F94F90819170772099F0992374
:1038E00091F08A8182958F7049F089300CF08F5F5A
:1038F00041E0480D60E01FDE982F05C091E003C055
:103900007110EFCF90E02A812F7030E02C3031051C
:1039100024F4F801EF56F94F908319142CF081E04C
:10392000892705C080E003C0892F01C0862FDF9161
:10393000CF911F910F91FF90EF90DF90CF90BF90AC
:10394000AF909F908F907F906F905F90089540E030
:1039500060E0F1CD80914B06FADF811113C08091B8
:103960003A0190913B01892B69F410926E0E80917F
:10397000780D9091AF06981749F08093AF068EE4CA
:103980009EE006CA81E080936E0EF1CF0895CF933A
:10399000DF93C62F20915502222339F090935702CE
:1039A00080935602DF91CF91089564E0B2D80E94CF
:1039B000F57AC11103C08091480601C089E10E94D7
:1039C000C27A9ED8D1E00E94FB8D882319F0DF9146
:1039D000CF9196C88091B10D833019F4A8951092BB
:1039E000B10DCC2319F0D0936E0E02C010926E0E62
:1039F000B1DFE9CF60E0CBCFE0914A01E43018F0CD
:103A000086EB92E0F7CF2FEB20934901EF5FE09335
:103A10004A01F0E0EE0FFF1FE55BFE4F91838083CC
:103A2000089580915D0680FD16C07DDB62DB81110B
:103A300012C066E088EE92E06CD80E94F57A60D8F9
:103A400072DB88DFA89555DB811105C00E94FB8DD4
:103A50008823B1F355C80895DF92EF92FF920F9338
:103A60001F93CF93DF9380915D0681FD90C0C0913D
:103A70000705F090190680918C0682FD0CC08C2FF2
:103A80008873883041F0803131F0803221F0C77C7A
:103A9000C860C0930705E12CDD24D39476D8182F95
:103AA00085E20E949C7C082FD12FDC276E2D62605E
:103AB00083EC92E02ED8D0FF03C060E082E05BD8B8
:103AC000D1FF03C061E087E156D880918C0682FF68
:103AD0001AC08D2F8C7051F0612F70E0759567952D
:103AE000759567956370655E8CE245D88D2F807300
:103AF000F9F0612F70E0F4E075956795FA95E1F7BC
:103B000063706D5F13C0D2FF03C062E08CE233D8F4
:103B10008D2F887369F013FF02C063E007C014FFA4
:103B200002C064E003C015FF03C065E081E423D850
:103B300080918C0684FF0AC0802F8F25837061F0EE
:103B4000602F63706F5D86E516D806C0D6FF03C090
:103B500066E086E510D80F2DD7FF03C067E08BE63F
:103B60000AD80E94F57ADD2029F00E948015E4E051
:103B7000EE2E01C0E12C1C1302C00F1541F00E9473
:103B8000FB8D811104C0E6DEA895D12C87CFDF9193
:103B9000CF911F910F91FF90EF90DF9008958111C9
:103BA000C2D880913A0190913B01009709F00197AA
:103BB00020913901222361F020916A064AEF249F67
:103BC00090011124220F331F8217930708F4C901B3
:103BD00090933B0180933A01BDCE7F928F929F924A
:103BE000AF92BF92CF92DF92EF92FF920F931F930B
:103BF000CF93DF930E94EA122091AD063091AE067A
:103C0000AC01421B530B4B30510538F01092B306F8
:103C10001092B206FF24F39401C0F12C9093AE06EB
:103C20008093AD06D0908C06CEE0D0E098E0C92E0F
:103C300000E010ECB12C5D2D5470A52E8D2D8071FF
:103C4000982E8C2E2091B2063091B306202331237A
:103C50000C2E02C0369527950A94E2F7722EEC2CB2
:103C60008C2D75DE43E0C41651F057E0C5120FC02D
:103C7000992079F085E20E949C7C95E206C0AA20FA
:103C800051F08FE10E949C7C9FE1980F05C09C2D14
:103C900003C097E001C093E0781631F1282F30E09F
:103CA00002C0220F331F8A94E2F7A8014095509575
:103CB0006091B2067091B30646235723242B352B0F
:103CC0003093B3062093B206993010F0E92E0DC060
:103CD0009CEF9C0D933018F4811107C005C0811131
:103CE00004C0EC2CE19401C0EB2C169507951695B9
:103CF0000795CA942297CC2011F0BE2CA2CFCE2DCE
:103D0000E11012C089E023DE282F30E04091B10697
:103D1000C901842780FF08C0232B09F0C9E081E096
:103D200084278093B106EC2ED6FE16C0E11014C095
:103D30008BE20DDE282F30E0220F331F4091B106B9
:103D4000C901842781FF08C0232B11F0DBE2ED2E8F
:103D500082E084278093B106D7FE16C0E11014C01C
:103D60008CE2F5DD94E0899F900111249091B106D9
:103D7000A901492742FF08C0232B11F0CCE2EC2E09
:103D800084E089278093B106F110E12C8E2DDF911C
:103D9000CF911F910F91FF90EF90DF90CF90BF9048
:103DA000AF909F908F907F900895AF92BF92CF92E7
:103DB000DF92EF92FF920F931F93CF93DF938C01CB
:103DC0007B016A01A22EB09018029B2D9F7D943436
:103DD00039F080911D08882309F4A6C0933479F442
:103DE000B19906C080913E01E801C80FD11D02C003
:103DF000E801219683E10E94888785E010C0953410
:103E000019F0923409F093C0B1998BC080913E01B2
:103E1000E801C81BD10984E10E94888784E00E94E0
:103E2000EE7B811173C0E114F104F9F481E0C8164E
:103E3000D104D9F480E6B81619F08EE2B81211C098
:103E400010921D08C1E00115110509F0C0E0D0E095
:103E50008B2D0E94BD7C8EE2B81206C010925308D2
:103E600003C0C170DD2701C0B12CA3FE09C0B5DEBF
:103E7000882331F00E94F113C82FDD27C7FDD095AC
:103E80004091410150914201C41BD50B80915308D0
:103E9000813071F440912102B19905C084E148025A
:103EA000A001112403C0552747FD5095C40FD51F0D
:103EB000CC16DD0644F48B2D0E94BD7C83E10E946C
:103EC0008887E6010AC0CE15DF053CF48B2D0E94E1
:103ED000BD7C84E10E948887E701C017D10749F1C2
:103EE000B19903C08FEF8093B006209751F48B2DCA
:103EF0000E94AD7C17FF02C083E101C084E10E94F3
:103F000088878A2D83700E943B7013C0CC27DD27E1
:103F1000C01BD10B85E00E94BD7C84E00E94BD7C6B
:103F200082CFE801219777CF953409F46DCFE8016E
:103F30007ACFCE01DF91CF911F910F91FF90EF903B
:103F4000DF90CF90BF90AF900895552747FD5095D3
:103F5000772767FD7095992787FD909526CF20914B
:103F60001608F3CF462F2091160860E0EECF462FBB
:103F700050E02091160860E070E017CF1F93CF93B8
:103F8000DF93D62F142FC22F0E94F113412F5527F4
:103F900047FD50956D2F772767FD70952C2F99273A
:103FA00087FD909502DFDF91CF911F910C94011452
:103FB0001F93CF93DF93C5E2D5E090E0888111E0B5
:103FC000190F882329F0C3DC882311F0812F05C045
:103FD000912F2A96143091F780E0DF91CF911F91B5
:103FE00008958F929F92AF92BF92CF92DF92EF92FD
:103FF000FF920F931F93CF93DF93EC01A62EB12C6A
:104000006501CC0CDD1CF601EC5DFD4F00811181DA
:104010008981882309F457C08D809E8088818150D2
:104020000E9448157C018981853038F4833050F432
:10403000813079F0823091F039C08530A1F086303E
:1040400071F134C0F7FE03C0F194E194F1088330BC
:1040500029F481E08E149F043CF125C081E0E8142E
:10406000F90414F120C0888101DA882369F08AE01C
:104070009701829F7001839FF00C1124F4018E9FA1
:1040800040018F9F900C1124E818F908FFE1EF0E12
:10409000F11C81E02FE3E216F10430F004C081E06E
:1040A000E814F90409F080E0E82EF12C8A818111EE
:1040B00004C0EF2829F081E01BC049DC8111F9CF51
:1040C00000E010E014C08A81882331F040DC8111C7
:1040D0000BC00FEF1FEF0CC08B81833040F09C8131
:1040E000907681E029F403C080E091E002C080E096
:1040F00090E0892BF501EC5CFD4F5F01F080209191
:1041000005019B8121FD2EC0933059F48A810E94C4
:104110009C7CF81689F1FF24F394F80E00E010E07F
:104120002CC0813041F4F11003C0292F2D7FB1F054
:10413000913089F421C0F1E0FF120CC08FEF890F9C
:10414000823040F480E000E010E09230B1F432E0E0
:10415000F32E13C080E0913219F40CC000E010E09F
:10416000F82E0BC0FF24F394913209F0F12C0FEFDD
:104170001FEF03C00FEF1FEFF12CF50180838C813F
:1041800087FD03C0F1100BC07EC088818530D0F35D
:1041900085520E94DF2A882309F475C0F3CF17FFE8
:1041A00004C08B81833028F46EC00115110509F01D
:1041B00057C08C818076803211F4CE015ED98C811B
:1041C000877069F1813031F52F81822F98858C3F7E
:1041D000F1E09F0748F040E050E060E070E084E0EC
:1041E000820F0E945A2A0DC0853F21E0920748F0B5
:1041F000FC01EE0FFF1FEB5DFE4F8081992787FDCD
:1042000090952F2D30E021503109820F931F0E948D
:10421000A71605C060E070E08F810E948D878C81B9
:104220008076803411F4CE0128D98C81282F287112
:1042300081F0869586958695837090E0029724F0AC
:10424000283121F48FE003C08DE001C08EE00E9490
:1042500088878B8183508E31A0F00FEF1FEF13C042
:104260001016110684F40F5F1F4F8B813AE0839F75
:10427000C00111244397081719072CF000E010E043
:1042800002C001E010E0F601EC5DFD4F11830083F8
:10429000DF91CF911F910F91FF90EF90DF90CF9022
:1042A000BF90AF909F908F9008951F93CF93DF930F
:1042B000C1EDD5E010E0612FCE0193DE29961F5F9E
:1042C0001830C9F7DF91CF911F9108954F925F92F7
:1042D0006F927F928F929F92AF92BF92CF92DF9216
:1042E000EF92FF920F931F93CF93DF931092520898
:1042F0008091120102B7909112018913F9CF10E059
:10430000182B0E9493188EE587B91BBA8FE18ABBE0
:1043100000C099B38FEF8ABBE9E1F2E0878188237F
:1043200011F080E202C0892F807E8483292F207CB7
:104330008081281759F08074880F9078318189170F
:1043400011F0315001C03F5F31832083828193811E
:10435000891711F0838381838091790D9091A6064E
:10436000282F291B20933C018093A60680911702D9
:10437000811106C060E085EF97E00E94C55801C03A
:10438000A89580913C01882309F41BC3C4E3D1E0C4
:1043900080911B08882319F0815080931B080E948C
:1043A00064182B813C818217930741F09C838B8397
:1043B0001A82198281E0809339012DC060915F06D5
:1043C000665F49F180913D01823328F188818F5FDA
:1043D0008883803100F189819A8101969A8389834B
:1043E000188247E751E0649F9001659F300D1124CA
:1043F0002817390780F48F719927019761F480910C
:10440000D3018D7F8093D30186E00E94C3166DE2B5
:1044100080E10E9492870E944C3F0E94B63C8091AE
:104420002202882319F081508093220280E00E94AA
:104430008D700E9445760E94827BD82E8091170253
:10444000811102C23D2D3F70A32E4AEFA40EC091F0
:104450006A02C43021F0C33019F4C4E001C0C8E0DE
:1044600057E05A1508F495C08D2D807F803209F4ED
:1044700090C08A2D86950E94DD1290917A0690FD5B
:1044800004C0CC24CA94C80E03C094E0C92EC81A34
:104490006C2D809103070E940B16B82E6C2D0E9484
:1044A0002D167C01C1110CC0EC0197FF04C0CC2774
:1044B000DD27C81BD90BD595C795D595C795CF5F77
:1044C00082E0C8120FC08091690280FD02C0912C69
:1044D00003C099249394C2E00E94FE12882319F02D
:1044E000C19501C0912CDD27C7FDD095A0FE03C06A
:1044F000CE0DDF1D04C0F701EC1BFD0BEF01209773
:1045000021F08D2F8F2587FF11C091100FC0EF284C
:1045100069F040E050E06C2D8B2D0E9441168D2DEE
:104520000E94BD7C86E10E948887DFC59E012458D9
:104530003F4F293F310548F4AE016C2D8B2D0E9471
:1045400041166C2FC7FF18C016C01C161D061CF4A0
:104550004DE750E002C043E85FEF6C2D8B2D0E94C9
:104560004116CE0183589F4F8B3F910508F0BDC582
:104570006C2F1C160CF4619567FD6D5F6595659554
:10458000772767FD7095645C7F4F85E10E948D877A
:10459000ACC58D2D8F7B71F48091B006B19987C524
:1045A0008F3F31F08F5F883C19F48FEFCDEBDC2E1D
:1045B0008093B006EFE3F1E080914B0890914C08B6
:1045C00020813181281B390B37FF02C0215E3F4F0C
:1045D000B5E035952795BA95E1F72115310561F0DC
:1045E00024813581281B390B37FF02C02F5F3F4FD5
:1045F0003595279591838083958384838091600688
:1046000085FD04C080911908882311F020E030E076
:1046100033832283C9E1D2E02D818981821B8F3FC0
:1046200009F480E087FD8F5F85958887982F990F23
:10463000920F9D838D29B3DAC0907606F7E0CF0EF6
:10464000E0914A01F0E0EE0FFF1FE55BFE4F808135
:104650009181805B934509F07BC080917608811140
:1046600077C02885222309F448C08E81332727FD8F
:104670003095A901480F511D87FD5A95CA010E9426
:1046800033168E8340E1E42E45E0F42E5FE0A52E44
:1046900055E0B52E6AEC862E65E0962EF7018081F6
:1046A0008530E1F440E061E0F40180810E949B1AD2
:1046B0008823A1F0F50170802885822F992787FD36
:1046C0009095870D911D77FC9A950E943316F50100
:1046D0008083781619F086EF0E943B70F2E0EF0EAF
:1046E000F11C22E0A20EB11C3FEF831A930A4EE1A7
:1046F000E41645E0F40691F61886E091D4048E2F76
:10470000807E31F1E295E695E770F0E0E430F10566
:1047100054F4EE0FFF1FEB5BF74F208131813C5FBC
:1047200060E078E00CC0EE0FFF1FE95FFA4F2081D8
:10473000332727FD309523583F4F6AEF70E047E05D
:10474000429FC001439F900D11240E94C78FC62E27
:1047500080912302C81619F08C2D0E94C3168091F7
:10476000660687FF3CC0809156018823C1F1809185
:1047700055018823B1F18091A50687FD03C08F5FA5
:104780008093A50682E00E94EC17982F9F7789F00E
:104790002091A506921728F51092A506D11021C0E8
:1047A000D82ED094DD1CDD24DD1C83E68D19D82E97
:1047B00018C083E00E94EC17982F9F7791F020910A
:1047C000A506921770F41092A506D1100AC0D82E33
:1047D000D094DD1CDD24DD1C54E6D50E02C0109201
:1047E000550181E080935601C0E1D5E08FE0E82ECD
:1047F00085E0F82E9AECA92E95E0B92EC880CC2041
:10480000C1F0F5018081811106C0F5E0CF1207C02B
:10481000F701808107C09BD88111F7CF0AC08C2D8A
:104820000E941318992787FD90950E943316F7016F
:1048300080832296F2E0EF0EF11C2FEFA21AB20A4B
:1048400035E0CE31D307D1F68091560290915702D0
:104850000097B1F060E00E9489150E94FB8D909155
:10486000A406992339F0811128C0109257021092A2
:10487000560223C0882309F181E08093A4061DC05D
:104880001092A406C0914901CC2331F01092490145
:1048900087E10E948887DC2E84E180933E01D092DC
:1048A0001802E0914A01F0E0EE0FFF1FE55BFE4FBA
:1048B0000190F081E02D8D2D09950E94F57AC0912F
:1048C000650085ED91E00E94BC85882311F084E1AC
:1048D00005C08091510F882321F081508093510FA2
:1048E00006C080916300869581708093500F8091FF
:1048F000500F80935402882309F4DBC3809166062D
:1049000085FDD7C3CF7EC09365008091780D8F71F0
:10491000823009F054C08091210190912201AC01B4
:10492000A4E0440F551FAA95E1F797FD0796BC0137
:10493000F3E075956795FA95E1F720914A063327DC
:1049400027FD30952A5F3F4F629FC001639F900D06
:10495000729F900D1124840F951F2091600626FDF3
:1049600005C0609100017091010102C060EF70E02C
:104970000E94C78F80913D01680F711D6F5F7F4F4F
:104980007595679560933D018091A306805F809344
:10499000A306811114C080914906681780F4623320
:1049A00070F06EE281E10E9492878091600683FF41
:1049B00006C082E390E090933B0180933A0110920D
:1049C00039018EE587B9369A3699FECF84B195B113
:1049D00090930101809300018091B10D833019F40F
:1049E000A8951092B10D2091120182B790911201F9
:1049F0002913F9CF90E0922B801B910B2091080195
:104A0000309109012817390720F490930901809308
:104A1000080180910501882309F4A1C20091A9062B
:104A20001091AA060F5F1F4F1093AA060093A906C4
:104A30008091D4048F7150E1B52EB81AF7E1FB15BF
:104A400008F478C0EB2CF12CE701CC0FDD1FCB5222
:104A5000DB4F4FE04B1528F4E701CC0FDD1FC75C9F
:104A6000DA4F8881C82EC294C69427E0C222D9802A
:104A700055E05C1550F09AEF9D1538F4ED2DF0E0FF
:104A8000EE0FFF1FE15EFC4FD0808F7109F450C024
:104A90000E94A71CA82E80910501F701E45CFD4F40
:104AA0007F0181FD43C08C2D857049F48081811187
:104AB00006C0AA2021F08D2D90E00E94A7168FEF4E
:104AC0008C0D823058F4F7018081813079F5A11086
:104AD0002DC0F2E0CF1226C0D39424C025E02C15BF
:104AE00048F4F7018081811121C0AA20F9F0898161
:104AF00071D61CC0F2E0FC15C8F4AA20B9F024E07D
:104B0000C21631F035E0C31631F066E970E005C039
:104B10006CE271E002C068E572E0C8010E94C78FD4
:104B2000892B21F48D2D90E00E94A716F701A08219
:104B3000B39484CF0EEA14E0B1E9AB2EB6E0BB2EFD
:104B4000CFEACC2EC1E0DC2EE12CF12CF8019280D2
:104B5000892D8F700E94F1128330E1F5F601C0813A
:104B6000D181209771F4F801C081C7FD06C0C095BE
:104B7000FAE0CF02E00111241BC0DD27C7FDD0956C
:104B800017C0D7FF14C0219699F4F701E155FB4FE8
:104B9000C081C7FD06C0CF5F2AE0C202E001112438
:104BA00006C0DD27C7FDD095C095D09501C02197DF
:104BB000892D807F61F0892D82958F7089300CF06E
:104BC0008F5F0E94A71C811102C0CFEFDFEFF601BB
:104BD000D183C083F501C081F80182818F708C3050
:104BE00081F480810E94A71C81110AC0F701E15560
:104BF000FB4F80810E94A71C882319F0C0E001C0F0
:104C0000C1E0F80182818F708D30A1F480810E9413
:104C1000A71C882361F0C1FD0DC0F701E155FB4FD2
:104C200080810E94A71C882321F0C3E003C0CD7FB0
:104C300001C0C2E0F501C1935F010D5F1F4FF3E0BA
:104C4000EF0EF11C22E0C20ED11C34E2E316F10497
:104C500009F07CCF77ECE72E71E0F72ECDE9D6E0B6
:104C6000A12CB12C66246394E2E05E2EF3E07F2E4B
:104C7000AAE04A2E8501085A1D4F68014DEEC41A5C
:104C80004CEFD40AF60180810E94F112833009F0C2
:104C90005AC0F701808091808114910489F4F80151
:104CA000EF5EFC4F808087FC07C0882D8095FAE07E
:104CB0008F024001112425C0992487FC909421C0C3
:104CC00097FE1CC02FEF821A920A81149104C9F436
:104CD000F801EE5EFC4F808087FC0AC081E0880D01
:104CE0003AE083024001112441E0841A910809C08E
:104CF000992487FC90948094909403C051E0851A85
:104D00009108F801EC5EFC4F80818823C9F097EF91
:104D1000980F933108F48F5F9BE1980F933110F453
:104D2000815002C08C3121F0843E19F487EF01C01C
:104D300089E00E94A71C811103C088248A94982CC2
:104D4000F70191828082F60180818C3091F4F80124
:104D5000EF5EFC4F80810E94A71C882311F06882BF
:104D600008C0F801EE5EFC4F80810E94A71C8111F3
:104D70001882F60180818D30D1F4F801EF5EFC4F8E
:104D800080810E94A71C882379F0888181FD0FC053
:104D9000F801EE5EFC4F80810E94A71C882311F071
:104DA000788205C0588203C088818D7F8883F60190
:104DB000908180EF890F823008F054C08091050106
:104DC00081FF03C088818D7F88839131E9F4F801E8
:104DD000EC5EFC4F808197EF980F933108F48F5F62
:104DE0009BE1980F933110F4815002C08C3129F06F
:104DF000843E29F0882341F003C089E001C087EF99
:104E00000E94A71C982E02C099249394F801EF5E8B
:104E1000FC4F80810E94A71C882359F0888181FD66
:104E20000BC0F6018081813109F045C1992021F044
:104E300042C188818D7F8883F701808191810097AD
:104E400089F0F6012081213121F4911002C081E026
:104E500090E00197009719F428812E7F2883F701AD
:104E600091838083F4E0AF0EB11C22E0E20EF11CCE
:104E7000219638E1A316B10409F0FCCE16DA10929F
:104E8000050180914505882309F469C08091460594
:104E90000E94A71C882309F462C08091A806882379
:104EA00019F081508093A8068091A806811157C0FF
:104EB00080914505813081F487E20E94221AEC013D
:104EC000609147056695669570E062307105D4F093
:104ED0000E94DB8FEB0116C081E00E94221A8058ED
:104EE00091099C012E5F3F4F2530310510F480E081
:104EF00090E02091470526952695289FE001299F5F
:104F0000D00D11242097C9F0D7FF09C0D195C195C4
:104F1000D1098091470580FD05C082E201C081E290
:104F20000E948887CB34D1058CF0CD37D10584F031
:104F3000CF3AD1057CF484E010C08091470580FD14
:104F40000BC081E20E94888784E107C088E005C029
:104F500086E003C082E001C080E08093A8068091D3
:104F60000301882309F4C3C08091260F882319F117
:104F70006091890E2AE83EE0F9014CED80E090E076
:104F80005E2F521B561738F45191850F911D5417FF
:104F9000B8F7452FF5CF65E070E00E94C78F70939A
:104FA000F70E6093F60E4C3D31F0842F90E0909315
:104FB000F30E8093F20E2091A7062F5E822F8F7042
:104FC00090E00C970CF0207F2093A7068091D404EA
:104FD0008F7150E1F52EF81AC8E5D2E0E12C422F8E
:104FE0004073D42E522F5F70C52E822F807FB82E33
:104FF0002077A22EEF1409F450C08E0103581D4FE4
:10500000F8018081982F907C9034B1F4D11014C0B5
:10501000880F880F859585950E94A71C882361F0CD
:105020008091690680FF05C0FE01E258FD4F808136
:1050300001C081E00E948887F8018081982F907CD0
:10504000903841F5880F880F859585958D31A4F0AE
:105050008D51813029F0823031F0A1101BC006C083
:10506000C11018C003C0F0E2BF1214C0FE01E25824
:10507000FD4F8081AFD30EC0D1100CC00E94A71C81
:10508000882341F0FE01E258FD4F8081805890E076
:105090000E94A716E3942296ADCF1092030180914F
:1050A0005501882321F181508093550120C080E073
:1050B0007FCAC06128CC7882F801EE5EFC4F208167
:1050C000332727FD309537FF05C088279927821B96
:1050D000930B07C02F5F3F4F429EC001439E900D30
:1050E0001124F70191838083A7CED12C55CADF917B
:1050F000CF911F910F91FF90EF90DF90CF90BF90D5
:10510000AF909F908F907F906F905F904F90089599
:10511000282F30E0883058F02850310949E0429F6C
:10512000C001439F900D11248A599B4F089545E07B
:10513000429FC001439F900D1124825C9B4F0895B4
:10514000813649F40E94BD7C81E00E94731685E699
:105150009FE50E94FC1C64E973E180E10C94A47754
:10516000CF93DF93D82F9091AF0DC92FC17090FFCF
:1051700003C06FEF72E102C06DEE72E188E10E9440
:10518000A477D13629F41092AF0D80E00E947316F7
:10519000C11109C04091B00E5091B10E24E060E3FE
:1051A00088E40E94CD798091F50881508093F508BC
:1051B000811103C081E00E948887DF91CF9108951B
:1051C000CF93DF93EB01E2E7F8E08F3B29F4909176
:1051D00072089150988316C08E3BA9F4908191502B
:1051E00098839381992371F09F719883238130E094
:1051F00095E0359527959A95E1F723702093F4076C
:10520000138201C010829281992321F091819F77AE
:105210009083128290819923A9F0813219F08E38FF
:1052200009F047C020911D08211108C091509883B2
:1052300010820E94BD7C87E10E94888710921D0821
:1052400080E037C09881843681F4292F30E04830DF
:1052500031F050E024173507FCF427E004C0273074
:105260003105D4F428E0920F17C0853629F4292F90
:1052700030E0483099F417C0803611F08E3261F476
:105280009F5F9083906891830E94BD7C109218026A
:105290001092F40790E080E098830BC0273031052E
:1052A000DCF327E004C028303105B4F328E0921B7A
:1052B000F3CFDF91CF9108951F93CF93DF93182FF2
:1052C000D62FC42F662329F06FE0842F0E94B21FCF
:1052D000C82F809169024C2F83FF02C0440FD06217
:1052E00050E02D2F612F80E60E94CD798C2FDF9129
:1052F000CF911F910895FF920F931F93CF93DF9348
:10530000182FF62E0AE08AE0189FE0011124CE58EB
:10531000DD4F2FE130E0211B3109029FA001039FE7
:10532000500D1124BE01CE010A960E943F90FF202D
:1053300049F0BE016A5071094AE050E0CE010E9476
:105340003F900DC0FE0111920A95E9F78091030983
:105350008883898384E68A838F8188608F83109312
:10536000050982E0DF91CF911F910F91FF900C947E
:105370003B70AF92BF92CF92DF92EF92FF920F936A
:105380001F93CF93DF93EC01C62ED42E88E06813D1
:105390000AC0FE013E964591549160E085E40E946A
:1053A000BA7708E001C007E010E07801EE0CFF1CBE
:1053B00038E0A32EB12CFE01659174918A2D0E94D4
:1053C000A477BC1448F4FE01EE0DFF1D45915491E5
:1053D0006A2D85E40E94BA77B394229688E0A80EDD
:1053E00087E0B812E8CF4FE360E083E40E94807862
:1053F000DD20F1F087E06D2D8D1540F4601B660F08
:10540000660F660F20E04BE385E406C0660F660F6B
:10541000660F20E042E480E0DF91CF911F910F9171
:10542000FF90EF90DF90CF90BF90AF900C94E0771B
:10543000DF91CF911F910F91FF90EF90DF90CF9070
:10544000BF90AF9008950F93443051F4909167024C
:105450009F70913029F442E456E10F910C947F77CC
:10546000022F242F47EA5AE10E946D770F91089589
:105470009C01220F331F280F391F9595879595950D
:105480008795280F391F95958795959587959595BB
:105490008795820F931F0895429643E7489F900196
:1054A000499F300D1124C901E6E095958795EA954D
:1054B000E1F70895CF92DF92EF92FF920F931F933F
:1054C000CF93DF937B018A01D090520895E09D1520
:1054D00008F46AC091E09D0D90935208EBE08E9F16
:1054E000E0011124C556DA4F88818823A1F081504C
:1054F0000E9448159C01442737FD4095542F688130
:105500006552623058F440E050E00E94B1149C01B2
:1055100040E050E003C020E030E0A901D092520802
:10552000DE80FD2DF870CF2ED3FC0AC089819A81D0
:10553000AA2797FDA095BA2F280F391F4A1F5B1F76
:10554000AB81B0E011960E94998F2C8130E02F5FE3
:105550003F4F442737FD4095542F0E941090CC2098
:1055600051F089819A81AA2797FDA095BA2F280F1B
:10557000391F4A1F5B1FD0FE07C0509540953095DC
:1055800021953F4F4F4F5F4FE114F10419F08D818A
:10559000F70180830115110529F08E8186958370AE
:1055A000F8018083C90102C080E090E0DF91CF91D3
:1055B0001F910F91FF90EF90DF90CF90089590E0B2
:1055C000FC01E152F84EE491E330A9F485972BE019
:1055D000289FF001299FF00D1124E556FA4FE08134
:1055E0008FEF8E0F8432B0F0E550F0E0E152F84ECC
:1055F000E491E33079F0EE2369F0E13021F4809119
:10560000270F811107C081E09091260F911103C0EF
:1056100080E0089581E00895E82FF0E0E358F54E2A
:10562000E491262F332727FD3095C90183589F4FDA
:10563000EC3009F446C084F4E6305CF4E430FCF469
:10564000E53F09F44FC00CF457C0EE5FE230A8F01C
:105650000895EA30F4F50895E43209F43EC044F4C4
:10566000EE300CF449C0E031C4F1E332C1F10895E9
:10567000E732ACF1E732E1F108952AE023C080344B
:1056800091059CF0880F991F80549109813C9105E8
:1056900064F0880F991F805C9109813C51E0950767
:1056A00024F0880F991F885E91402AE0AC01249F66
:1056B000C001259F900D11242091640225FF1CC07C
:1056C000D7CE24E6AC01249FC001259F900D112464
:1056D0000895C901815A9F4F089522E3F3CF880F9F
:1056E000991F0895F3E0880F991FFA95E1F708953F
:1056F0005AE06502C00111240895CF93DF93E82F8B
:10570000F0E0E358F54E8491803F19F480914D0FFD
:1057100054C0853FC9F486E20E94221AEC0180E25F
:105720000E94221AD595C7959C0135952795C29F51
:10573000C001C39F900DD29F900D112469E170E0CC
:105740000E94DB8FCB0143C0853F44F440E050E032
:1057500060E070E0815FDF91CF91ACCE8D3F54F47B
:10576000E82FEE0FFF0BED5DFA4F8081992787FD43
:1057700090952DC08F3F09F03CF48E3F7CF48D3F17
:1057800011F580913D0119C08430C9F08332D9F4FC
:1057900083E20E94221A880F991F19C0992787FD5A
:1057A000909502962FE0289FF001299FF00D11247B
:1057B000EC5AF74F838594850AC090E008C0DF91CA
:1057C000CF910C942D1ADF91CF910C94221ADF9176
:1057D000CF910895CF92DF92EF92FF921F93CF93D4
:1057E000DF9300D0CDB7DEB7D82E1A82198285DFBD
:1057F0007C018D2DE4DE811105C08AE30E94C11673
:1058000011E001C010E0ED2DF0E0E358F54E849179
:10581000482F552747FD5095652F752FFA013F9664
:10582000E733F10508F078C0EB59FF4F0C942C904A
:10583000AE014F5F5F4FBE016E5F7F4F815F3ADE0B
:105840007C01EA81F0E0E55CF74EE491EA8364C014
:1058500084E28A8346C084E28A8382E089835CC0D2
:105860006CE370E0C7010E94DB8F6B017C0146E2B4
:1058700060E0C6010E949A8785E344C0E82FEE0FDE
:10588000FF0BED5DFA4FE080FF24E7FCF09444C08D
:10589000AE014F5F5F4F682F8E2D0E94B1147C01C7
:1058A00084E28A83809157018134F9F08130A1F537
:1058B0001A8232C088E38A8390916402892F8072B1
:1058C00093FF03C0882341F005C0882329F0C70156
:1058D000CFDD7C0188E18A8388EEE81683E0F80654
:1058E000ACF481E0BBCF81E0898383E30BC08FE21E
:1058F0008A838091640285FF0FC0C701CDDD7C01E2
:105900000BC08BE38A8308C081E08983C7016AE00A
:1059100070E00E94DB8F7B01111105C04A81698113
:10592000C7010E949A870F900F90DF91CF911F912E
:10593000FF90EF90DF90CF9008950F939FE0499FE5
:10594000F0011124EC5AF74F43855485022F0E9431
:105950000B7A0F9108957F928F929F92AF92BF9290
:10596000CF92DF92EF92FF920F931F93CF93DF932B
:1059700000D0CDB7DEB7F82EB62E6901102F80E229
:105980008A83E42FFF27E7FDF095E358F54EA490B6
:105990008E2D8170982EE0FE22C0AFE0AA0DA430BB
:1059A00008F001C18BE0A89FD0011124FD01EE5544
:1059B000FA4F8081882309F4F6C0AF0100E124E0AA
:1059C0008F2D0E94497712FD03C008E10F0D08C01A
:1059D0000CE10F0D88EFB80EECE08E2E03C00F2DFA
:1059E00076E0872E8E2D8870782EE3FC1F7B85E075
:1059F0008A15FCF084E0A8160CF08BC08DEFA81679
:105A000009F49DC08A1564F081EFA8160CF4A1C0BA
:105A100084EF8A157CF585EFA8129BC087E791C0BB
:105A20008FEF8A150CF041C081E08A150CF053C04D
:105A300090C083E2A81609F480C08A1574F08AE049
:105A4000A8160CF486C08BE08A150CF055C080E2D5
:105A5000A8127FC0106281E474C085E2A8160CF41D
:105A600078C086E28A150CF06AC087E2A81271C07D
:105A7000106269C0AE014F5F5F4FBE016E5F7F4F26
:105A80008FE08A0D17DD2981213011F4106203C0E7
:105A9000223009F41063EA81F0E0ED5CF74EE49106
:105AA000EA83E7FCC6016C0154C012FD02C08CEF12
:105AB00001C082E0800F9110865F1770012F212FA7
:105AC000A6016B2D83500E940B7AE3E3EA0DEA8373
:105AD0008AEFF80E47C0912F90684C2D772019F06F
