:100000000C9464100C948C100C948C100C948C1028
:100010000C948C100C948C100C948C100C948C10F0
:100020000C948C100C948C100C9490160C94F66A12
:100030000C94386F0C94456B0C948C100C9419171D
:100040000C947E160C948C100C9434760C942574BD
:100050000C948C100C948C100C948C100C948C10B0
:100060000C94BB6F0C945F170C94AA6B0C940570E6
:100070000C948C100C948C100C94CD690C948C10F6
:100080000C948C100C948C100C948C10F518F9189E
:10009000BE18C418CA18CA18CA18ED18F118F518ED
:1000A000F91806190619FD186123612361236123DC
:1000B0008E238523852385238523852385238523F7
:1000C000712376237623062F102F262F732FB22F1E
:1000D00010301B301E3078307C30BC33D1336D345F
:1000E000F6357F36FD34B839FD370037083790379D
:1000F000FF38F742CA42CD42D142D742DB42E0420A
:100100007C4B8B4B964BAC4BB34BBA4BC94BE04B38
:10011000F84B644C8F4C974C9F4CAB4CD04CE04C04
:100120000A4D574D634D9E4DB64DC74DD34DDF4DD6
:10013000EB4D1151DD5BE45311596454DD5BDD5B24
:10014000E157775ADD5BDD5B2753215168554768DE
:100150003668306838683C684068336844684A6884
:10016000226E256E3C6E576E576E3C6E3C6E36713D
:1001700038713B714071517160716E717871887125
:1001800098719D71B371B671BA71BC71BE71C37152
:10019000C771D271D671DE71E571E971EB71EF71E2
:1001A000F171F371F571F971FD71027207720C72E0
:1001B00011721672204F6C642056657273696F6EEF
:1001C00020454550524F4D202020434845434B2069
:1001D00053455454494E47532F43414C49420041E3
:1001E0006C61726D732044697361626C6564004573
:1001F0004550524F4D206C6F77206D656D004C4F10
:100200004144494E47000553746F70706564006D3A
:10021000537461636B206F666C6F770053776974FA
:100220006368205761726E696E671F506C656173F9
:1002300065205265736574205377697463686573CC
:10024000005468726F74746C65206E6F74206964FA
:100250006C651F5265736574207468726F74746C7A
:1002600065004D45535341474500707265737320D7
:10027000616E79204B657900507265737320616EF1
:1002800079206B657920746F20736B6970004F461D
:10029000464F4E20544873544825002D2D2D002DD7
:1002A0002D2D2D0000006428100703010000000020
:1002B000010101020202020101030020414C4552EA
:1002C00054000001020300020103030102000302C3
:1002D00001000452756420456C6520546872204109
:1002E000696C20004F4E20004F4646000354485290
:1002F000525544454C4549443049443149443241C2
:10030000494C47454154524E4C31204C32204C33DD
:10031000204C34204C35204C36204C37204C382093
:100320004C39204C41204C42204C4320454C8045C8
:100330004C2D454C8152558052552D525581414985
:100340008041492D41498147458047452D47458199
:10035000504231504232001B1E272D36394B4E631E
:100360006C7278878D939CB1B4C6C9D2D8E1E4533E
:10037000706C6173680080400000000000000000A5
:10038000000000000000000000000000000000006D
:10039000000000000000000000000000000000005D
:1003A000000000000000000000000000000000004D
:1003B000000000000000000000000000000000003D
:1003C00000000080C0E0E0F0F8F8FCFCFCF8F8F871
:1003D000F04000000000008080800000000000006D
:1003E0000000000000000000000000000080C0C00D
:1003F000E0E0E0F0F0F0E0C00000000000C0F8FF36
:10040000FF9F878383838383838383838383838320
:10041000838383838383838383038380838383832F
:10042000838383838383838383838383838383839C
:10043000838383C3E3733F1F0000000080E0F0F874
:10044000FCFEFFFFFFFF7F3F1F1F0F0783C3E1E19C
:10045000E0E0C0000E1F3F7F7FFFF3E0E080000080
:10046000000000000000000080F0FCFEFFFFFFFF26
:100470007F3F0F0301010100000080F0FEFFFFC776
:10048000C1C1C1C1C1C1C1C1C1C1C1C1C1C1C1C15C
:10049000C1C1C1C1C1C101C1F0FEFF3F0F070F0DB6
:1004A0000D0D1D191919193131313171616161E178
:1004B000C1C1C18100000080E0F8FCFFFFFFFF2FF9
:1004C000170F038180C0E0F0F8FCFEFFFFFFFFFF85
:1004D000FF7F010000000000000001010307070E7C
:1004E0001E1C3870E0F0F8FEFFFF7F1F0F030001B5
:1004F00000000000000000000000000000000000FC
:1005000000000000000000000000000000000000EB
:1005100000000000000000000000000000000000DB
:1005200000000000000000000000000000000000CB
:100530000000000000007EFFFFFFFFFFFFFBF8FC54
:10054000FCFEFF7F3F1F0F07C3FFFFFFFFFFFF7F83
:10055000070000000000000000000000000000C0D4
:10056000E0F8FEFFFF7F1F0F1F3D7CF8F8F0E080F2
:10057000000000000000000000000000000000007B
:10058000000000000000000000000000000000006B
:10059000000000000000000000000000000000005B
:1005A000000000000000000000000000000000004B
:1005B0000000000000000000010101010103070725
:1005C000070301000000E0FCFFFFFFFFFF1F030027
:1005D00000000000000000000000C0F078DE2713DB
:1005E000090E0703000000000000000001030F7F58
:1005F000FFFC7878F8000000000000000000000018
:10060000808080808080808080008080008080006A
:1006100000000000000080808080808080808080DA
:1006200080808080808080800000000000000000CA
:1006300000000000000000000000000000000000BA
:1006400000000080F0FEFFFFFFFF3F0F01000000F1
:100650000000000000C0E0381E0F03000100000091
:10066000000000000000000000000000000000008A
:100670000000000303010000000000000000000073
:100680000E0E02020202020303000F0F000F0F08FA
:100690000808080808080F0F08080808080F0F00C6
:1006A0000000000F0F00000000000000000000002C
:1006B000000000000000000000000000000000003A
:1006C00000C0F8BFFFFFFF1F7F0100000000000017
:1006D0000000F0FCFF7F7830000000000000000008
:1006E000000000000000000000000000000000000A
:1006F00000000000000000000000000000000000FA
:1007000000000000000000000000000000000000E9
:1007100000000000000000000000000000000000D9
:1007200000000000000000000000000000000000C9
:100730000000000000000000000000000000003089
:100740001C070E0F07010000000000000000000061
:100750000000000000000000000000000000000099
:100760000000000000000000000000000000000089
:10077000000000000000000000564552533A205689
:10078000312E312D1F444154453A2033302E313221
:100790002E323031351F54494D453A2031303A35EB
:1007A000323A31331F2053564E3A20657239782D34
:1007B000723831391F204D4F443A204652534B591D
:1007C000204E5420202020003C06064F4E202020A2
:1007D000204F4646202020424F5448202031355398
:1007E0006563733330536563733630536563735693
:1007F000617269626C0056530007203820536563AC
:10080000733132205365637331362053656373004F
:100810001E030153415658004E756D626572205695
:100820006F6963652053770053616665747920535F
:100830007769746368657300434F50592054524977
:100840004D205B4D454E555D000D4F6E004C4F47A2
:100850004943414C205357495443484553003C01B8
:100860000A436F756E7420446F776E436F756E74B4
:1008700020557020200054696D65721F547269679D
:10088000676572411F54726967676572421F5469D8
:100890006D65721F52657365742053776974636860
:1008A0000020547970651F20436F756E7472791F34
:1008B00042696E641F52616E6765003C02094C50CC
:1008C000342F4C5035202044534D326F6E6C7920BC
:1008D00044534D322F44534D580044534D205479C6
:1008E000706500014E59000B4F7074696F6E000403
:1008F000486967684C6F7720003C00044E6F6E6556
:10090000003C010543473032335944383239003C0A
:100910000205475245454E424C554520444D303026
:1009200037003C020753594D4158202053594D413F
:10093000583543003C040759443731372020534B86
:1009400059574C4B5253594D4158322058494E58E3
:10095000554E204E494855492020003C010444533F
:100960004D3244534D58003C01054869736B79483A
:100970004B333130003C0306466C79736B79563942
:1009800078392020563678362020563931322020CA
:10099000003C0D06466C79736B7948756273616E25
:1009A0004672736B79204869736B792056327832BE
:1009B000202044534D3220204465766F2020594436
:1009C000373137204B4E2020202053796D6158203D
:1009D000534C54202020435831302020434730329C
:1009E0003320426179616E670050726F746F636F7C
:1009F0006C1F547970651F506F7765721F42696E66
:100A00006420202020204175746F62696E641F523B
:100A1000616E676500660103504F534E45470050B5
:100A20006F6C61726974790050504D2046724C654C
:100A30006E0D6D536563000C52784E756D00043475
:100A4000434820364348203843482031304348311A
:100A5000324348313443483136434800137553001C
:100A60000650504D20202050585820202044534DEF
:100A700032202050504D31362050504D53494D4D6D
:100A8000554C544920534255532020003173742053
:100A90004368616E1F50726F746F000444521F02EE
:100AA0004578706F1F1F015765696768741F1F4481
:100AB000725377311F447253773200034869204DD7
:100AC0006964204C6F77006604042D2D2D2D313282
:100AD000302031323058313430203930202000532A
:100AE0007761736820547970651F436F6C6C656320
:100AF000746976651F53776173682052696E671F4A
:100B0000454C4520446972656374696F6E1F4149A5
:100B10004C20446972656374696F6E1F434F4C20AB
:100B2000446972656374696F6E0052455441313295
:100B30003300540406457870202020457846696EBD
:100B40006546696E6520204D656469756D436F610A
:100B5000727365005472696D20496E631F54726927
:100B60006D2053771F48692E52657320536C6F7741
:100B70002F44656C61791F547261696E65721F4202
:100B800065657020436E74005A01062020456E642E
:100B90002043656E74726500452E204C696D697442
:100BA000731F5468722E2044656661756C741F54FF
:100BB00068726F74746C6520726576657273651FF8
:100BC0005468726F74746C65204F70656E1F542D7D
:100BD0005472696D1F542D4578706F2D44720066F4
:100BE00007032D2D2D5031205032205033204756F1
:100BF0003447563547563647563700446566617563
:100C00006C742053771F437573746F6D53746B4E00
:100C1000616D65731F4175746F204C696D697473E4
:100C20001F566F6C756D6520436F6E74726F6C002C
:100C3000566F69636520496E646578114D454E5560
:100C400000881341154C15391533152C157D1321CA
:100C50001516157713C016D1130D15564100566F92
:100C6000696365004D454E55204C4F4E4700446525
:100C70006C65746500566F6963652046696C650034
:100C80005402062D2D2D2D2D2D4E756D6265722071
:100C9000417564696F00660104506C61794D75742B
:100CA00065005402064E6F202020204265666F7258
:100CB00065416674657220004E03072D2D2D2D2D84
:100CC0002D2D4861707469633148617074696332B5
:100CD00048617074696333000776603D76616C200B
:100CE000763D76616C20200007280D2900506C614C
:100CF0007920536F757263651F4F6E206E6F20549D
:100D0000656C656D657472791F46696C65547970A0
:100D10006500536F757263651F46756E6374696F06
:100D20006E1F56616C75651F5377697463681F5237
:100D30006174651F48617074696300566F6963650B
:100D400020416C61726D00034D4F5645205354494C
:100D5000434B532F504F54530005534554204D4996
:100D600044504F494E5400035B4D454E555D205451
:100D70004F205354415254006607044E4F4E454590
:100D80005854314558543250433020504732205047
:100D9000423720504735204C2D575200454C4520B6
:100DA0007377697463681F41494C20737769746372
:100DB000681F504231207377697463681F50423254
:100DC000207377697463681F50473220496E7075CD
:100DD000741F50423720496E7075741F4C2D575246
:100DE00020496E7075740042616E64476170004303
:100DF000616C004D756C7469706C696572001802E5
:100E0000036F6666202B3D203A3D00036D6F6465DD
:100E10000A2520737263202073770007536C617674
:100E2000650012424700414E41000F504232000F10
:100E3000504231005472696D2D202B00204C6566A4
:100E4000741F52696768741F0355701F20446F77C1
:100E50006E1F20457869741F204D656E75004449EA
:100E6000414700537469636B5363726F6C6C00503D
:100E70006F745363726F6C6C0053706C6173682095
:100E80004E616D650053706C6173682073637265A9
:100E9000656E00416C61726D205761726E696E679C
:100EA000004D656D6F7279205761726E696E6700D3
:100EB0005468726F74746C65205761726E696E67E6
:100EC0000042617474657279207761726E696E6731
:100ED0001F496E616374697669747920616C61720F
:100EE0006D136D0043726F73735472696D1F546894
:100EF000726F74746C6520726576657273651F45D8
:100F00006E61626C652050504D53494D1F436861BE
:100F10006E6E656C204F726465721F4D6F64650064
:100F20002048617074696320537472656E677468D9
:100F30000042040A426565706572202020205069D5
:100F400053706B72202020204265657072566F6965
:100F50006365506953706B566F6963654D65676172
:100F6000536F756E642000540606517569657420D0
:100F70004E6F4B6579207853686F727453686F7247
:100F800074204E6F726D20204C6F6E672020784C5D
:100F90006F6E672000566F6C756D651F42656570DA
:100FA00065721F536F756E64204D6F64651F20530B
:100FB0007065616B6572205069746368004C696785
:100FC0006874207377697463681F4261636B6C692E
:100FD00067687420696E766572741F4C69676874FF
:100FE000206F66662061667465721F4C696768745D
:100FF000206F6E2053746B204D761F466C617368B2
:10100000206F6E206265657000436F6E747261734D
:101010007400E913A013C113D113B813AC13E11377
:10102000D91396138E13C81322047C5E54546D009A
:1010300003457870457846466E654D656443727326
:101040000011544F541F01544D45115453571F0163
:1010500053544B1153542500035B4D454E555D20B1
:10106000746F207265667265736800746D72314CBE
:101070006174206D61781275731F746D72314C61EB
:1010800074206D696E1275731F746D7231204A6918
:10109000747465721275731F746D61696E126D736D
:1010A0000053544154000966726565004D4F444534
:1010B0004C53454C0020464D300A524554410042A5
:1010C00041434B555020444F4E45004241434B5500
:1010D0005000524553544F52454400534156494ED7
:1010E0004700524553544F52494E47004C4F4144DC
:1010F000494E4700526573746F7265004261636BBD
:1011000075700020464D005377697463681F5472F0
:10111000696D731F4661646520496E1F4661646591
:10112000204F757400464C204D4F44450052414EAF
:10113000474520434845434B20525353493A000604
:1011400042494E44494E47004475706C696361746E
:10115000696E67206D6F64656C0044454C4554456D
:10116000204D4F44454C004455504C494341544553
:10117000204D4F44454C00012B2A52004D49584503
:10118000520020202020202020202020202020204D
:101190000044454C455445204D49583F00436C653B
:1011A000617220414C4C206D697865733F00035992
:1011B00045530B4E4F1F035B4D454E555D0B5B4535
:1011C0005849545D004D6178206D697865727320CF
:1011D00072656163683A2033321F1F507265737302
:1011E000205B455849545D20746F2061626F7274B2
:1011F000006601034F46464F4E20004E02084164F0
:101200006420202020204D756C7469706C795265C3
:10121000706C6163652000437572766500084469EF
:10122000666600114578706F0001557365204F7533
:10123000747075742020200001536F757263651FF0
:10124000015765696768741F014F66667365741F8F
:1012500001466978204F66667365741F01456E61AB
:10126000626C654578706F44521F015472696D1F3E
:101270001F1F015377697463681F014D4F44455325
:101280001F015761726E696E671F014D756C747036
:10129000781F0144656C617920446F776E1F0144AB
:1012A000656C61792055701F01536C6F7720204465
:1012B0006F776E1F01536C6F772020557000454487
:1012C0004954204D495820004F50005343092B0DDD
:1012D0002A122F00044C314C324C334C344C354CD8
:1012E000364C374C384C394C414C424C4300480149
:1012F0000546697273744C6173742000536F757284
:1013000063651F1F4F66667365741F4D756C746946
:10131000706C6965721F44697669736F721F556ED0
:1013200069741F5369676E1F446563696D616C73EF
:101330001F4F6666736574204174005B2D3E5D002F
:1013400043560050524553455400435552564500AC
:101350006A01032D2D2D494E560053575220003C53
:1013600002034431364438204C52503C0203416D54
:10137000654A6170457572566F696365004C2E53FE
:1013800077697463686573004D69786572004469B4
:101390006167416E610044696167537774636800F7
:1013A000417564696F4861707469630043616C6979
:1013B00062726174696F6E00436F6E74726F6C73EA
:1013C00000416C61726D730048617264776172658F
:1013D0000047656E6572616C0056657273696F6E69
:1013E00000547261696E657200446973706C617952
:1013F000005B4D454E555D205748454E20444F4EAD
:101400004500454449540053454C45435400534519
:101410004C2F4544495400434F5059004D4F5645B9
:101420000044454C455445004241434B5550005201
:101430004553544F5245004544495400494E534585
:10144000525400434F5059004D4F56450044454CAF
:1014500045544500434C45415220414C4C000473D7
:10146000494478735448527352554473454C4573FC
:1014700041494C734745417354524E0012081200C3
:10148000081C0808081C080000082200490022085F
:101490000000000000227F22000000082200490016
:1014A0002208000008220049002208000000227FD4
:1014B0002200000000000822004900220800000865
:1014C0001C0808081C0800534300475600054665E1
:1014D000657420566F6C74734465675F4344656739
:1014E0005F466D41682020416D7073204D657472B8
:1014F00065576174747300465643466D416D5718C5
:10150000242F2F0033383B01524554410050726F55
:10151000746F636F6C00476C6F62616C56617273BD
:101520000053616665747920537773004375727652
:101530006573004D6F646573004578706F2F44725A
:101540000048656C69205365747570004C696D695D
:101550007473004D6F64656C2053656C6563740033
:101560004D6F64656C205365747570004C617374C5
:10157000204D656E7500526164696F205365747506
:1015800070005374617469737469637300426565B4
:101590007020636F756E74646F776E004D696E7541
:1015A0007465206265657000032D2D2D52746D45A4
:1015B000746D54746D41746D52454E527564456C32
:1015C0006554687241696C5031205032205033208C
:1015D000000420204F4E204F4646424F54482041A1
:1015E0004C4C4F4E434500072D2D2D2D20202076AD
:1015F0003E76616C2020763C76616C20207C767C87
:101600003E76616C7C767C3C76616C414E44202059
:1016100020204F522020202020584F5220202020D0
:1016200076313D3D7632207631213D76322076315D
:101630003E7632202076313C763220204C61746335
:10164000682020462D466C6F702054696D654F668A
:101650006676603D76616C20004E616D65000657D0
:1016600061726E31205761726E3220436865657019
:101670002052696E672020536369466920526F6269
:101680006F74204368697270205461646120204344
:101690007269636B74536972656E20416C6D436C43
:1016A0006B5261746174615469636B20204861708E
:1016B00074633148617074633248617074633300DD
:1016C00054696D65720054524530313241474700CC
:1016D0000354783D537772002041424344454647C6
:1016E00048494A4B4C4D4E4F505152535455565702
:1016F00058595A6162636465666768696A6B6C6DA4
:101700006E6F707172737475767778797A30313262
:10171000333435363738395F2D2E00FEFFFDF6F7AE
:10172000F8F9FAFBFC042D2D2D2D54494D31544967
:101730004D32424154544776723147767232477681
:10174000723347767234477672354776723647760B
:10175000723700032D2D2D783E30783C307C787C1C
:10176000663E30663C307C667C63312063322063A9
:101770003320633420633520633620633720633899
:101780002063392063313063313163313263313367
:1017900063313463313563313600045031202050D9
:1017A0003220205033202048414C4646554C4C4373
:1017B000594331435943324359433350504D3150CB
:1017C000504D3250504D3350504D3450504D355097
:1017D000504D3650504D3750504D384348312043CE
:1017E000483220434833204348342043483520437F
:1017F000483620434837204348382043483920435F
:101800004831304348313143483132434831334322
:1018100048313443483135434831365357434847BC
:1018200056312047563220475633204756342047FA
:1018300056352047563620475637205448495300DE
:10184000537769746368205761726E696E670067C9
:10185000656E7772697465206572726F72004545B6
:1018600050524F4D20466F726D617474696E6700FF
:1018700042616420454570726F6D2044617461005F
:10188000434845434B204D4F44454C2054494D451A
:10189000525300434845434B204D49582F44522052
:1018A000534F5552434553004D4F44454C20202043
:1018B0002020004D452020202020202020004545CC
:1018C00050524F4D206F766572666C6F7700E2AEB6
:1018D000A1A6A4A2C02F25AF0000000000000000B8
:1018E0000000000000000000000000000000000BED
:1018F00007000000C0C0C0C0C0C0C00000000000A1
:1019000000000000000000000000000006060000CB
:10191000000080E0781E06181E0701000000F8FC99
:101920008EC66EFCF8070F1D181C0F07080CFEFE74
:1019300000000018181F1F1818000C0E86C6EE7C39
:10194000381E1F1B1918181806C6C6C6EEFC381814
:101950001818181D0F07C0E0B0988CFEFE01010199
:1019600001011F1F7E7E6666E6C686060C18181CDF
:101970000F07F8FCE666E6CC88070F1C181C0F075B
:10198000060606C6E67E1E001C1F0300000038FC8B
:10199000EEC6EEFC38070F1D181D0F0778FCCE862B
:1019A000CEFCF8040C1D191D0F070000003030009C
:1019B0000000000003030000E0F89C869CF8E01F94
:1019C0001F0101011F1FFEFEC6C6EEFC381F1F18B7
:1019D000181D0F07F8FC0E060E0C08070F1C181C2C
:1019E0000C04FEFE060E1CF8F01F1F181C0E070349
:1019F000FEFEC6C6C606061F1F1818181818FEFEDB
:101A0000C6C6C606061F1F0000000000F8FC0E0632
:101A1000CECCC8070F1C18181F0FFEFEC0C0C0FE9A
:101A2000FE1F1F0000001F1F0606FEFE0606001810
:101A3000181F1F18180000060606FEFE060E1E18C8
:101A4000181F0F00FEFEF0381C0E061F1F03070EA6
:101A50001C18FEFE00000000001F1F1818181818A0
:101A6000FEFC187018FCFE1F1F0000001F1FFEFC6C
:101A700070C080FEFE1F1F0000030F1FF8FC0E0643
:101A80000EFCF8070F1C181C0F07FEFEC6C6EE7CE6
:101A9000381F1F0000000000F8FC0E060EFCF807BF
:101AA0000F1C1B1E0F1BFEFE86C6EE7C381F1F037D
:101AB000070E1C18387CEEC6C68E0C0C1C18181DA0
:101AC0000F070606FEFE06060000001F1F000000AE
:101AD000FEFE000000FEFE070F1C181C0F07FEFE96
:101AE000000000FEFE01070E180E0701FEFE00803A
:101AF00000FEFE1F0F0603060F1F1E3EF0E0F03E25
:101B00001E1E1F0301031F1E7EFEC0C0FE7E0000BE
:101B1000001F1F0000000686C6E6F67E3E1F1F1B44
:101B200019181818000000000000001818181818DC
:101B300018180060606060E0C0060F1F1B1B1F1FAD
:101B4000FEFEE060E0C0801F1F1C181C0F07C0E0F5
:101B5000E06060E0C00F1F1C18181C0C80C0E06023
:101B6000E0FEFE070F1C181C1F1FC0E0606060E055
:101B7000C00F1F1B1B1B1B01C0F8FCCEC60E0C00A8
:101B80001F1F00000000C0E0703070E0C003C7CE2F
:101B9000CCEE7F3FFEFEC0E0E0C0801F1F010000D2
:101BA0001F1F000060E6E600000000181F1F18005D
:101BB00000000000E3E300307060607F3F00FEFE45
:101BC000C0E07038181F1F03070E1C18000006FE27
:101BD000FE00000000181F1F1800E0E060C060E079
:101BE000C01F1F0001001F1FE0E0C0E0E0C0801F19
:101BF0001F0100001F1F80C0E060E0C080070F1CB5
:101C0000181C0F07E0F0703070F0E0FFFF0E0C0EB4
:101C10000F07E0F0703070F0E0070F0E0C0EFFFFC2
:101C2000E0E0C06060E0E01F1F0000000000C0E0D6
:101C30006060606060191B1B1B1B1F0E6060FEFE56
:101C400060600000000F1F181C0CE0E0000000E0C6
:101C5000E0070F1C1C0E1F1FE0E0000000E0E00189
:101C6000070E180E0701E0E0000000E0E00F1F186B
:101C70000E181F0F60E0800080E060181C0703074B
:101C80001C18E0E0000000E0E007CFCECCEC7F3F86
:101C90006060606060E0E01C1E1E1B1B19190000E4
:101CA0000000000000006F000007000700147F1410
:101CB0007F14242A7F2A122313086462364955228E
:101CC000500005030000001C2241000041221C00BE
:101CD00014083E081408083E0808005030000008A8
:101CE0000808080800606000002010080402003E98
:101CF00049453E0000427F4000625149460041494B
:101D00004936001814127F0027454539003E4949DD
:101D10003200017905030036494936000649291E7B
:101D20000000363600000056360000081422411428
:101D3000141414144122140800020151090600066B
:101D40000909067E0909097E7F494949363E414114
:101D500041227F4141221C7F494949417F090909AC
:101D6000013E4149497A7F0808087F00417F4100D0
:101D70002040413F017F081422417F404040407F86
:101D8000020C027F7F0408107F3E4141413E7F09E3
:101D90000909063E4151215E7F0919294626494914
:101DA000493201017F01013F4040403F1F20402058
:101DB0001F3F4030403F6314081463070870080752
:101DC0006151494543007F41410002040810200051
:101DD00041417F00040201020440404040400804A9
:101DE00008100820545454787F48444438384444F8
:101DF0004420384444487F3854545418087E09011C
:101E0000020C5252523E7F0804047800447D400088
:101E10002040443D007F1028440000417F40007C6A
:101E2000041804787C0804047838444444387C144A
:101E3000141408081414187C7C080404084854542A
:101E40005420043F4440203C4040207C1C20402043
:101E50001C3C4020403C44281028440C5050503C2E
:101E60004464544C44000836410000007F000000E8
:101E7000413608000808221C08081C220808040231
:101E80007F020410207F20100102040810204080EF
:101E900040800804201002010000891112239B32A7
:101EA0002446AD573665BF74488CC19D5AAFD3BE2A
:101EB0006CCAE5DB7EE9F7F88110080193331A223A
:101EC000A5562C47B7753E64C99C408DDBBF52AE0A
:101ED000EDDA64CBFFF976E802218B30100299131A
:101EE0002667AF763444BD554AADC3BC588ED19FEA
:101EF0006EEBE7FA7CC8F5D983310A2091121803FA
:101F0000A7772E66B5543C45CBBD42ACD99E508FC9
:101F1000EFFB66EAFDD874C904428D5316619F70C9
:101F20002004A9153227BB364CCEC5DF5EEDD7FCA9
:101F30006888E1997AABF3BA85520C4397711E60B9
:101F4000A1142805B3373A26CDDE44CFDFFD56EC89
:101F5000E9986089FBBB72AA06638F7214409D5199
:101F60002225AB343006B9174EEFC7FE5CCCD5DD69
:101F70006AA9E3B8788AF19B87730E6295501C4179
:101F8000A3352A24B1163807CFFF46EEDDDC54CD49
:101F9000EBB962A8F99A708B088481951AA793B659
:101FA0002CC2A5D33EE1B7F04008C919522BDB3A49
:101FB000644EED5F766DFF7C899400859BB712A619
:101FC000ADD224C3BFF136E0C1184809D33B5A2A29
:101FD000E55E6C4FF77D7E6C0AA583B418869197F9
:101FE0002EE3A7F23CC0B5D14229CB38500AD91B09
:101FF000666FEF7E744CFD5D8BB502A499961087D9
:10200000AFF326E2BDD034C1C3394A28D11A580BE8
:10201000E77F6E6EF55C7C4D0CC685D71EE597F4A8
:102020002880A1913AA3B3B2444ACD5B5669DF78C8
:10203000600CE91D722FFB3E8DD604C79FF516E498
:10204000A9902081BBB332A2C55A4C4BD7795E68A8
:10205000E11C680DF33F7A2E0EE787F61CC495D578
:102060002AA1A3B03882B193466BCF7A5448DD5988
:10207000622DEB3C700EF91F8FF706E69DD414C558
:10208000ABB122A0B9923083C77B4E6AD5585C4968
:10209000E33D6A2CF11E780F2B050A0C0D0B102B5B
:1020A0002B082B2B2B2B2B2B0406171A1113141573
:1020B0001609181B122B2B2B2B07191C1D1E1F2753
:1020C000202122262B009C7911241FBECFEFD0E1C6
:1020D000DEBFCDBF11E0A0E0B1E0E2E2F5EF02C06B
:1020E00005900D92A231B107D9F71FE0A2E1B1E04E
:1020F00001C01D92A333B107E1F710E2C8ECD0E2B2
:1021000004C02297FE010E945A7AC63CD107C9F743
:102110000E944B780C948F7A0C940000E091510649
:1021200094E0E99FF0011124E80FF11DEE53FD4FFB
:1021300084918F5F0895F8948091590D90915A0D74
:1021400078940895E82FF0E0E555FD4F84910895C7
:102150002AE0829FC00111248B599D4F08959091D0
:10216000530691708091BC0586FB882780F98927EA
:1021700008950F93022F24FF03C00F7E9DE201C03C
:1021800094E2411104C024E04FE952E00EC0453012
:10219000A0F49091BC0594FF0BC0006194E0499FAE
:1021A000A00111244559594F24E00E94B6630DC087
:1021B0002FEF240F42ED52E006C0941730F02BEFC2
:1021C000240F4AE957E10E94DA630F9108954423EE
:1021D00011F04C5E01C040E0CCCFCF93DF93E5E837
:1021E000F1E080917F06108291E0918381FF09C028
:1021F00092E2928393E29383EF01259694E2948393
:1022000004C0EF01239692E0928382FF09C09FE110
:10221000988390E29983FE01339691E29A8304C0F9
:10222000FE01319693E0988394E0908395E091834A
:1022300096E0928384FF09C095E2938396E29483AB
:10224000EF01269697E2958304C0EF01249697E06C
:10225000938385FF09C098E2988399E29983DE0110
:1022600013969AE29A8304C0DE01119698E098834F
:1022700099E09C93FD0186FD02C0319604C0329620
:102280009BE2ED01998387FF03C08CE28083319646
:10229000DF018AE08D938F5F8631E1F78487CF017C
:1022A000895791408093570127E1258740E099277E
:1022B0000196242F30E08217930754F0F901EB5771
:1022C000FE4FE081F0E0E85AFE4F40834F5FF1CFD0
:1022D0009091830690FF0AC0809164008B7F809369
:1022E00064008091650084608093650091FF02C066
:1022F000BF98C79ADF91CF91089587FF03C081955A
:1023000091E001C090E0E82FFF27E7FDF095E85A43
:10231000FE4F808191118195089587FF03C08195BB
:1023200091E001C090E0E82FFF27E7FDF095EB5723
:10233000FE4F80819111819508950F931F93CF9344
:10234000DF93D62FC42F022F16E0180F442339F045
:10235000463141F04A3E81F448EE52E005C04BE977
:1023600052E002C044EE52E06D2F812FDF91CF91F9
:102370001F910F910C94EC6347FF04C041E20E944F
:102380002963C1952FEF2C0F273114F026EF2C0F66
:102390004CEE52E06D2F812F0E94DA63DF91CF91D6
:1023A0001F910F9108950F931F93CF93DF93D82F11
:1023B000162FC42F022F4D3234F04DE682E18D0FDF
:1023C0000E942963CC52202F4C2F612F8AEF8D0F52
:1023D000DF91CF911F910F91B0CFDF92EF92FF92DB
:1023E0000F931F93CF93DF93D82F162FF42E27FF31
:1023F00003C0E5E0F2E002C0E0E0F2E0C281D38099
:102400002370E22E81E0821718F1C4306CF483E06F
:10241000C802A001112442575D4F0F2D23E0612F08
:102420008D2F0E94B66318C0CD5F0F2D2C2F43E572
:1024300057E1612F8D2F0E94DA63C0310CF4D65022
:102440002F2D45E2612F82E18D0F0E94296304C088
:1024500082E028130AC004C0E11007C0C13029F48B
:102460002F2D4D2D612F8D2F9EDFDF91CF911F914D
:102470000F91FF90EF90DF900895873038F4E82FA8
:10248000F0E0EE0FFF1FEC5DF74F24C08C3050F1F1
:102490008431C0F4482F50E0DA01AA0FBB1FA45FBB
:1024A000BE4F2D913C91803148F4FA01EE0FFF1F91
:1024B000E95DF94F80819181281B390BC901880F93
:1024C000991F0895843248F4E82FF0E0EE0FFF1FC3
:1024D000E452F84F8081918108958E3218F484522D
:1024E0000C94102380E090E008950E9447788823A0
:1024F00011F0A895FACF1092890D08951F93CF93EC
:10250000DF93EC01162F0E94DD62BE0188E10E947C
:10251000116412FF04C067E182E10E942B7210FD7A
:1025200011C011FF06C068E772E080E30E941164E9
:1025300006C04AE652E068E38CE10E9427644BEB58
:1025400052E002C042E652E024E060E086E1DF9122
:10255000CF911F910C94EC6361E0D0DF0C942B675A
:102560000F93262F00E04CEE52E060E10E94DA6308
:102570000F9108951F93CF93DF93C6E110E08C2F46
:102580000E941168110F182BC150CE30C1F78091F5
:102590007F0682FF12C08FE10E94BB6824E0829F09
:1025A000E0011124137CC12B84E00E94BB6820E170
:1025B000829FC00111241C2F182B812FDF91CF91F6
:1025C0001F91089570E0882399F090E0019725E02D
:1025D000289FF001299FF00D1124E60FF71FEE0F41
:1025E000FF1FE05FFA4F808191818B509E4F0895CD
:1025F000FB01E35DFB4F8081992787FD909508954E
:102600001F93CF93DF93D82F162FC4E0DD2391F0D3
:10261000612F8D2FD7DF9C01253F81E0380764F0C3
:102620008BE0820F8D1710F08CE0820FC15029F0E3
:10263000D82FECCFC0E001C0CD2F8C2FDF91CF91F0
:102640001F910895CF93C62FDBDF6C2FCF91BACFA8
:102650008E3791053CF483382FEF920734F483E8EA
:102660009FEF03C08DE790E008950895FF920F93C8
:102670001F93CF93DF938A01C62FD0E08823D9F030
:10268000BFDFF82E8823B9F0C801E2DF2F2D30E03C
:102690002150310945E0429FF001439FF00D112484
:1026A000EC0FFD1FEE0FFF1FE05FFA4F855F9140BB
:1026B0009183808305C0C801CBDFC35DDB4F888376
:1026C00086E0DF91CF911F910F91FF900C944A5DAE
:1026D000AF92BF92CF92DF92EF92FF920F931F9330
:1026E000CF93DF938C017B016A01A22EB0900B0285
:1026F0009B2D9F7D943439F080910208882309F442
:1027000098C0933479F4B19906C080913E01E801F4
:10271000C80FD11D02C0E801219683E10E942172F9
:1027200085E010C0953419F0923409F088C0B19951
:1027300083C080913E01E801C81BD10984E10E9459
:10274000217284E00E941168811168C0E114F104D3
:10275000F9F481E0C816D104D9F480E6B81619F06E
:102760008EE2B81211C010920208C1E001151105E5
:1027700009F0C0E0D0E08B2D0E94DC688EE2B81238
:1027800006C01092380803C0C170DD2701C0B12C0B
:102790004091410150914201C41BD50B80913808F2
:1027A000813071F440911402B19905C084E148026E
:1027B000A001112403C0552747FD5095C40FD51F14
:1027C000CC16DD0644F48B2D0E94DC6883E10E9468
:1027D0002172E6010AC0CE15DF053CF48B2D0E9464
:1027E000DC6884E10E942172E701C017D10749F13A
:1027F000B19903C08FEF80939A06209751F48B2DE7
:102800000E94CC6817FF02C083E101C084E10E94EE
:1028100021728A2D83700E944A5D13C0CC27DD2768
:10282000C01BD10B85E00E94DC6884E00E94DC685C
:102830008DCF953421F47BCFE80121977FCFE8013C
:1028400085CFCE01DF91CF911F910F91FF90EF9037
:10285000DF90CF90BF90AF900895552747FD5095DA
:10286000772767FD7095992787FD909531CF209147
:10287000FB07F3CF462F2091FB0760E0EECF462FFA
:1028800050E02091FB0760E070E022CF90914A0178
:10289000911103C0811106C00895811103C08FEF0B
:1028A000890F01C080E080934A018EEB809349013B
:1028B0000895E0914A01F0E0EE0FFF1FE55BFE4F47
:1028C000918380838FEB8093490108958091550611
:1028D0002AEF829FC0011124880F991F20913A018D
:1028E00030913B012817390720F490933B018093E6
:1028F0003A010895EEE2FEE037A1303180F420A5E0
:1029000041E0420F40A7DF01A20FB11DA20FB11D90
:102910008D939C93403108F010A63F5F37A3089534
:1029200090E08C5F9E4FE6CF90E0E4CF809316025C
:1029300090E04097DFCF0F931F93CF93DF93EC018D
:1029400080915C0681FF07C180916D0686FF89C07A
:1029500012E001E00E94BB698F3F2FEF920781F0E8
:1029600029A9211104C08F31A9F709ABF3CF213078
:1029700011F419ABEFCF223069F78AAB19AAEACF6D
:102980008EA1813041F53FA1332309F452C029A51E
:10299000FE01E20FF11DE20FF11D808191812F5F99
:1029A000203108F020E029A731503FA32091C60133
:1029B00021FDE0C097FD02C021E101C028E22BA368
:1029C0002FE12AA722E02BA78CA79DA718AA84E0B5
:1029D0008FA72EA32EC0811106C08091580D8D3374
:1029E00040F186E025C0823021F19AA990788330A9
:1029F00049F4992329F08BA181508BA3811119C02F
:102A000084E016C0843021F4992399F083E00EC04D
:102A1000853039F48BA181508BA381110AC081E0EC
:102A200007C0863031F4992321F084E18BA385E03F
:102A30008EA38EA1823009F49DC08BA98F5F8BABD2
:102A40008A3008F497C01BAA8DE18AA781E08BA782
:102A500098A1911101C080E08CA718AA83E08FA7EC
:102A600089C098A189A1992311F0846001C08B7F4E
:102A700089A38EA1813081F5C79A2FA1222349F124
:102A800089A531E0380F39A7FE01E80FF11DE80FE5
:102A9000F11D808191819DA38CA3303108F019A68E
:102AA00021502FA32091C60121FD64C097FD02C0D3
:102AB00021E101C028E22BA329A12C7F97FD2260F0
:102AC00029A389A18BBBC7988FE18AA382E08EA33B
:102AD00051C089A18BBB4DC081110CC0C79A89A17F
:102AE000836089A38BBB8091580D8D3308F441C05E
:102AF00086E02FC0823009F43DC089A18BBBC79A04
:102B0000BF9800C0000000C086B38078BF9A9EA125
:102B1000933049F4882329F08BA181508BA3811134
:102B200028C084E016C0943021F4882311F183E09A
:102B30000EC0953039F48BA181508BA3811119C03F
:102B400081E007C09630A9F4882399F084E18BA333
:102B500085E08EA30EC08091830681FD0BC080911D
:102B6000590686FB882780F998A1981711F0C79A13
:102B700001C0C798DF91CF911F910F910895909157
:102B8000510690FD02C093E08927E82FF0E0EE5C4B
:102B9000F74FE081E7FDE95FE595E595E5951E16C0
:102BA00024F0EE2321F0E19502C080E801C080E02E
:102BB000E83008F0E7E0F0E0EC55FD4FE491EE235B
:102BC00019F099E0909355018E2B0895853030F4DB
:102BD0006FEF680F8091EA0635DD24C08D3080F4F8
:102BE000E82FF0E0EE0FFF1FE85EF74F8081918144
:102BF00097FD079653E0959587955A95E1F712C092
:102C00008D3170F4E82FF0E0EE0FFF1FE651F84F22
:102C1000808191816AE070E00E94077ACB0102C056
:102C200080E090E015CD482F833021F0882321F0FB
:102C3000E82F03C0E0E001C0E3E0F0E0EE0FFF1F8B
:102C4000ED5EFE4F80819181443080F420916E06CC
:102C500030E002C0359527954A95E2F720FF06C07F
:102C600020E038E0A901481B590BCA0108951F93C1
:102C7000CF93DF9310E0C0E0D0E0812FD4DFC80F06
:102C8000D91F1F5F1430C9F7C058DF4F8D2F90E058
:102C9000DF91CF911F910895CF938091510681705C
:102CA000C2E0C81B8C2FBFDF6C2F0E94003D20911B
:102CB000BC0525FF05C00F964F9728F080E004C0A3
:102CC00081319C4FDCF781E0CF910895E3E1F1E0A1
:102CD00040E0842F806487B9369A3699FECF24B1BC
:102CE00035B1369A3699FECF84B195B1820F931FD4
:102CF000819391934F5F483061F7089578941F92C4
:102D00000F920FB60F9211248F93809112018F5F53
:102D1000809312018F910F900FBE0F901F90189506
:102D200078941F920F920FB60F9211242F938F93C6
:102D30009F93CF93DF93EF93FF93F89487B78F7BA5
:102D400087BF78942091CA018091CC0190915C0654
:102D5000882359F090FF07C08091320F820F809333
:102D6000320F87FF02C01B9A01C01B9891FF50C011
:102D700080916D0686FF22C0EEE2FEE087A58823E3
:102D800009F446C080910A02811142C080919B00E3
:102D900085FF0DC080A991E0980F90ABEF01C80F9F
:102DA000D11D8AA580939C0087A5815087A787A500
:102DB00081112EC086A1823059F526C0809142092A
:102DC000811126C0EEE2FEE086A1823009F583A1E2
:102DD000882311F081501BC021A1C79A82A180FDD8
:102DE00009C02D7F84A195A196FD2260880F991FAF
:102DF00095A384A381E082278BBB81A3C79882A17E
:102E0000815082A3811104C083E086A385E083A35F
:102E1000F89487B7806487BF7894FF91EF91DF9132
:102E2000CF919F918F912F910F900FBE0F901F9078
:102E3000189578941F920F920FB60F9211242F932A
:102E40003F934F935F936F937F938F939F93AF9332
:102E5000BF93EF93FF9381B7845681BF88EC91E0D5
:102E60000E9469700E94EB688091910D826080934E
:102E7000910DE2E0F1E08081815011F0808304C087
:102E800084E6808381E081838281815011F0828396
:102E900005C08AE08283838181608383FF91EF9103
:102EA000BF91AF919F918F917F916F915F914F9162
:102EB0003F912F910F900FBE0F901F90189578940F
:102EC0001F920F920FB60F9211242F933F934F939F
:102ED0005F936F937F938F939F93AF93BF93EF9382
:102EE000FF932091800030918100F89480917D00C3
:102EF0008F7D80937D0078948091970690919806BD
:102F0000A901481B590BCA019695879530939806DD
:102F100020939706409123019C01215A3F402F3D69
:102F20003E4230F12FEF240F283028F59C0121522A
:102F3000334027373540F0F424E620931502E42F80
:102F4000F0E0EE0FFF1FEE5DFE4F9C012C5D354063
:102F500050915706565F529FC001539F900D112408
:102F60006AE070E00E94077A718360834F5F03C05C
:102F700041E001C040E040932301F89480917D003E
:102F8000806280937D007894FF91EF91BF91AF9123
:102F90009F918F917F916F915F914F913F912F9171
:102FA0000F900FBE0F901F90189592EC980F81E034
:102FB000973008F080E00895FC018081882359F063
:102FC000843218F085520C943F23815056DA40E049
:102FD00060E00C94337208959C0155E03595279577
:102FE0005A95E1F7280F391FAC01440F452F441FB4
:102FF000550B241B350B892F990F990B8595820F43
:10300000931F08959DE7980F9B3F88F08E57E82FF8
:10301000F0E0EE0FFF1FEE5FFA4F808186171CF481
:103020006083862F0895481714F44083842F0895F1
:1030300044E66CE9E7CF982F80915C0284FF03C0DF
:1030400081E0923009F080E0089549E28402900125
:103050001124359527953595279587FD815C86FB4D
:10306000880F880B80F9A901481B510987FD5395EA
:10307000CA0108954F925F926F927F928F929F92B2
:10308000AF92BF92CF92DF92EF92FF920F931F9376
:10309000CF93DF93782E642E882309F4D6C086E17F
:1030A000781621F09AEE791203C0D1C081E0D5C024
:1030B000872D992787FD909597FF03C0919581955E
:1030C0009109873191056CF00E945168982F81E039
:1030D00017141CF49111C1C0BAC0992309F4BDC0E2
:1030E000B6C0872D87FD81958A3040F4825F0E94AB
:1030F000116817140CF4B1C091E0A5C08A50E82EF5
:10310000F12C6701CC0CDD1CE601CE0DDF1DCF5587
:10311000DB4F8A818F7009F49AC094E0961530F4E1
:10312000F701EC57F94F908191708AC0588049801F
:1031300009D8811107C08FEF850D9FD98C01898136
:1031400084DF0EC0823041F48FEF850D96D98C015B
:103150008981815092D904C080E090E000E010E0C5
:103160002A812F70822E912CF4013197EE30F105D7
:1031700008F071C0EA5BFF4F0C94587A17FF35C016
:1031800011950195110931C017FF33C011950195B3
:1031900011092FC001E0060D402F60E0852D6ADF88
:1031A000182F402F60E0842D65DF2A812F70253095
:1031B00061F4112309F44FC0882309F44CC08A81BB
:1031C00082958F7059F591E031C0263019F41111B4
:1031D000F6CFF2CF982F91271EC008171907D9F5FF
:1031E000EECF0817190759F736C0801791073CF33F
:1031F00032C0081719071CF32EC0F601E255FE4F26
:1032000091819095991F9927991F05C0F701EC5757
:10321000F94F908191709111D2CF08C089300CF094
:103220008F5F41E0460D60E025DF982F2A812F70E7
:1032300030E02C30310524F4F701EC57F94F90833E
:1032400017143CF081E0892708C0862F06C080E073
:1032500004C0892F02C090E0E9CFDF91CF911F9188
:103260000F91FF90EF90DF90CF90BF90AF909F9025
:103270008F907F906F905F904F90089540E060E056
:10328000F9CE80913E06FADF811113C080913A0198
:1032900090913B01892B69F410924E0E8091580D4C
:1032A00090919906981749F0809399068EE29EE0D6
:1032B00042CB81E080934E0EF1CF0895CF93DF9300
:1032C000C62F20914802222339F090934A0280931E
:1032D0004902DF91CF91089564E010D90E942B67D5
:1032E000C11103C080913B0601C089E10E94F966CB
:1032F000FCD8D1E00E944778882319F0DF91CF9164
:10330000F4C88091910D833019F4A8951092910D15
:10331000CC2319F0D0934E0E02C010924E0EB1DFA6
:10332000E9CF60E0CBCFE0914A01E43018F08FE0C4
:1033300092E0F7CF2FEB20934901EF5FE0934A0132
:10334000F0E0EE0FFF1FE55BFE4F91838083089551
:103350008091500680FD16C0B9DC9EDC811112C040
:1033600066E081E492E0CAD80E942B67BED8AEDC4A
:1033700088DFA89591DC811105C00E9447788823D9
:10338000B1F3B3C80895DF92EF92FF920F931F93AA
:10339000CF93DF938091500681FD8FC0C091FA04D6
:1033A000F0900C0680917F0682FD0CC08C2F8873F4
:1033B000883041F0803131F0803221F0C77CC86024
:1033C000C093FA04E12CDD24D394D4D8182F85E2DD
:1033D0000E94BB68082FD12FDC276E2D62608CE124
:1033E00092E08CD8D0FF03C060E082E0B9D8D1FF72
:1033F00003C061E087E1B4D880917F0682FF1AC0E4
:103400008D2F8C7051F0612F70E0759567957595D3
:10341000679563706B5E8CE2A3D88D2F8073F9F093
:10342000612F70E044E0759567954A95E1F7637008
:103430006D5F13C0D2FF03C062E08CE291D88D2F84
:10344000887369F013FF02C063E007C014FF02C075
:1034500064E003C015FF03C065E081E481D880917A
:103460007F0684FF0AC0802F8F25837061F0602F54
:103470006370655E86E574D806C0D6FF03C066E05B
:1034800086E56ED80F2DD7FF03C067E08BE668D8BE
:103490000E942B67DD2021F028D834E0E32E01C004
:1034A000E12C1C1302C00F1541F00E9447788111D6
:1034B00004C0E7DEA895D12C88CFDF91CF911F9172
:1034C0000F91FF90EF90DF9008958111FFD98091C7
:1034D0003A0190913B01009709F001972091390141
:1034E000222361F020915D064AEF249F9001112470
:1034F000220F331F8217930708F4C90190933B01F1
:1035000080933A01BECE1F93CF93DF93C8E1D5E0FD
:1035100090E0888111E0190F882329F0AFDE88231D
:1035200011F0812F05C0912F2A96143091F780E079
:10353000DF91CF911F9108958F929F92AF92BF928A
:10354000CF92DF92EF92FF920F931F93CF93DF936F
:10355000EC01A62EB12C6501CC0CDD1CF601E95E58
:10356000FD4F008111818981882309F457C08D8026
:103570009E80888181500E943D127C018981853026
:1035800038F4833050F4813079F0823091F039C0D2
:103590008530A1F0863071F134C0F7FE03C0F1949C
:1035A000E194F108833029F481E08E149F043CF10A
:1035B00025C081E0E814F90414F120C08881F5DC0D
:1035C000882369F08AE09701829F7001839FF00C45
:1035D0001124F4018E9F40018F9F900C1124E81854
:1035E000F908FFE1EF0EF11C81E02FE3E216F10490
:1035F00030F004C081E0E814F90409F080E0E82E1E
:10360000F12C8A81811104C0EF2829F081E01BC0D0
:1036100035DE8111F9CF00E010E014C08A818823E3
:1036200031F02CDE81110BC00FEF1FEF0CC08B812E
:10363000833040F09C81907681E029F403C080E0E3
:1036400091E002C080E090E0892BF501E95DFD4F3B
:103650005F01F080209105019B8121FD2EC09330F8
:1036600059F48A810E94BB68F81689F1FF24F3940B
:10367000F80E00E010E02CC0813041F4F11003C0DE
:10368000292F2D7FB1F0913089F421C0F1E0FF1294
:103690000CC08FEF890F823040F480E000E010E032
:1036A0009230B1F4E2E0FE2E13C080E0913219F4C2
:1036B0000CC000E010E0F82E0BC0FF24F394913210
:1036C00009F0F12C0FEF1FEF03C00FEF1FEFF12CEC
:1036D000F50180838C8187FD03C0F1100AC07BC097
:1036E00088818530D0F3855283D7882309F473C04D
:1036F000F4CF17FF04C08B81833028F46CC0011510
:10370000110509F055C08C818076803211F4CE010C
:1037100053DC8C81877059F1813021F52F81822F04
:1037200098858C3FF1E09F0740F040E050E060E07A
:1037300070E084E0820FE2D60DC0853F21E0920761
:1037400048F0FC01EE0FFF1FE85EFE4F80819927D5
:1037500087FD90952F2D30E021503109820F931F66
:10376000C9D805C060E070E08F810E9426728C810C
:103770008076803411F4CE011FDC8C81282F2871D3
:1037800081F0869586958695837090E0029724F067
:10379000283121F48FE003C08DE001C08EE00E944B
:1037A00021728B8183508E31A0F00FEF1FEF13C079
:1037B0001016110684F40F5F1F4F8B813AE0839F30
:1037C000C00111244397081719072CF000E010E0FE
:1037D00002C001E010E0F601E95EFD4F11830083B5
:1037E000DF91CF911F910F91FF90EF90DF90CF90DD
:1037F000BF90AF909F908F9008951F93CF93DF93CA
:10380000C4ECD5E010E0612FCE0196DE29961F5F53
:103810001830C9F7DF91CF911F9108959F92AF9211
:10382000BF92CF92DF92EF92FF920F931F93CF93AD
:10383000DF93109237088091120102B79091120124
:103840008913F9CF10E0182B41DA8EE587B91BBA3E
:103850008FE18ABB00C099B38FEF8ABBECE0F2E046
:103860008781882311F080E202C0892F807E8483C3
:10387000292F207C8081281759F08074880F907838
:103880003181891711F0315001C03F5F31832083AE
:1038900082819381891711F0838381838091590DEF
:1038A00090919306282F291B20933C018093930627
:1038B00080910A02811106C060E08AED97E00E94C3
:1038C000C54701C0A89580913C01882309F4CCC26A
:1038D000C4E3D1E080910008882319F081508093DF
:1038E0000008C5D92B813C818217930741F09C8346
:1038F0008B831A82198281E0809339012DC06091F7
:103900005206665F49F180913D01823328F188813A
:103910008F5F8883803100F189819A8101969A8333
:103920008983188247E751E0649F9001659F300DBD
:1039300011242817390780F48F719927019761F4B2
:103940008091C6018D7F8093C60186E00E94961407
:103950006DE280E10E942B720E947F310E949A30BA
:1039600080911502882319F081508093150280E020
:103970000E949C5D0E94DD620E94A567D82E809106
:103980000A028111B4C13D2D3F70A32E4AEFA40E4F
:10399000C0915D02C43021F0C33019F4C4E001C00D
:1039A000C8E057E05A1508F495C08D2D807F80320D
:1039B00009F490C08A2D86950E948E1090916D0614
:1039C00090FD04C0CC24CA94C80E03C0E4E0CE2EFF
:1039D000C81A6C2D8091EA060E940013B82E6C2D37
:1039E0000E9422137C01C1110CC0EC0197FF04C09E
:1039F000CC27DD27C81BD90BD595C795D595C7957D
:103A0000CF5F82E0C8120FC080915C0280FD02C0CF
:103A1000912C03C099249394C2E00E94AF10882394
:103A200019F0C19501C0912CDD27C7FDD095A0FEEE
:103A300003C0CE0DDF1D04C0F701EC1BFD0BEF0131
:103A4000209721F08D2F8F2587FF11C091100FC077
:103A5000EF2869F040E050E06C2D8B2D0E9436136A
:103A60008D2D0E94DC6886E10E942172C8C39E01F0
:103A700024583F4F293F310548F4AE016C2D8B2D62
:103A80000E9436136C2FC7FF18C016C01C161D06E7
:103A90001CF44DE750E002C043E85FEF6C2D8B2D26
:103AA0000E943613CE0183589F4F8B3F910508F03B
:103AB000A6C36C2F1C160CF4619567FD6D5F6595B0
:103AC0006595772767FD7095645C7F4F85E10E945F
:103AD000267295C38D2D8F7B71F480919A06B199D2
:103AE0008AC38F3F31F08F5F883C19F48FEF6DEB05
:103AF000D62E80939A06EFE3F1E080913008909102
:103B0000310820813181281B390B37FF02C0215E2B
:103B10003F4F55E0359527955A95E1F72115310529
:103B200061F024813581281B390B37FF02C02F5FDC
:103B30003F4F35952795918380839583848380912A
:103B4000530685FD04C08091FE07882311F020E014
:103B500030E033832283CCE0D2E02D818981821B47
:103B60008F3F09F480E087FD8F5F85958887982FC8
:103B7000990F920F9D838D29A8DCF0906906F7E0DC
:103B8000FF0EE0914A01F0E0EE0FFF1FE55BFE4FF4
:103B9000208131812255354409F040C080915A0876
:103BA00081113CC02885222371F08E81332727FDA7
:103BB0003095F901E80FF11D87FDFA95CF010E94BC
:103BC00028138E831886E091C7048E2F807E31F1F2
:103BD000E295E695E770F0E0E430F10554F4EE0F7D
:103BE000FF1FE65DF74F208131813C5F60E078E0A8
:103BF0000CC0EE0FFF1FE650FB4F2081332727FD3F
:103C0000309523583F4F6AEF70E047E0429FC00174
:103C1000439F900D11240E94F379F62E8091160295
:103C2000F81619F08F2D0E9496148091590687FF7F
:103C30003CC0809156018823C1F1809155018823B1
:103C4000B1F18091920687FD03C08F5F8093920649
:103C500082E00E94BF15982F9F7789F020919206ED
:103C6000921728F510929206D11021C0D82ED09428
:103C7000DD1CDD24DD1C83E68D19D82E18C083E001
:103C80000E94BF15982F9F7791F02091920692176E
:103C900070F410929206D1100AC0D82ED094DD1C78
:103CA000DD24DD1CF4E6DF0E02C01092550181E038
:103CB00080935601E0901202FF24E7FCF094C3E0E9
:103CC000D5E08881882371F0853031F00E94E615B7
:103CD000992787FD909501C0C7010E942813FE0116
:103CE00031978083229625E0C131D20751F7809128
:103CF000490290914A020097B1F060E00E947E1262
:103D00000E94477890919106992339F0811128C03B
:103D100010924A021092490223C0882309F181E0DF
:103D2000809391061DC010929106C0914901CC2349
:103D300031F01092490187E10E942172DC2E84E16A
:103D400080933E01D0920B02E0914A01F0E0EE0F29
:103D5000FF1FE55BFE4F0190F081E02D8D2D099551
:103D60000E942B67C091650088EC91E00E9455701D
:103D7000882311F084E105C08091310F882321F060
:103D800081508093310F06C08091630086958170C9
:103D90008093300F8091300F80934702882309F47D
:103DA0002CC28091590685FD28C2CF7EC093650044
:103DB0008091580D8F71823009F054C0809121019B
:103DC00090912201AC01A4E0440F551FAA95E1F7A0
:103DD00097FD0796BC01F3E075956795FA95E1F7B5
:103DE00020913D06332727FD30952A5F3F4F629F84
:103DF000C001639F900D729F900D1124840F951F39
:103E00002091530626FD05C06091000170910101CB
:103E100002C060EF70E00E94F37980913D01680F6D
:103E2000711D6F5F7F4F7595679560933D01809120
:103E30009006805F80939006811114C080913C06AB
:103E4000681780F4623370F06EE281E10E942B7299
:103E50008091530683FF06C082E390E090933B017C
:103E600080933A01109239018EE587B9369A3699D6
:103E7000FECF84B195B190930101809300018091B0
:103E8000910D833019F4A8951092910D2091120193
:103E900082B7909112012913F9CF90E0922B801BE9
:103EA000910B20910801309109012817390720F45E
:103EB000909309018093080180910501882309F4FA
:103EC00019C100919506109196060F5F1F4F109330
:103ED0009606009395068091C7048F7150E1B52E28
:103EE000B81AF7E1FB1508F477C0EB2CF12CE701C9
:103EF000CC0FDD1FC853DB4F3FE03B1528F4E70133
:103F0000CC0FDD1FC45DDA4F8881C82EC294C694E1
:103F100027E0C222D98045E04C1550F05AEF5D15DC
:103F200038F4ED2DF0E0EE0FFF1FEE5EFC4FD08079
:103F30008F7109F44FC0A2D9A82E80910501F70115
:103F4000E15DFD4F7F0181FD43C08C2D857049F4FB
:103F50008081811106C0AA2021F08D2D90E00E9461
:103F60007A148FEF8C0D823058F4F7018081813004
:103F700079F5A1102DC0F2E0CF1226C0D39424C051
:103F800025E02C1548F4F7018081811121C0AA2079
:103F9000F9F0898174D31CC0F2E0FC15C8F4AA20A2
:103FA000B9F024E0C21631F035E0C31631F066E90D
:103FB00070E005C06CE271E002C068E572E0C80123
:103FC0000E94F379892B21F48D2D90E00E947A14C0
:103FD000F701A082B39485CF01EA14E0B4E8AB2ED8
:103FE000B6E0BB2ECEEACC2EC1E0DC2EE12CF12CCB
:103FF000F8019280892D8F700E94A2108330D9F52C
:10400000F601C081D181209771F4F801C081C7FD0C
:1040100006C0C095FAE0CF02E00111241BC0DD27E5
:10402000C7FDD09517C0D7FF14C0219699F4F701AA
:10403000EE55FB4FC081C7FD06C0CF5F2AE0C2022C
:10404000E001112406C0DD27C7FDD095C095D095AD
:1040500001C02197892D807F59F0892D82958F701D
:1040600089300CF08F5F0AD9811102C0CFEFDFEFEA
:10407000F601D183C083F501C081F80182818F7080
:104080008C3071F48081FAD8811109C0F701EE55A6
:10409000FB4F8081F3D8882319F0C0E001C0C1E054
:1040A000F80182818F708D3091F48081E7D8882368
:1040B00059F0C1FD0CC0F701EE55FB4F8081DED8F1
:1040C000882321F0C3E003C0CD7F01C0C2E0F50129
:1040D000C1935F010D5F1F4FF3E0EF0EF11C22E073
:1040E000C20ED11C34E2E316F10409F081CF85DB66
:1040F0001092050180910301882309F482C0209168
:1041000094062F5E822F8F7090E00C970CF0207F2A
:10411000209394068091C7048F71A0E1FA2EF81ABB
:10412000CBE4D2E0E12C422F4073D42E522F5F70AB
:10413000C52E822F8077B82E207FA22EEF1409F48F
:1041400050C08E0103581D4FF8018081982F907C3C
:104150009034A9F4D11013C0880F880F85958595E8
:104160008DD8882361F080915C0680FF05C0FE0138
:10417000E258FD4F808101C081E00E942172F80168
:104180008081982F907C903849F5880F880F85950D
:1041900085958731B4F08751813039F018F082303D
:1041A00039F01CC0B1101AC006C0C11017C003C03E
:1041B000F0E2AF1213C0FE01E258FD4F80815FD2E2
:1041C0000DC0D1100BC05AD8882341F0FE01E2582F
:1041D000FD4F8081805890E00E947A14E3942296EB
:1041E000ADCF1092030180915501882351F0815089
:1041F0008093550106C080E07CCCC061D7CDD12C26
:104200006CCCDF91CF911F910F91FF90EF90DF90D9
:10421000CF90BF90AF909F900895282F30E08830C6
:1042200058F02850310949E0429FC001439F900D4A
:104230001124875A9B4F089545E0429FC001439F38
:10424000900D11248F5C9B4F0895813641F40E949C
:10425000DC6881E00E9446148BE09EE464D865EC43
:1042600071E180E10C941164CF93C82F80918F0D80
:1042700080FF03C06FE371E102C06DE271E188E18C
:104280000E941164C13629F410928F0D80E00E94C3
:1042900046148091D80881508093D808811103C0BA
:1042A00081E00E942172CF910895CF93DF93EB01BB
:1042B000E7E5F8E08F3B19F49091570803C08E3B77
:1042C00021F490819150988310829281992321F05A
:1042D00091819F779083128290819923A1F08132FE
:1042E00011F08E3871F520910208211108C091500B
:1042F000988310820E94DC6887E10E9421721092EC
:10430000020880E01EC09881843621F49417C0F41E
:10431000995F16C0853621F4973090F0975010C001
:10432000803611F08E3261F49F5F908390689183A4
:104330000E94DC6810920B021092D90790E080E096
:104340009883DF91CF9108951F93CF93DF93182F18
:10435000D62FC42F662329F06FE0842F0E943A14D1
:10436000C82F80915C024C2F83FF02C0440FD062A3
:1043700050E02D2F612F80E60E9414668C2FDF9174
:10438000CF911F910895FF920F931F93CF93DF93C7
:10439000182FF62E0AE08AE0189FE0011124CB596D
:1043A000DD4F2FE130E0211B3109029FA001039F67
:1043B000500D1124BE01CE010A960E94677AFF209B
:1043C00049F0BE016A5071094AE050E0CE010E94F6
:1043D000677A0DC0FE0111920A95E9F78091E30812
:1043E0008883898384E68A838F8188608F83109392
:1043F000E50882E0DF91CF911F910F91FF900C941F
:104400004A5DEF92FF920F931F93CF93DF93E62EB7
:10441000142FEC0188E0F82E00E0FE016591749104
:104420008F2D0E9411640E1540F4FE013E964591B9
:1044300054916F2D85E40E9427640F5F229688E0D7
:10444000F80E073051F74FE360E083E40E94C76441
:104450001123B1F0612F660F660F660F183028F038
:10446000685320E04BE385E403C020E042E480E0B1
:10447000DF91CF911F910F91FF90EF900C944D64BD
:10448000DF91CF911F910F91FF90EF9008950F93BF
:10449000443051F490915A029F70913029F44AE5CA
:1044A00053E10F910C94EC63022F242F45E257E166
:1044B0000E94DA630F9108959C01220F331F280F89
:1044C000391F9595879595958795280F391F95954F
:1044D00087959595879595958795820F931F089554
:1044E000429643E7489F9001499F300D1124C9012E
:1044F000E6E095958795EA95E1F70895CF92DF92EA
:10450000EF92FF920F931F93CF93DF937B018A016A
:10451000D090370895E09D1508F45FC091E09D0D9F
:1045200090933708EBE08E9FE0011124C257DA4FD9
:104530008881882349F081500E943D129C014427C4
:1045400037FD4095542F03C020E030E0A901D09200
:104550003708DE80FD2DF870CF2ED3FC0AC089818C
:104560009A81AA2797FDA095BA2F280F391F4A1FB5
:104570005B1FAB81B0E011960E94C5792C8130E0C1
:104580002F5F3F4F442737FD4095542F0E943C7AC0
:10459000CC2051F089819A81AA2797FDA095BA2F46
:1045A000280F391F4A1F5B1FD0FE07C0509540954A
:1045B000309521953F4F4F4F5F4FE114F10419F0B3
:1045C0008D81F70180830115110529F08E81869573
:1045D0008370F8018083C90102C080E090E0DF9120
:1045E000CF911F910F91FF90EF90DF90CF900895A2
:1045F00081E00895E82FF0E0E55EF84EE491862F23
:10460000992787FD909583589F4FEE5FE23038F4ED
:104610002AE0AC01249FC001259F900D112408952C
:10462000E82FF0E0E55EF84EE491E03F29F1ED3F40
:104630004CF4EE0FFF0BEA5EFA4F8081992787FD5D
:1046400090950895ED3FA1F0BCF0EF3F09F0A4F480
:104650008E2F992787FD909502962FE0289FF001D5
:10466000299FF00D1124E75CF74F83859485089509
:1046700080913D0190E0089580E090E00895CF9210
:10468000DF92EF92FF92CF93DF9300D0CDB7DEB7EA
:10469000F82E1A821982C4DFEF2DF0E0E55EF84EA5
:1046A0002491422F552747FD5095652F752F415F67
:1046B0005F4F4F30510590F54C5A5F4FFA010C9403
:1046C000587AAE014F5F5F4FBE016E5F7F4F8FE044
:1046D000820F14DFEA81F0E0E150FB4EE491EA83BF
:1046E0001DC024E22A8321E0298318C06CE370E016
:1046F0000E94077A6B017C0146E260E0C6010E94DD
:104700003372C70125E32A8309C0E22FEE0FFF0BA6
:10471000EA5EFA4F8081992787FD90954A816981E9
:104720000E9433720F900F90DF91CF91FF90EF9026
:10473000DF90CF9008950F939FE0499FF0011124DF
:10474000E75CF74F43855485022F0E9452660F9114
:1047500008958F929F92AF92BF92CF92DF92EF9285
:10476000FF920F931F93CF93DF9300D0CDB7DEB7A7
:10477000F82ED62EC22EB32E102F80E28A83E42F7D
:10478000FF27E7FDF095E55EF84EA4908E2D817031
:10479000982EE0FE20C0AFE0AA0DA43008F08CC037
:1047A0008BE0A89FD0011124FD01EB56FA4F8081C8
:1047B000882309F481C0AF0100E124E08F2D0E941D
:1047C000B66312FD03C008E10F0D06C00CE10F0D2A
:1047D00088EFD80E01C00F2D8E2D8870882EE3FC37
:1047E0001F7B81EFA8160CF43DC084EF8A152CF4D2
:1047F00082E08A0D8230F8F035C0AE014F5F5F4F26
:10480000BE016E5F7F4F8FE08A0D78DE29812130F7
:1048100011F4106203C0223009F41063EA81F0E061
:10482000E950FB4EE491EA83E7FE02C08C2D9B2DFC
:10483000C82EB92E17C012FD02C08CEF01C082E055
:10484000800F9110865F1770012F212F4C2D5B2D4B
:104850006D2D83500E945266E3E3EA0DEA838AEFEE
:10486000F80E0AC0882071F18DE38F0D212F4C2D99
:104870005B2D6D2D0E9414668E2D867069F0E2FE10
:1048800004C08AE08F0D1B7F02C08091450D212F4F
:104890004A816D2D0E9429638A810F900F90DF91CC
:1048A000CF911F910F91FF90EF90DF90CF90BF902D
:1048B000AF909F908F9008954F5F20E06D2D8F2DCA
:1048C000E6DD7FCF802FD2CF0F931F93CF93DF935F
:1048D000C82FD62F042F122F4AEC54E10E94EC630C
:1048E00040E3400F212F6D2F8CE08C0FDF91CF9193
:1048F0001F910F910C942963EF920F931F93CF9305
:10490000DF93C42F122F2E2DDE2DD3709DE7940F31
:104910009B3F80F043E84C0F8251D6DFDD2359F1F5
:1049200022E042E850E06EE770E08C2F90E00E94B9
:1049300068130CC0552747FD50950E941466DD236F
:10494000D1F0402F612F8C2F0E943714C82F8091F7
:104950000B028D3B81F48DE78C0F8B3F40F0EC2FE9
:10496000F0E0EE0FFF1FEA5FFB4FC08101C0CEE712
:1049700082E00E944A5D8C2FDF91CF911F910F91B1
:10498000EF900895EF920F93E22E0DE723E8B4DF46
:104990000F91EF900895CF93DF939EE0899FE00100
:1049A0001124CB50DC4F8C850E943E19882339F0AE
:1049B0008D850E943E19811104C081E003C080E012
:1049C00001C082E0DF91CF910895942F9695691BE5
:1049D000242F891B0C94B8669091140281E019165B
:1049E00024F0911101C080E0819510921402089585
:1049F00021E0AC0160E080E00C94EC630F931F9326
:104A0000CF93C62F0E941466B8018C2FCF911F91AF
:104A10000F910C941164EF92FF920F931F93CF9319
:104A2000DF93E82E142FFB01F490EB0122963196D0
:104A30004491222381F08091FA07882321F080910C
:104A40000208882351F02091FB0760E0812F0E942B
:104A50002D14182F02C000E002C00091FC07212F86
:104A6000AE016E2D8F2D0E94DA63812FDF91CF91E1
:104A70001F910F91FF90EF900895982F862F242F6C
:104A8000492F61EF71E1C7CF0F931F93CF93DF934E
:104A9000182FD62F022FBA018D2F0E941164C1E06A
:104AA000402F6D2F8C2F811BE8DFC81B8C2FDF91CF
:104AB000CF911F910F910895982F862F242F492F62
:104AC00060E573E1A8CF0F9390915A029F7021E0A7
:104AD000913009F020E000E040ED56E10E94DA63F9
:104AE0000F910895442321F050E08E5E0C941466DB
:104AF00048EE52E00C94EC63EF92FF920F931F93F9
:104B0000CF93DF93EC01062FF42E1091D907A091DB
:104B10002C08B0912D0820912E0830912F08EFE33A
:104B2000F1E0868197818A1B9B0B97FDCF9666E00B
:104B3000959587956A95E1F7482F8093FF078085C3
:104B40009185821B930B97FDCF9656E0959587959F
:104B50005A95E1F7982F8093FD07442311F0B7830E
:104B6000A683992311F0318720878091FE07811158
:104B700004C08091530685FF06C01092FF07109273
:104B8000FD071092FE078091FF07811108C08091F8
:104B9000FD07811104C082819381892B11F00E944D
:104BA0006614E090E8088FEFF81609F44DC0809184
:104BB000380881112DC08091E008882319F01092E7
:104BC000E0081E2D09DF18166CF41E1510F41F5F87
:104BD000C9F488818F1518F48F5F888301C018820B
:104BE00010E010C0882371F011110BC08881882358
:104BF00019F08150888301C0F88281E08093E00839
:104C000001C011500E3271F481E0809338080AC05F
:104C1000813041F40E3221F080910208811102C0EE
:104C2000109238088091D807B1990BC08F3F19F0C6
:104C30008F5F8D3338F091E090930208909338089D
:104C400001C080E08093D807E092FA0780910208C3
:104C500081112CC08091FD078823A1F04881481B59
:104C600047FD40E08F2D90E0242F332727FD30951E
:104C7000281739070CF04F2D4883E11608F41E2D34
:104C80001092FD078881882389F08091FF0788238F
:104C900069F0181B17FD10E08E2D90E0212F3327AF
:104CA00027FD3095281739070CF01E2D003679F1B5
:104CB00090F4023409F46BC028F40132E9F10E32A9
:104CC00031F184C0043409F442C008F46EC00534E4
:104CD00009F44DC07BC0053609F44BC040F40336DF
:104CE00009F466C0B0F5023609F454C06FC00E383E
:104CF00001F10F3B39F0013809F068C01092020849
:104D000081E022C018821092020810E05FC08FEF8D
:104D1000F81609F45BC081E090910208911180E0DF
:104D200080930208882309F451C081E080933808F9
:104D30004DC08EE80E94DC6880910208882319F03B
:104D40001092020843C080E00E9446143FC01E1526
:104D5000E9F1EE20D9F180910208811137C01E15CA
:104D600010F41F5F01C010E010920B022FC011233E
:104D700069F1EE2059F180910208811127C01123B9
:104D800019F0EE24EA94E10E10920B021EC0888105
:104D90008F15E1F080910208811118C088818F156C
:104DA00010F48F5F0DC018820EC08881882371F0C7
:104DB0008091020881110AC08881882319F08150EE
:104DC000888301C0F882E11608F41E2D20910208A4
:104DD00021110AC031E08091410190914201892B5B
:104DE00009F430E0832F01C081E080930108109323
:104DF000D907222311F082E001C081E08093FC07F3
:104E00001092E808DF91CF911F910F91FF90EF90E2
:104E10000895AF92BF92CF92DF92EF92FF920F93DD
:104E20001F93CF93DF93C82F86E195E1E1DD4AE040
:104E30006C2F8BED98E060DEC090DB08B090D90756
:104E400086E0CE3211F0C03671F48C1578F489EF1B
:104E50008C0D8093E9088C2F0E94DC6883E29BE430
:104E60000E94931962C08C1508F45FC081E08093A2
:104E7000E808E12CF12C18E06AEC74E1812F0E9423
:104E80001164AE2C41E34E0D612F8CE00E94B4639F
:104E9000E701CC0FDD1FCE5FDA4FD12CCA1005C061
:104EA000BD1003C00091FC0701C000E08091020822
:104EB000882309F486C0D1101BC0002329F062E2C8
:104EC00089810E943A14898329812D3018F448EA97
:104ED00055E105C02D3140F42D5F4AE957E1612FBE
:104EE0008CE30E94DA6315C02D5144ED52E1F7CFF7
:104EF000002331F04DE763E888810E9437148883EE
:104F00004881552747FD5095202F612F8CE60E9440
:104F10001466D39482E0D812C1CF185F8FEFE81ADD
:104F2000F80A103409F0A8CF41C089EFC80E0EE886
:104F300015E071E3E72EE8E0FE2E6BEC72E18F2DB9
:104F40000E9411644E2D6F2D8CE00E94B463E80125
:104F500020E048816F2D88E10E94B91049815A8173
:104F60006F2D8BE40E9442664B8150E04F5F5F4F94
:104F70006F2D80E60E9442664C8150E04F5F5F4F8C
:104F80006F2D8EE70E94426688E0F80EE394055F7D
:104F90001F4F88E2F812D1CF6C2D660F660F660F97
:104FA000685F20E04EE780E00E944D64DF91CF9182
:104FB0001F910F91FF90EF90DF90CF90BF90AF9037
:104FC0000895D1109DCF80CF1F93CF93DF93C82F2B
:104FD000D62F142F47E16BE2F8DC43E06AE28C2F16
:104FE0000E94C76443E06BE28FEF8C0F0E94C564A0
:104FF000812F69EF0E94E679382F375D8D2F67E0AA
:105000000E94E6798C0F25E045E0632F8250DF9106
:10501000CF911F910C949866CF92DF92EF92FF92FE
:105020000F931F93CF93DF93C2E3D8E04981688148
:105030008AE2CADF4A816B8186E5C6DFC4E2D8E036
:105040002896AAE3FA2E0DE510E0B7E3CB2E89915E
:1050500099919C5FB8010E94077ADD24D394D60E03
:10506000EC2CE61A4D2D6E2D8F2D0E94C7644D2D10
:105070006E2D81E08F0D0E94C7644D2D6E2D82E054
:105080008F0D0E94C76485E0F80E89E4F812DFCF27
:10509000DF91CF911F910F91FF90EF90DF90CF9014
:1050A00008954BE353E168E388E60C9427640F937B
:1050B0001F93CF93DF93D82F162FC42F022F47FFB4
:1050C00008C041E28AEF8D0F0E94296386E08C1BA5
:1050D000C82F2C2F43E557E1612F8D2F0E94DA63F3
:1050E000DF91CF911F910F9108950F931F93CF934D
:1050F000DF93162F042FC62FD0E0AE014F5F5F4F16
:10510000202F682F86E60E941466002329F06FEF97
:10511000CE010E943F14182F812FDF91CF911F9154
:105120000F9108950F93CF93DF93C42FD02FD27098
:1051300001FF03C00E94D31102C00E949D1100FF15
:1051400041C0DD23B9F1CD3274F084ED8C0F0E94A3
:105150007D112091570130E0280F311D87FD3A95D0
:105160002150310907C08C2F0E947D11282F332731
:1051700027FD309580915701482F440F4250C1E0E0
:105180006C2F681B822F0E94371490915701482F73
:10519000552747FD5095292F30E0421753073CF023
:1051A000C91B8C0F0E948D11CCE2C80F0BC00E944E
:1051B0008D1107C040915701642F61958C2F0E947B
:1051C0003714C82F8C2FDF91CF910F910895FF9244
:1051D0000F931F93CF93DF93182FF62EEA01022F20
:1051E0004981453249F429852295269527704EE557
:1051F00054E10E94DA6311C020610E94B9108981D4
:105200008551803150F48F8186FF07C0202F48ECF4
:1052100052E16F2D812F0E94EC63DF91CF911F919E
:105220000F91FF90089580919B03882329F085E2D8
:1052300091E20E94931981E00895CF93DF93C82FE4
:1052400088E00E9411646EEA71E188E20E941164B4
:10525000C13671F028F4CE3269F0C03659F012C070
:10526000CE3831F0CF3B71F480E00E9421720AC049
:10527000D2E001C0D1E08C2F0E94DC6881E00E9466
:10528000461401C0D0E08D2FDF91CF910895CF93C8
:105290009091D6079F3F19F46DE971E102C061E971
:1052A00071E1CBDF813019F0823019F127C0C09154
:1052B000D607CF3F19F40E94FE691BC08C2F0E94B5
:1052C000A8102FE130E02C1B3109CAE0C29FA001D9
:1052D000C39F500D1124BC01665F7F4F0E94677A07
:1052E000EBE9F3E0DF011D92CA95E9F782E00E9445
:1052F0004A5D8BE09EE4CF910C949319CF91089571
:105300000F93CF93C82F4FE06EE578E08091D307DD
:105310000E948F5C00E12AE04EE558E060E181E008
:105320000E94B6634FE360E182E40E94B46380911F
:10533000D407882319F067E671E102C06AE571E1DC
:105340008C2F7BDF813019F08230F9F024C08091FE
:10535000D4078823A9F088E491E10E94AC128091DF
:10536000D3070E94D75C882339F087E10E9421721D
:1053700082E08093D40709C080E00E94217205C0BA
:105380008091D3078F5F0E94846083E69AE2CF9179
:105390000F910C949319CF910F910895DF92EF9292
:1053A000FF920F931F93CF93DF93EC01062FD42E20
:1053B000F62E18E0E12CFF20B9F0F0FE0EC02D2DE6
:1053C00042E851E1612F82E10E94E763AE01612F63
:1053D00088E10E942764E394185FF694FE018491AB
:1053E00021968111FBCFE7CFCD2DCC0FCD0DCC0F6A
:1053F0002AEF210F4C2F67E082E10E94B86644EF4C
:105400004C0F60915B08660F660F660F685F20E0C7
:1054100088E10E944D64E0DA282FCAE5D8E099813E
:105420008B81882351F03091580D36FF08C0815090
:105430008B83811104C018821CC08FEF8B838091F5
:105440000B02813681F028F4803249F08E3239F037
:1054500012C08336C9F088F08E3829F00CC018824B
:105460001B8281E01AC00E94DC6810920B02188235
:105470001B8282E012C012162CF4EA949E1530F4BE
:105480009F5F04C0222339F0911191508B818823B2
:1054900011F08FEF8B83998380E090915B089F5F81
:1054A00020E000FF02C0915021F006952F5F2830C8
:1054B000C1F720935C08DF91CF911F910F91FF906E
:1054C000EF90DF900895DF92EF92FF920F931F937A
:1054D000CF93DF93C82F8CEA90E18ADAF090D2085C
:1054E00080915A08811105C04FE06C2F82ED98E041
:1054F00003DB66EA70E180E00E9411640E94AA5F0B
:10550000AC0160E086E60E9442661091D20880916C
:10551000D407823021F41092D1081092D4078091E0
:10552000030891E0980F191728F4123068F08FEFF4
:10553000810F0BC094E0980F911738F48CEF810F16
:105540008B3018F08AE001C080E080930308082FB8
:10555000D0E1EE24E3941013E12CDD24D394D00E9B
:105560002E2D4D2D6D2F82E10E94446680913A06CA
:10557000081305C04AE26D2F81E00E94B4634FE03A
:105580006EE578E0802F0E948F5CEE2031F08091F4
:10559000D108882311F001E101C000E12FE04EE5C0
:1055A00058E06D2F88E10E94B663D85FD03411F0C7
:1055B0000D2DCFCF80915A08882309F477C08091B0
:1055C000D20890913A06981302C0D9E501C0DEE7EF
:1055D0000E94C05C811101C0D6E980915C0682FF07
:1055E000DF734AE06D2F82E094E1D8DE813009F06C
:1055F0009CC0D0915C08D11105C081EC90E50E945F
:10560000591493C09FEF9D0F923060F50091D2081E
:1056100000933A0680938E0D8C2F0E94DC680E94C6
:10562000465E00933A06802F0E94555E80910501E8
:1056300082608093050181E00E944A5D0E94465E7F
:105640000E94A8190E94C319809155020E949014CB
:105650000E94A76F80915A08823079F2D23009F007
:1056600055C0CBCFD53031F48C2F0E94DC6810921E
:10567000D40704C0D33049F48093D4071093D307E0
:1056800080E899E20E94931950C0D63019F48093B3
:10569000620804C0D73039F410926208109366088B
:1056A00082EC9EE2EFCF8093D1083FC0C63638F43B
:1056B000C43688F4C036C1F0C13641F036C0C138B6
:1056C00029F1CF3B39F1CE3681F50EC08091D1085A
:1056D000882359F10FC090913A068091D20898170B
:1056E00009F48BCF82E00AC0109202088091D108A1
:1056F000882319F01092D10818C081E080935A08CD
:105700008C2F0E94DC6810925B080FC081E00E9421
:1057100046140BC01092D10810925A0880913A0694
:105720008093D20881E00E949C5D8091D1088823FB
:10573000F9F0CF2DDD27C7FDD095812F90E0C81758
:10574000D907B1F061E0610F81E08F0D0E946360C5
:1057500080913A06181303C0F0923A0606C090E012
:10576000C817D90729F410933A0681E00E944A5DD0
:10577000DF91CF911F910F91FF90EF90DF900895EF
:10578000CF92DF92EF92FF92CF93DF93FC01EB0178
:105790009C01DC010E94A6799B01AC01DE010E9404
:1057A000BB79272F382F492F5527DF010E94BB795E
:1057B0006B017C013CE0F694E794D794C7943A954A
:1057C000D1F724E630E02C1B3D0B0E94A6796E5CDD
:1057D0007F4F8F4F9F4F6C0D7D1D8E1D9F1D24E6AB
:1057E00030E040E050E00E941A7AC901DF91CF9189
:1057F000FF90EF90DF90CF9008951F93CF93DF93AA
:105800006115710519F1192F111F1127111F19F0B9
:1058100091958195910977FF0FC0719561957109F7
:10582000C0E0D4E09E01281B390BC901A9DF9E010D
:10583000281B390BC90101C0A3DF112329F022273E
:105840003327281B390B01C09C01C901DF91CF917F
:105850001F910895EF920F93CF93DF93382F862FE8
:10586000642F922F332319F02091FC0701C020E010
:10587000C091E6084EE0C49FE0011124CB50DC4FFC
:10588000933629F4032F4C854DDC8C8724C0923647
:1058900029F4032F4D8546DC8D871DC0E02FF0E0F5
:1058A000E90FF11DE90FF11DEE0FFF1FEE0DF11DC8
:1058B000EC0FFD1FEF01011106C0E22E04E62CE9FA
:1058C00048811AD807C048814C59E22E04E620E0EE
:1058D00013D884568883DF91CF910F91EF9008956C
:1058E00090E0E92FF0E0E852F94EE491E81721F05A
:1058F000EE2321F09F5FF5CF892F089580E0089572
:10590000823430F4E82FF0E0E852F94E84910895A3
:1059100080E20895DF92EF92FF920F931F93CF934F
:10592000DF93F82E162FEA01E22ED02E69E576E1FC
:10593000812F0E94116400E12E2DAE01612F82E4BF
:105940000E94B663DD2099F18F2D880F8F0D880F8F
:105950002091020846E0612F8E5B0E944D644E2D1F
:10596000440F4E0D440F4C5F6FEF610F29E080E450
:105970000E94B866809102088823C9F0CF0DD11D1E
:1059800088818111ADDF2D2D41E460E00E942D144E
:10599000B7DF488150E0282F332727FD3095421785
:1059A000530729F088838091FB070E944A5DDF91AD
:1059B000CF911F910F91FF90EF90DF900895FF928C
:1059C0000F931F93CF93DF93C82FD62FF42E122F50
:1059D000622F842F0E94E212FC01E53F81E0F8076C
:1059E00074F09BE09E0F9F1510F09CE09E0F40E32B
:1059F000490F202F6D2F8C2F0E94296307C0212F64
:105A000047E055E16D2F8C2F0E94DA63DF91CF9133
:105A10001F910F91FF9008957F928F929F92AF9266
:105A2000BF92CF92DF92EF92FF920F931F93CF938B
:105A3000DF93182FC091E9082AE0C29FE0011124EA
:105A4000C05FDA4F85E291E10E94F82443E0612FC4
:105A500087ED98E051D84091E9084F5C60E080E321
:105A60000E94B463B090D70878E0C72ED12CE3E051
:105A7000AE2EBD1003C09090FC0701C0912C82E0B7
:105A8000D81609F467C0E3E0DE1609F478C0F1E047
:105A9000DF1681F067E071E18C2D0E94116401E056
:105AA000911001C000E0292D48856C2D80E33ADB80
:105AB000888780C09110A092E8086CE3762E812C34
:105AC0008091D907881511F000E001C0092D40919F
:105AD000E9084F5F282D6C2D872D71DF992099F1F2
