:100000000C944B100C9473100C9473100C9473108C
:100010000C9473100C9473100C9473100C94731054
:100020000C9473100C9473100C9477160C94DD6A76
:100030000C941D6F0C942C6B0C9473100C94001783
:100040000C9465160C9473100C9473100C9473102C
:100050000C9473100C9473100C9473100C94731014
:100060000C94A06F0C9446170C94916B0C94EA6F4F
:100070000C9473100C9473100C94B4690C9473105A
:100080000C9473100C9473100C947310DC18E0181B
:10009000A518AB18B118B118B118D418D818DC18B5
:1000A000E018ED18ED18E4184823482348234823A6
:1000B00075236C236C236C236C236C236C236C23BF
:1000C00058235D235D23ED2EF72E0D2F5A2F992FE8
:1000D000F72F023005305F306330A333B833543428
:1000E000DD356636E4349F39E437E736EF36773767
:1000F000E638DE42B142B442B842BE42C242C742D2
:10010000634B724B7D4B934B9A4BA14BB04BC74B00
:10011000DF4B4B4C764C7E4C864C924CB74CC74CCC
:10012000F14C3E4D4A4D854D9D4DAE4DBA4DC64D9F
:10013000D24DF850C45BCB53F8584B54C45BC45BEE
:10014000C8575E5AC45BC45B0E5308514F552E68A6
:100150001D6817681F68236827681A682B6831684C
:10016000076E0A6E216E3C6E3C6E216E216E1A7116
:100170001C711F7124713571447152715C716C7105
:100180007C71817197719A719E71A071A271A77132
:10019000AB71B671BA71C271C971CD71CF71D371C2
:1001A000D571D771D971DD71E171E671EB71F071C3
:1001B000F571FA71204F6C642056657273696F6E29
:1001C00020454550524F4D202020434845434B2069
:1001D00053455454494E47532F43414C49420041E3
:1001E0006C61726D732044697361626C6564004573
:1001F0004550524F4D206C6F77206D656D004C4F10
:100200004144494E47000553746F70706564006D3A
:10021000537461636B206F666C6F770053776974FA
:100220006368205761726E696E671F506C656173F9
:1002300065205265736574205377697463686573CC
:10024000005468726F74746C65206E6F74206964FA
:100250006C651F5265736574207468726F74746C7A
:1002600065004D45535341474500707265737320D7
:10027000616E79204B657900507265737320616EF1
:1002800079206B657920746F20736B6970004F461D
:10029000464F4E20544873544825002D2D2D002DD7
:1002A0002D2D2D0000006428100703010000000020
:1002B000010101020202020101030020414C4552EA
:1002C00054000001020300020103030102000302C3
:1002D00001000452756420456C6520546872204109
:1002E000696C20004F4E20004F4646000354485290
:1002F000525544454C4549443049443149443241C2
:10030000494C47454154524E4C31204C32204C33DD
:10031000204C34204C35204C36204C37204C382093
:100320004C39204C41204C42204C4320454C8045C8
:100330004C2D454C8152558052552D525581414985
:100340008041492D41498147458047452D47458199
:10035000504231504232001B1E272D36394B4E631E
:100360006C7278878D939CB1B4C6C9D2D8E1E4533E
:10037000706C6173680080400000000000000000A5
:10038000000000000000000000000000000000006D
:10039000000000000000000000000000000000005D
:1003A000000000000000000000000000000000004D
:1003B000000000000000000000000000000000003D
:1003C00000000080C0E0E0F0F8F8FCFCFCF8F8F871
:1003D000F04000000000008080800000000000006D
:1003E0000000000000000000000000000080C0C00D
:1003F000E0E0E0F0F0F0E0C00000000000C0F8FF36
:10040000FF9F878383838383838383838383838320
:10041000838383838383838383038380838383832F
:10042000838383838383838383838383838383839C
:10043000838383C3E3733F1F0000000080E0F0F874
:10044000FCFEFFFFFFFF7F3F1F1F0F0783C3E1E19C
:10045000E0E0C0000E1F3F7F7FFFF3E0E080000080
:10046000000000000000000080F0FCFEFFFFFFFF26
:100470007F3F0F0301010100000080F0FEFFFFC776
:10048000C1C1C1C1C1C1C1C1C1C1C1C1C1C1C1C15C
:10049000C1C1C1C1C1C101C1F0FEFF3F0F070F0DB6
:1004A0000D0D1D191919193131313171616161E178
:1004B000C1C1C18100000080E0F8FCFFFFFFFF2FF9
:1004C000170F038180C0E0F0F8FCFEFFFFFFFFFF85
:1004D000FF7F010000000000000001010307070E7C
:1004E0001E1C3870E0F0F8FEFFFF7F1F0F030001B5
:1004F00000000000000000000000000000000000FC
:1005000000000000000000000000000000000000EB
:1005100000000000000000000000000000000000DB
:1005200000000000000000000000000000000000CB
:100530000000000000007EFFFFFFFFFFFFFBF8FC54
:10054000FCFEFF7F3F1F0F07C3FFFFFFFFFFFF7F83
:10055000070000000000000000000000000000C0D4
:10056000E0F8FEFFFF7F1F0F1F3D7CF8F8F0E080F2
:10057000000000000000000000000000000000007B
:10058000000000000000000000000000000000006B
:10059000000000000000000000000000000000005B
:1005A000000000000000000000000000000000004B
:1005B0000000000000000000010101010103070725
:1005C000070301000000E0FCFFFFFFFFFF1F030027
:1005D00000000000000000000000C0F078DE2713DB
:1005E000090E0703000000000000000001030F7F58
:1005F000FFFC7878F8000000000000000000000018
:10060000808080808080808080008080008080006A
:1006100000000000000080808080808080808080DA
:1006200080808080808080800000000000000000CA
:1006300000000000000000000000000000000000BA
:1006400000000080F0FEFFFFFFFF3F0F01000000F1
:100650000000000000C0E0381E0F03000100000091
:10066000000000000000000000000000000000008A
:100670000000000303010000000000000000000073
:100680000E0E02020202020303000F0F000F0F08FA
:100690000808080808080F0F08080808080F0F00C6
:1006A0000000000F0F00000000000000000000002C
:1006B000000000000000000000000000000000003A
:1006C00000C0F8BFFFFFFF1F7F0100000000000017
:1006D0000000F0FCFF7F7830000000000000000008
:1006E000000000000000000000000000000000000A
:1006F00000000000000000000000000000000000FA
:1007000000000000000000000000000000000000E9
:1007100000000000000000000000000000000000D9
:1007200000000000000000000000000000000000C9
:100730000000000000000000000000000000003089
:100740001C070E0F07010000000000000000000061
:100750000000000000000000000000000000000099
:100760000000000000000000000000000000000089
:10077000000000000000000000564552533A205689
:10078000312E312D1F444154453A2033302E313221
:100790002E323031351F54494D453A2031303A35EB
:1007A000313A34301F2053564E3A20657239782D35
:1007B000723831391F204D4F443A20204E542020AA
:1007C0002020003C06064F4E202020204F46462089
:1007D0002020424F54482020313553656373333015
:1007E0005365637336305365637356617269626C27
:1007F000005653000720382053656373313220536D
:1008000065637331362053656373001E03015341E2
:100810005658004E756D62657220566F696365208B
:100820005377005361666574792053776974636800
:10083000657300434F5059205452494D205B4D453C
:100840004E555D000D4F6E004C4F474943414C20C3
:100850005357495443484553003C010A436F756E52
:100860007420446F776E436F756E7420557020202E
:100870000054696D65721F54726967676572411F24
:1008800054726967676572421F54696D65721F52C1
:1008900065736574205377697463680020547970B8
:1008A000651F20436F756E7472791F42696E641FF5
:1008B00052616E6765003C02094C50342F4C503534
:1008C000202044534D326F6E6C792044534D322FAB
:1008D00044534D580044534D205479706500014EE7
:1008E00059000B4F7074696F6E0004486967684C5B
:1008F0006F7720003C00044E6F6E65003C0105439D
:10090000473032335944383239003C0205475245AA
:10091000454E424C554520444D303037003C02078F
:1009200053594D4158202053594D41583543003CAF
:10093000040759443731372020534B59574C4B52F9
:1009400053594D4158322058494E58554E204E4922
:100950004855492020003C010444534D3244534D36
:1009600058003C01054869736B79484B33313000BE
:100970003C0306466C79736B7956397839202056DA
:100980003678362020563931322020003C0D06467C
:100990006C79736B7948756273616E4672736B79AB
:1009A000204869736B792056327832202044534DA9
:1009B0003220204465766F20205944373137204B50
:1009C0004E2020202053796D615820534C54202014
:1009D0002043583130202043473032332042617960
:1009E000616E670050726F746F636F6C1F54797023
:1009F000651F506F7765721F42696E64202020204A
:100A0000204175746F62696E641F52616E67650084
:100A1000660103504F534E454700506F6C61726939
:100A200074790050504D2046724C656E0D6D5365C3
:100A300063000C52784E756D0004344348203643F1
:100A4000482038434820313043483132434831341C
:100A500043483136434800137553000650504D202B
:100A6000202050585820202044534D3220205050F0
:100A70004D31362050504D53494D4D554C54492021
:100A800053425553202000317374204368616E1F18
:100A900050726F746F000444521F024578706F1FCC
:100AA0001F015765696768741F1F44725377311FB0
:100AB000447253773200034869204D6964204C6FBB
:100AC00077006604042D2D2D2D3132302031323047
:100AD000583134302039302020005377617368203A
:100AE000547970651F436F6C6C6563746976651F1C
:100AF00053776173682052696E671F454C452044E7
:100B00006972656374696F6E1F41494C2044697254
:100B1000656374696F6E1F434F4C2044697265634F
:100B200074696F6E005245544131323300540406EB
:100B3000457870202020457846696E6546696E6567
:100B400020204D656469756D436F61727365005453
:100B500072696D20496E631F5472696D2053771F4F
:100B600048692E52657320536C6F772F44656C6112
:100B7000791F547261696E65721F4265657020430A
:100B80006E74005A01062020456E642043656E7421
:100B9000726500452E204C696D6974731F5468722C
:100BA0002E2044656661756C741F5468726F74748E
:100BB0006C6520726576657273651F5468726F7418
:100BC000746C65204F70656E1F542D5472696D1FD3
:100BD000542D4578706F2D4472006607032D2D2D1E
:100BE0005031205032205033204756344756354735
:100BF00056364756370044656661756C74205377E6
:100C00001F437573746F6D53746B4E616D65731F05
:100C10004175746F204C696D6974731F566F6C75E4
:100C20006D6520436F6E74726F6C00566F696365FB
:100C300020496E646578114D454E550083133C156F
:100C4000471534152E15271578131C151115721319
:100C5000BB16CC130815564100566F696365004DED
:100C6000454E55204C4F4E470044656C65746500F9
:100C7000566F6963652046696C65005402062D2D28
:100C80002D2D2D2D4E756D62657220417564696F35
:100C900000660104506C61794D757465005402065C
:100CA0004E6F202020204265666F72654166746534
:100CB0007220004E03072D2D2D2D2D2D2D486170F6
:100CC0007469633148617074696332486170746932
:100CD0006333000776603D76616C20763D76616C0B
:100CE00020200007280D2900506C617920536F7572
:100CF0007263651F4F6E206E6F2054656C656D6565
:100D00007472791F46696C655479706500536F750C
:100D10007263651F46756E6374696F6E1F56616CF2
:100D200075651F5377697463681F526174651F4846
:100D3000617074696300566F69636520416C61720C
:100D40006D00034D4F564520535449434B532F508C
:100D50004F54530005534554204D4944504F494E7C
:100D60005400035B4D454E555D20544F2053544174
:100D70005254006607044E4F4E454558543145586D
:100D80005432504330205047322050423720504791
:100D900035204C2D575200454C45207377697463BC
:100DA000681F41494C207377697463681F50423152
:100DB000207377697463681F5042322073776974B7
:100DC00063681F50473220496E7075741F50423758
:100DD00020496E7075741F4C2D575220496E7075E6
:100DE000740042616E644761700043616C004D7530
:100DF0006C7469706C696572001802036F66662016
:100E00002B3D203A3D00036D6F64650A2520737207
:100E100063202073770007536C61766500124247A8
:100E200000414E41000F504232000F5042310054F9
:100E300072696D2D202B00204C6566741F52696706
:100E400068741F0355701F20446F776E1F2045780C
:100E500069741F204D656E75004449414700537405
:100E600069636B5363726F6C6C00506F7453637281
:100E70006F6C6C0053706C617368204E616D65001F
:100E800053706C6173682073637265656E00416CAA
:100E900061726D205761726E696E67004D656D6F8E
:100EA0007279205761726E696E67005468726F7450
:100EB000746C65205761726E696E6700426174746C
:100EC000657279207761726E696E671F496E616322
:100ED00074697669747920616C61726D136D004379
:100EE000726F73735472696D1F5468726F74746C8F
:100EF0006520726576657273651F456E61626C650B
:100F00002050504D53494D1F4368616E6E656C20F3
:100F10004F726465721F4D6F646500204861707484
:100F2000696320537472656E6774680042040A42F4
:100F3000656570657220202020506953706B7220A7
:100F40002020204265657072566F69636550695351
:100F5000706B566F6963654D656761536F756E643D
:100F600020005406065175696574204E6F4B6579F3
:100F7000207853686F727453686F7274204E6F726A
:100F80006D20204C6F6E672020784C6F6E672000BC
:100F9000566F6C756D651F4265657065721F536F86
:100FA000756E64204D6F64651F20537065616B65BD
:100FB00072205069746368004C69676874207377A5
:100FC000697463681F4261636B6C69676874206948
:100FD0006E766572741F4C69676874206F66662050
:100FE00061667465721F4C69676874206F6E205368
:100FF000746B204D761F466C617368206F6E2062A3
:1010000065657000436F6E747261737400E4139BC6
:1010100013BC13CC13B313A713DC13D4139113898C
:1010200013C31322047C5E54546D0003457870454D
:101030007846466E654D65644372730011544F5493
:101040001F01544D45115453571F0153544B115315
:10105000542500035B4D454E555D20746F2072652D
:10106000667265736800746D72314C6174206D61D5
:10107000781275731F746D72314C6174206D696ED6
:101080001275731F746D7231204A6974746572121F
:1010900075731F746D61696E126D73005354415402
:1010A000000966726565004D4F44454C53454C0040
:1010B00020464D300A52455441004241434B555061
:1010C00020444F4E45004241434B5550005245533A
:1010D000544F52454400534156494E4700524553E0
:1010E000544F52494E47004C4F4144494E470052DD
:1010F0006573746F7265004261636B7570002046A2
:101100004D005377697463681F5472696D731F468D
:1011100061646520496E1F46616465204F757400E7
:10112000464C204D4F44450052414E4745204348D0
:1011300045434B20525353493A000642494E4449D5
:101140004E47004475706C69636174696E67206D09
:101150006F64656C0044454C455445204D4F4445F3
:101160004C004455504C4943415445204D4F444553
:101170004C00012B2A52004D495845520020202096
:1011800020202020202020202020200044454C45E5
:101190005445204D49583F00436C65617220414CD5
:1011A0004C206D697865733F00035945530B4E4FD2
:1011B0001F035B4D454E555D0B5B455849545D0023
:1011C0004D6178206D69786572732072656163681E
:1011D0003A2033321F1F5072657373205B455849A4
:1011E000545D20746F2061626F7274006601034F5A
:1011F00046464F4E20004E020841646420202020C5
:10120000204D756C7469706C795265706C616365A2
:1012100020004375727665000844696666001145D2
:1012200078706F0001557365204F75747075742068
:1012300020200001536F757263651F015765696750
:1012400068741F014F66667365741F0146697820D4
:101250004F66667365741F01456E61626C65457803
:10126000706F44521F015472696D1F1F1F01537725
:10127000697463681F014D4F4445531F01576172E4
:101280006E696E671F014D756C7470781F0144653F
:101290006C617920446F776E1F0144656C61792021
:1012A00055701F01536C6F772020446F776E1F01BC
:1012B000536C6F77202055700045444954204D49A8
:1012C0005820004F50005343092B0D2A122F0004C1
:1012D0004C314C324C334C344C354C364C374C380A
:1012E0004C394C414C424C430048010546697273ED
:1012F000744C6173742000536F757263651F1F4FC8
:1013000066667365741F4D756C7469706C6965727F
:101310001F44697669736F721F556E69741F536934
:10132000676E1F446563696D616C731F4F666673FA
:101330006574204174005B2D3E5D004356005052A1
:1013400045534554004355525645006A01032D2D1F
:101350002D494E560053575220003C02034431366B
:101360004438204C52503C0203416D654A6170453F
:101370007572566F696365004C2E537769746368A4
:101380006573004D697865720044696167416E61FB
:101390000044696167537774636800417564696FDD
:1013A0004861707469630043616C69627261746959
:1013B0006F6E00436F6E74726F6C7300416C61727C
:1013C0006D730048617264776172650047656E6590
:1013D00072616C0056657273696F6E005472616958
:1013E0006E657200446973706C6179005B4D454EA7
:1013F000555D205748454E20444F4E4500454449D1
:10140000540053454C4543540053454C2F454449E3
:101410005400434F5059004D4F56450044454C45EC
:101420005445004241434B555000524553544F528E
:1014300045004544495400494E5345525400434FDA
:101440005059004D4F56450044454C4554450043C6
:101450004C45415220414C4C00047349447873542C
:1014600048527352554473454C457341494C734738
:1014700045417354524E0012081200081C08080817
:101480001C0800000822004900220800000000009B
:10149000227F2200000008220049002208000008E4
:1014A000220049002208000000227F2200000000E4
:1014B00000082200490022080000081C0808081C37
:1014C0000800534300475600054665657420566F73
:1014D0006C74734465675F434465675F466D41683C
:1014E0002020416D7073204D65747265576174746E
:1014F0007300465643466D416D5718242F2F003315
:10150000383B01524554410050726F746F636F6CE9
:1015100000476C6F62616C5661727300536166655F
:1015200074792053777300437572766573004D6F3D
:10153000646573004578706F2F44720048656C696C
:10154000205365747570004C696D697473004D6F3C
:1015500064656C2053656C656374004D6F64656CE5
:10156000205365747570004C617374204D656E7501
:1015700000526164696F2053657475700053746123
:1015800074697374696373004265657020636F7575
:101590006E74646F776E004D696E75746520626558
:1015A000657000032D2D2D52746D45746D54746D4E
:1015B00041746D52454E527564456C655468724174
:1015C000696C503120503220503320000420204FCD
:1015D0004E204F4646424F544820414C4C4F4E43BC
:1015E0004500072D2D2D2D202020763E76616C2084
:1015F00020763C76616C20207C767C3E76616C7C2B
:10160000767C3C76616C414E44202020204F522055
:1016100020202020584F522020202076313D3D763A
:1016200032207631213D76322076313E76322020CE
:1016300076313C763220204C617463682020462D40
:10164000466C6F702054696D654F666676603D76B6
:10165000616C20004E616D6500065761726E31202D
:101660005761726E322043686565702052696E67FB
:101670002020536369466920526F626F742043686B
:1016800069727020546164612020437269636B74D5
:10169000536972656E20416C6D436C6B526174616D
:1016A00074615469636B20204861707463314861D0
:1016B000707463324861707463330054696D65728D
:1016C00000545245303132414747000354783D536E
:1016D000777200204142434445464748494A4B4CB3
:1016E0004D4E4F505152535455565758595A6162A6
:1016F000636465666768696A6B6C6D6E6F70717242
:10170000737475767778797A303132333435363789
:1017100038395F2D2E00FEFFFDF6F7F8F9FAFBFCD5
:10172000042D2D2D2D54494D3154494D32424154F3
:101730005447767231477672324776723347767203
:101740003447767235477672364776723700032D06
:101750002D2D783E30783C307C787C663E30663C7F
:10176000307C667C63312063322063332063342015
:101770006335206336206337206338206339206364
:10178000313063313163313263313363313463314A
:101790003563313600045031202050322020503340
:1017A000202048414C4646554C4C435943314359FF
:1017B00043324359433350504D3150504D325050C5
:1017C0004D3350504D3450504D3550504D36505093
:1017D0004D3750504D38434831204348322043481C
:1017E000332043483420434835204348362043487B
:1017F0003720434838204348392043483130434854
:10180000313143483132434831334348313443481E
:1018100031354348313653574348475631204756B0
:1018200032204756332047563420475635204756F6
:10183000362047563720544849530053776974631C
:1018400068205761726E696E670067656E777269AE
:101850007465206572726F7200454550524F4D207D
:10186000466F726D617474696E67004261642045F1
:101870004570726F6D204461746100434845434B6D
:10188000204D4F44454C2054494D45525300434848
:1018900045434B204D49582F445220534F555243F6
:1018A0004553004D4F44454C2020202020004D45FD
:1018B000202020202020202000454550524F4D2040
:1018C0006F766572666C6F7700E2AEA1A6A4A2C0C7
:1018D0002F25AF0000000000000000000000000005
:1018E000000000000000000000000B07000000C026
:1018F000C0C0C0C0C0C00000000000000000000068
:101900000000000000000006060000000080E078F3
:101910001E06181E0701000000F8FC8EC66EFCF8BB
:10192000070F1D181C0F07080CFEFE0000001818FA
:101930001F1F1818000C0E86C6EE7C381E1F1B19C0
:1019400018181806C6C6C6EEFC38181818181D0F49
:1019500007C0E0B0988CFEFE01010101011F1F7E4F
:101960007E6666E6C686060C18181C0F07F8FCE6AD
:1019700066E6CC88070F1C181C0F07060606C6E68D
:101980007E1E001C1F0300000038FCEEC6EEFC3873
:10199000070F1D181D0F0778FCCE86CEFCF8040C2F
:1019A0001D191D0F0700000030300000000000036B
:1019B000030000E0F89C869CF8E01F1F0101011F56
:1019C0001FFEFEC6C6EEFC381F1F18181D0F07F8B5
:1019D000FC0E060E0C08070F1C181C0C04FEFE065D
:1019E0000E1CF8F01F1F181C0E0703FEFEC6C6C60D
:1019F00006061F1F1818181818FEFEC6C6C60606CB
:101A00001F1F0000000000F8FC0E06CECCC8070F18
:101A10001C18181F0FFEFEC0C0C0FEFE1F1F0000D6
:101A2000001F1F0606FEFE06060018181F1F1818C6
:101A30000000060606FEFE060E1E18181F0F00FE0A
:101A4000FEF0381C0E061F1F03070E1C18FEFE00BA
:101A5000000000001F1F1818181818FEFC18701836
:101A6000FCFE1F1F0000001F1FFEFC70C080FEFE5A
:101A70001F1F0000030F1FF8FC0E060EFCF8070FD7
:101A80001C181C0F07FEFEC6C6EE7C381F1F000088
:101A9000000000F8FC0E060EFCF8070F1C1B1E0FC2
:101AA0001BFEFE86C6EE7C381F1F03070E1C18386F
:101AB0007CEEC6C68E0C0C1C18181D0F070606FE01
:101AC000FE06060000001F1F000000FEFE000000D2
:101AD000FEFE070F1C181C0F07FEFE000000FEFE96
:101AE00001070E180E0701FEFE008000FEFE1F0F0C
:101AF0000603060F1F1E3EF0E0F03E1E1E1F0301F0
:101B0000031F1E7EFEC0C0FE7E0000001F1F0000DF
:101B1000000686C6E6F67E3E1F1F1B191818180021
:101B2000000000000000181818181818180060604D
:101B30006060E0C0060F1F1B1B1F1FFEFEE060E081
:101B4000C0801F1F1C181C0F07C0E0E06060E0C0D1
:101B50000F1F1C18181C0C80C0E060E0FEFE070F71
:101B60001C181C1F1FC0E0606060E0C00F1F1B1B23
:101B70001B1B01C0F8FCCEC60E0C001F1F0000008E
:101B800000C0E0703070E0C003C7CECCEE7F3FFEF7
:101B9000FEC0E0E0C0801F1F0100001F1F000060AA
:101BA000E6E600000000181F1F180000000000E318
:101BB000E300307060607F3F00FEFEC0E0703818C8
:101BC0001F1F03070E1C18000006FEFE0000000089
:101BD000181F1F1800E0E060C060E0C01F1F000178
:101BE000001F1FE0E0C0E0E0C0801F1F0100001FD9
:101BF0001F80C0E060E0C080070F1C181C0F07E0CA
:101C0000F0703070F0E0FFFF0E0C0E0F07E0F07088
:101C10003070F0E0070F0E0C0EFFFFE0E0C06060D8
:101C2000E0E01F1F0000000000C0E0606060606036
:101C3000191B1B1B1B1F0E6060FEFE606000000076
:101C40000F1F181C0CE0E0000000E0E0070F1C1C58
:101C50000E1F1FE0E0000000E0E001070E180E0775
:101C600001E0E0000000E0E00F1F180E181F0F60F9
:101C7000E0800080E060181C0703071C18E0E0000B
:101C80000000E0E007CFCECCEC7F3F60606060609A
:101C9000E0E01C1E1E1B1B191900000000000000C4
:101CA000006F000007000700147F147F14242A7FB0
:101CB0002A12231308646236495522500005030096
:101CC00000001C2241000041221C0014083E0814A0
:101CD00008083E08080050300000080808080800FE
:101CE000606000002010080402003E49453E0000EC
:101CF000427F40006251494600414949360018146C
:101D0000127F0027454539003E49493200017905D7
:101D1000030036494936000649291E0000363600C0
:101D20000000563600000814224114141414144103
:101D300022140800020151090600060909067E095D
:101D400009097E7F494949363E414141227F41414F
:101D5000221C7F494949417F090909013E414949FE
:101D60007A7F0808087F00417F41002040413F0101
:101D70007F081422417F404040407F020C027F7F59
:101D80000408107F3E4141413E7F090909063E415A
:101D900051215E7F09192946264949493201017FAF
:101DA00001013F4040403F1F2040201F3F40304046
:101DB0003F631408146307087008076151494543DD
:101DC000007F41410002040810200041417F0004CF
:101DD000020102044040404040080408100820541A
:101DE0005454787F48444438384444442038444468
:101DF000487F3854545418087E0901020C5252523C
:101E00003E7F0804047800447D40002040443D00AB
:101E10007F1028440000417F40007C041804787C37
:101E20000804047838444444387C14141408081412
:101E300014187C7C080404084854545420043F447B
:101E400040203C4040207C1C2040201C3C40204046
:101E50003C44281028440C5050503C4464544C449A
:101E6000000836410000007F0000004136080008ED
:101E700008221C08081C22080804027F0204102003
:101E80007F201001020408102040804080080420B8
:101E90001002010000891112239B322446AD5736EF
:101EA00065BF74488CC19D5AAFD3BE6CCAE5DB7E5A
:101EB000E9F7F88110080193331A22A5562C47B789
:101EC000753E64C99C408DDBBF52AEEDDA64CBFF3A
:101ED000F976E802218B30100299132667AF763429
:101EE00044BD554AADC3BC588ED19F6EEBE7FA7C1A
:101EF000C8F5D983310A2091121803A7772E66B549
:101F0000543C45CBBD42ACD99E508FEFFB66EAFDF9
:101F1000D874C904428D5316619F702004A91532EC
:101F200027BB364CCEC5DF5EEDD7FC6888E1997AD9
:101F3000ABF3BA85520C4397711E60A1142805B308
:101F4000373A26CDDE44CFDFFD56ECE9986089FBB9
:101F5000BB72AA06638F7214409D512225AB3430A8
:101F600006B9174EEFC7FE5CCCD5DD6AA9E3B87899
:101F70008AF19B87730E6295501C41A3352A24B1C8
:101F8000163807CFFF46EEDDDC54CDEBB962A8F979
:101F90009A708B088481951AA793B62CC2A5D33E5C
:101FA000E1B7F04008C919522BDB3A644EED5F7679
:101FB0006DFF7C899400859BB712A6ADD224C3BF68
:101FC000F136E0C1184809D33B5A2AE55E6C4FF759
:101FD0007D7E6C0AA583B4188691972EE3A7F23C08
:101FE000C0B5D14229CB38500AD91B666FEF7E7439
:101FF0004CFD5D8BB502A499961087AFF326E2BD28
:10200000D034C1C3394A28D11A580BE77F6E6EF518
:102010005C7C4D0CC685D71EE597F42880A1913ACB
:10202000A3B3B2444ACD5B5669DF78600CE91D72F8
:102030002FFB3E8DD604C79FF516E4A9902081BBE7
:10204000B332A2C55A4C4BD7795E68E11C680DF3D8
:102050003F7A2E0EE787F61CC495D52AA1A3B03887
:1020600082B193466BCF7A5448DD59622DEB3C70B8
:102070000EF91F8FF706E69DD414C5ABB122A0B9A7
:10208000923083C77B4E6AD5585C49E33D6A2CF198
:102090001E780F00F67311241FBECFEFD0E1DEBF14
:1020A000CDBF11E0A0E0B1E0E4EDF9EE02C0059093
:1020B0000D92A231B107D9F71EE0A2E1B1E001C053
:1020C0001D92A536B107E1F710E2C6E9D0E204C0DF
:1020D0002297FE010E94B374C439D107C9F70E9448
:1020E000A6720C94E8740C940000E091510694E000
:1020F000E99FF0011124E80FF11DEE53FD4F84918B
:102100008F5F0895F8948091590D90915A0D7894AD
:102110000895E82FF0E0E555FD4F849108952AE0F9
:10212000829FC00111248B599D4F089590915306B1
:1021300091708091BC0586FB882780F989270895D6
:102140000F93022F24FF03C00F7E9DE201C094E293
:10215000411104C024E04FE952E00EC04530A0F424
:102160009091BC0594FF0BC0006194E0499FA001D1
:1021700011244559594F24E00E949D630DC02FEF53
:10218000240F42ED52E006C0941730F02BEF240FDD
:1021900045E957E10E94C1630F910895442311F06E
:1021A0004C5E01C040E0CCCFCF93DF93E5E8F1E097
:1021B00080917F06108291E0918381FF09C092E2B5
:1021C000928393E29383EF01259694E2948304C073
:1021D000EF01239692E0928382FF09C09FE19883EA
:1021E00090E29983FE01339691E29A8304C0FE0146
:1021F000319693E0988394E0908395E0918396E004
:10220000928384FF09C095E2938396E29483EF0161
:10221000269697E2958304C0EF01249697E0938376
:1022200085FF09C098E2988399E29983DE011396AD
:102230009AE29A8304C0DE01119698E0988399E0AF
:102240009C93FD0186FD02C0319604C032969BE24C
:10225000ED01998387FF03C08CE280833196DF0113
:102260008AE08D938F5F8631E1F78487CF018957AC
:1022700091408093570127E1258740E099270196F7
:10228000242F30E08217930754F0F901EB57FE4FEB
:10229000E081F0E0E85AFE4F40834F5FF1CF90912C
:1022A000830690FF0AC0809164008B7F8093640056
:1022B0008091650084608093650091FF02C0BF98A3
:1022C000C79ADF91CF91089587FF03C0819591E070
:1022D00001C090E0E82FFF27E7FDF095E85AFE4F98
:1022E000808191118195089587FF03C0819591E0C8
:1022F00001C090E0E82FFF27E7FDF095EB57FE4F78
:1023000080819111819508950F931F93CF93DF934F
:10231000D62FC42F022F16E0180F442339F0463170
:1023200041F04A3E81F448EE52E005C04BE952E0EC
:1023300002C044EE52E06D2F812FDF91CF911F91AB
:102340000F910C94D36347FF04C041E20E941063D5
:10235000C1952FEF2C0F273114F026EF2C0F4CEEE8
:1023600052E06D2F812F0E94C163DF91CF911F91A9
:102370000F9108950F931F93CF93DF93D82F162FAC
:10238000C42F022F4D3234F04DE682E18D0F0E94B2
:102390001063CC52202F4C2F612F8AEF8D0FDF91CD
:1023A000CF911F910F91B0CFDF92EF92FF920F93D9
:1023B0001F93CF93DF93D82F162FF42E27FF03C040
:1023C000E5E0F2E002C0E0E0F2E0C281D3802370F9
:1023D000E22E81E0821718F1C4306CF483E0C80269
:1023E000A001112442575D4F0F2D23E0612F8D2F47
:1023F0000E949D6318C0CD5F0F2D2C2F4EE457E136
:10240000612F8D2F0E94C163C0310CF4D6502F2D47
:1024100045E2612F82E18D0F0E94106304C082E0CB
:1024200028130AC004C0E11007C0C13029F42F2DC1
:102430004D2D612F8D2F9EDFDF91CF911F910F9139
:10244000FF90EF90DF900895873038F4E82FF0E0A8
:10245000EE0FFF1FEC5DF74F24C08C3050F184313C
:10246000C0F4482F50E0DA01AA0FBB1FA45FBE4F93
:102470002D913C91803148F4FA01EE0FFF1FE95D88
:10248000F94F80819181281B390BC901880F991F51
:102490000895843248F4E82FF0E0EE0FFF1FE45275
:1024A000F84F8081918108958E3218F484520C94F3
:1024B000F72280E090E008950E94A272882311F034
:1024C000A895FACF1092890D08951F93CF93DF93AB
:1024D000EC01162F0E94C462BE0188E10E94F863DD
:1024E00012FF04C067E182E10E940F7210FD11C06B
:1024F00011FF06C068E772E080E30E94F86306C03F
:102500004AE652E068E38CE10E940E644BEB52E035
:1025100002C042E652E024E060E086E1DF91CF9124
:102520001F910C94D36361E0D0DF0C9412670F937A
:10253000262F00E04CEE52E060E10E94C1630F9153
:1025400008951F93CF93DF93C6E110E08C2F0E9474
:10255000F867110F182BC150CE30C1F780917F065C
:1025600082FF12C08FE10E94A26824E0829FE001F6
:102570001124137CC12B84E00E94A26820E1829F79
:10258000C00111241C2F182B812FDF91CF911F9197
:10259000089570E0882399F090E0019725E0289F46
:1025A000F001299FF00D1124E60FF71FEE0FFF1F1A
:1025B000E05FFA4F808191818B509E4F0895FB011F
:1025C000E35DFB4F8081992787FD909508951F93C8
:1025D000CF93DF93D82F162FC4E0DD2391F0612F26
:1025E0008D2FD7DF9C01253F81E0380764F08BE019
:1025F000820F8D1710F08CE0820FC15029F0D82F78
:10260000ECCFC0E001C0CD2F8C2FDF91CF911F9177
:102610000895CF93C62FDBDF6C2FCF91BACF8E37C3
:1026200091053CF483382FEF920734F483E89FEF51
:1026300003C08DE790E008950895FF920F931F93D4
:10264000CF93DF938A01C62FD0E08823D9F0BFDF74
:10265000F82E8823B9F0C801E2DF2F2D30E0215099
:10266000310945E0429FF001439FF00D1124EC0F2A
:10267000FD1FEE0FFF1FE05FFA4F855F91409183D2
:10268000808305C0C801CBDFC35DDB4F888386E054
:10269000DF91CF911F910F91FF900C94315DAF921C
:1026A000BF92CF92DF92EF92FF920F931F93CF933F
:1026B000DF938C017B016A01A22EB0900B029B2D4F
:1026C0009F7D943439F080910208882309F498C0E2
:1026D000933479F4B19906C080913E01E801C80FA6
:1026E000D11D02C0E801219683E10E94057285E0B8
:1026F00010C0953419F0923409F088C0B19983C0A4
:1027000080913E01E801C81BD10984E10E94057255
:1027100084E00E94F867811168C0E114F104F9F4C3
:1027200081E0C816D104D9F480E6B81619F08EE21B
:10273000B81211C010920208C1E00115110509F08C
:10274000C0E0D0E08B2D0E94C3688EE2B81206C0B4
:102750001092380803C0C170DD2701C0B12C409130
:10276000410150914201C41BD50B80913808813042
:1027700071F440911402B19905C084E14802A001AE
:10278000112403C0552747FD5095C40FD51FCC1603
:10279000DD0644F48B2D0E94C36883E10E9405721C
:1027A000E6010AC0CE15DF053CF48B2D0E94C368FC
:1027B00084E10E940572E701C017D10749F1B19980
:1027C00003C08FEF80939A06209751F48B2D0E94BF
:1027D000B36817FF02C083E101C084E10E94057263
:1027E0008A2D83700E94315D13C0CC27DD27C01B6A
:1027F000D10B85E00E94C36884E00E94C3688DCF3E
:10280000953421F47BCFE80121977FCFE80185CF74
:10281000CE01DF91CF911F910F91FF90EF90DF904C
:10282000CF90BF90AF900895552747FD50957727DB
:1028300067FD7095992787FD909531CF2091FB0713
:10284000F3CF462F2091FB0760E0EECF462F50E0FC
:102850002091FB0760E070E022CF90914A01911136
:1028600003C0811106C00895811103C08FEF890F45
:1028700001C080E080934A018EEB80934901089566
:10288000E0914A01F0E0EE0FFF1FE55BFE4F918300
:1028900080838FEB809349010895809155062AEF3C
:1028A000829FC0011124880F991F20913A01309115
:1028B0003B012817390720F490933B0180933A019C
:1028C0000895EEE2FEE037A1303180F420A541E02A
:1028D000420F40A7DF01A20FB11DA20FB11D8D93C2
:1028E0009C93403108F010A63F5F37A3089590E015
:1028F0008C5F9E4FE6CF90E0E4CF8093160290E08D
:102900004097DFCF0F931F93CF93DF93EC0180911C
:102910005C0681FF07C180916D0686FF89C012E0C9
:1029200001E00E94A2698F3F2FEF920781F029A951
:10293000211104C08F31A9F709ABF3CF213011F475
:1029400019ABEFCF223069F78AAB19AAEACF8EA173
:10295000813041F53FA1332309F452C029A5FE017E
:10296000E20FF11DE20FF11D808191812F5F203177
:1029700008F020E029A731503FA32091C60121FD96
:10298000E0C097FD02C021E101C028E22BA32FE1A6
:102990002AA722E02BA78CA79DA718AA84E08FA7BF
:1029A0002EA32EC0811106C08091580D8D3340F1A9
:1029B00086E025C0823021F19AA99078833049F4CD
:1029C000992329F08BA181508BA3811119C084E038
:1029D00016C0843021F4992399F083E00EC085302D
:1029E00039F48BA181508BA381110AC081E007C00B
:1029F000863031F4992321F084E18BA385E08EA306
:102A00008EA1823009F49DC08BA98F5F8BAB8A3079
:102A100008F497C01BAA8DE18AA781E08BA798A133
:102A2000911101C080E08CA718AA83E08FA789C00C
:102A300098A189A1992311F0846001C08B7F89A39B
:102A40008EA1813081F5C79A2FA1222349F189A552
:102A500031E0380F39A7FE01E80FF11DE80FF11D35
:102A6000808191819DA38CA3303108F019A621505B
:102A70002FA32091C60121FD64C097FD02C021E172
:102A800001C028E22BA329A12C7F97FD226029A356
:102A900089A18BBBC7988FE18AA382E08EA351C026
:102AA00089A18BBB4DC081110CC0C79A89A18360DD
:102AB00089A38BBB8091580D8D3308F441C086E00B
:102AC0002FC0823009F43DC089A18BBBC79ABF9843
:102AD00000C0000000C086B38078BF9A9EA19330EA
:102AE00049F4882329F08BA181508BA3811128C040
:102AF00084E016C0943021F4882311F183E00EC0E5
:102B0000953039F48BA181508BA3811119C081E0DC
:102B100007C09630A9F4882399F084E18BA385E05F
:102B20008EA30EC08091830681FD0BC08091590653
:102B300086FB882780F998A1981711F0C79A01C0E1
:102B4000C798DF91CF911F910F91089590915106F1
:102B500090FD02C093E08927E82FF0E0EE5CF74F8C
:102B6000E081E7FDE95FE595E595E5951E1624F022
:102B7000EE2321F0E19502C080E801C080E0E8305A
:102B800008F0E7E0F0E0EC55FD4FE491EE2319F09A
:102B900099E0909355018E2B0895853030F46FEFB6
:102BA000680F8091EA0635DD24C08D3080F4E82F6F
:102BB000F0E0EE0FFF1FE85EF74F8081918197FDF7
:102BC000079653E0959587955A95E1F712C08D3198
:102BD00070F4E82FF0E0EE0FFF1FE651F84F808110
:102BE00091816AE070E00E946074CB0102C080E0D5
:102BF00090E015CD482F833021F0882321F0E82F75
:102C000003C0E0E001C0E3E0F0E0EE0FFF1FED5E87
:102C1000FE4F80819181443080F420916E0630E037
:102C200002C0359527954A95E2F720FF06C020E0BF
:102C300038E0A901481B590BCA0108951F93CF938F
:102C4000DF9310E0C0E0D0E0812FD4DFC80FD91FA0
:102C50001F5F1430C9F7C058DF4F8D2F90E0DF9110
:102C6000CF911F910895CF93809151068170C2E05A
:102C7000C81B8C2FBFDF6C2F0E94E73C2091BC0546
:102C800025FF05C00F964F9728F080E004C08131E2
:102C90009C4FDCF781E0CF910895E3E1F1E040E063
:102CA000842F806487B9369A3699FECF24B135B126
:102CB000369A3699FECF84B195B1820F931F8193D6
:102CC00091934F5F483061F7089578941F920F9267
:102CD0000FB60F9211248F93809112018F5F809312
:102CE00012018F910F900FBE0F901F90189578943E
:102CF0001F920F920FB60F9211242F938F939F93D1
:102D0000CF93DF93EF93FF93F89487B78F7B87BFC1
:102D100078942091CA018091CC0190915C0688231F
:102D200059F090FF07C08091640E820F8093640E6B
:102D300087FF02C01B9A01C01B9891FF50C0809171
:102D40006D0686FF22C0EEE2FEE087A5882309F427
:102D500046C080910A02811142C080919B0085FF8C
:102D60000DC080A991E0980F90ABEF01C80FD11D65
:102D70008AA580939C0087A5815087A787A581118C
:102D80002EC086A1823059F526C08091420981115A
:102D900026C0EEE2FEE086A1823009F583A18823F9
:102DA00011F081501BC021A1C79A82A180FD09C0EA
:102DB0002D7F84A195A196FD2260880F991F95A370
:102DC00084A381E082278BBB81A3C79882A1815015
:102DD00082A3811104C083E086A385E083A3F894D5
:102DE00087B7806487BF7894FF91EF91DF91CF918F
:102DF0009F918F912F910F900FBE0F901F9018955C
:102E000078941F920F920FB60F9211242F933F9335
:102E10004F935F936F937F938F939F93AF93BF93E2
:102E2000EF93FF9381B7845681BF88EC91E00E94B5
:102E30004E700E94D2688091910D82608093910DB6
:102E4000E2E0F1E08081815011F0808304C084E6EB
:102E5000808381E081838281815011F0828305C06B
:102E60008AE08283838181608383FF91EF91BF91A8
:102E7000AF919F918F917F916F915F914F913F9112
:102E80002F910F900FBE0F901F90189578941F925E
:102E90000F920FB60F9211242F933F934F935F938E
:102EA0006F937F938F939F93AF93BF93EF93FF9312
:102EB0002091800030918100F89480917D008F7D79
:102EC00080937D0078948091970690919806A9014F
:102ED000481B590BCA019695879530939806209305
:102EE0009706409123019C01215A3F402F3D3E42CD
:102EF00030F12FEF240F283028F59C012152334068
:102F000027373540F0F424E620931502E42FF0E053
:102F1000EE0FFF1FEE5DFE4F9C012C5D3540509182
:102F20005706565F529FC001539F900D11246AE0CF
:102F300070E00E946074718360834F5F03C041E062
:102F400001C040E040932301F89480917D008062AD
:102F500080937D007894FF91EF91BF91AF919F9105
:102F60008F917F916F915F914F913F912F910F9032
:102F70000FBE0F901F90189592EC980F81E097303C
:102F800008F080E00895FC018081882359F08432A4
:102F900018F085520C942623815056DA40E060E008
:102FA0000C94177208959C0155E0359527955A9514
:102FB000E1F7280F391FAC01440F452F441F550B73
:102FC000241B350B892F990F990B8595820F931F21
:102FD00008959DE7980F9B3F88F08E57E82FF0E00B
:102FE000EE0FFF1FEE5FFA4F808186171CF460839F
:102FF000862F0895481714F44083842F089544E6DB
:103000006CE9E7CF982F80915C0284FF03C081E0D8
:10301000923009F080E0089549E284029001112481
:10302000359527953595279587FD815C86FB880F1B
:10303000880B80F9A901481B510987FD5395CA01E6
:1030400008954F925F926F927F928F929F92AF926C
:10305000BF92CF92DF92EF92FF920F931F93CF9385
:10306000DF93782E642E882309F4D6C086E1781683
:1030700021F09AEE791203C0D1C081E0D5C0872D2E
:10308000992787FD909597FF03C0919581959109A8
:10309000873191056CF00E943868982F81E01714F1
:1030A0001CF49111C1C0BAC0992309F4BDC0B6C0C7
:1030B000872D87FD81958A3040F4825F0E94F867F2
:1030C00017140CF4B1C091E0A5C08A50E82EF12C81
:1030D0006701CC0CDD1CE601CE0DDF1DCF55DB4FAB
:1030E0008A818F7009F49AC094E0961530F4F70144
:1030F000EC57F94F908191708AC05880498009D867
:10310000811107C08FEF850D9FD98C01898184DFE4
:103110000EC0823041F48FEF850D96D98C018981E4
:10312000815092D904C080E090E000E010E02A8154
:103130002F70822E912CF4013197EE30F10508F0BA
:1031400071C0EA5BFF4F0C94B17417FF35C0119545
:103150000195110931C017FF33C01195019511096F
:103160002FC001E0060D402F60E0852D6ADF182F8B
:10317000402F60E0842D65DF2A812F70253061F4B7
:10318000112309F44FC0882309F44CC08A81829529
:103190008F7059F591E031C0263019F41111F6CF36
:1031A000F2CF982F91271EC008171907D9F5EECF37
:1031B0000817190759F736C0801791073CF332C03A
:1031C000081719071CF32EC0F601E255FE4F918136
:1031D0009095991F9927991F05C0F701EC57F94F52
:1031E000908191709111D2CF08C089300CF08F5F1F
:1031F00041E0460D60E025DF982F2A812F7030E0F6
:103200002C30310524F4F701EC57F94F9083171453
:103210003CF081E0892708C0862F06C080E004C00A
:10322000892F02C090E0E9CFDF91CF911F910F91DC
:10323000FF90EF90DF90CF90BF90AF909F908F90D6
:103240007F906F905F904F90089540E060E0F9CEDE
:1032500080913E06FADF811113C080913A0190916E
:103260003B01892B69F410924E0E8091580D90917C
:103270009906981749F0809399068EE29EE042CB1A
:1032800081E080934E0EF1CF0895CF93DF93C62F48
:1032900020914802222339F090934A0280934902F8
:1032A000DF91CF91089564E010D90E941267C11197
:1032B00003C080913B0601C089E10E94E066FCD812
:1032C000D1E00E94A272882319F0DF91CF91F4C857
:1032D0008091910D833019F4A8951092910DCC2313
:1032E00019F0D0934E0E02C010924E0EB1DFE9CF0E
:1032F00060E0CBCFE0914A01E43018F08FE092E03B
:10330000F7CF2FEB20934901EF5FE0934A01F0E004
:10331000EE0FFF1FE55BFE4F918380830895809140
:10332000500680FD16C0B9DC9EDC811112C066E03B
:1033300081E492E0CAD80E941267BED8AEDC88DF72
:10334000A89591DC811105C00E94A2728823B1F377
:10335000B3C80895DF92EF92FF920F931F93CF931C
:10336000DF938091500681FD8FC0C091FA04F090E8
:103370000C0680917F0682FD0CC08C2F88738830EC
:1033800041F0803131F0803221F0C77CC860C093B9
:10339000FA04E12CDD24D394D4D8182F85E20E94BE
:1033A000A268082FD12FDC276E2D62608CE192E09D
:1033B0008CD8D0FF03C060E082E0B9D8D1FF03C051
:1033C00061E087E1B4D880917F0682FF1AC08D2F1B
:1033D0008C7051F0612F70E07595679575956795C4
:1033E00063706B5E8CE2A3D88D2F8073F9F0612F30
:1033F00070E044E0759567954A95E1F763706D5FFD
:1034000013C0D2FF03C062E08CE291D88D2F887385
:1034100069F013FF02C063E007C014FF02C064E05C
:1034200003C015FF03C065E081E481D880917F0669
:1034300084FF0AC0802F8F25837061F0602F637036
:10344000655E86E574D806C0D6FF03C066E086E5F3
:103450006ED80F2DD7FF03C067E08BE668D80E94B7
:103460001267DD2021F028D834E0E32E01C0E12CE2
:103470001C1302C00F1541F00E94A272811104C0FA
:10348000E7DEA895D12C88CFDF91CF911F910F91C6
:10349000FF90EF90DF9008958111FFD980913A015C
:1034A00090913B01009709F0019720913901222367
:1034B00061F020915D064AEF249F90011124220FB4
:1034C000331F8217930708F4C90190933B0180933F
:1034D0003A01BECE1F93CF93DF93C8E1D5E090E0D1
:1034E000888111E0190F882329F0AFDE882311F0BD
:1034F000812F05C0912F2A96143091F780E0DF913B
:10350000CF911F9108958F929F92AF92BF92CF92C9
:10351000DF92EF92FF920F931F93CF93DF93EC0113
:10352000A62EB12C6501CC0CDD1CF601E95EFD4F29
:10353000008111818981882309F457C08D809E8084
:10354000888181500E9424127C018981853038F461
:10355000833050F4813079F0823091F039C0853079
:10356000A1F0863071F134C0F7FE03C0F194E1940C
:10357000F108833029F481E08E149F043CF125C0CA
:1035800081E0E814F90414F120C08881F5DC882377
:1035900069F08AE09701829F7001839FF00C1124EB
:1035A000F4018E9F40018F9F900C1124E818F908B8
:1035B000FFE1EF0EF11C81E02FE3E216F10430F0A1
:1035C00004C081E0E814F90409F080E0E82EF12C51
:1035D0008A81811104C0EF2829F081E01BC035DE0B
:1035E0008111F9CF00E010E014C08A81882331F006
:1035F0002CDE81110BC00FEF1FEF0CC08B818330CD
:1036000040F09C81907681E029F403C080E091E055
:1036100002C080E090E0892BF501E95DFD4F5F017C
:10362000F080209105019B8121FD2EC0933059F43B
:103630008A810E94A268F81689F1FF24F394F80E9B
:1036400000E010E02CC0813041F4F11003C0292FBC
:103650002D7FB1F0913089F421C0F1E0FF120CC050
:103660008FEF890F823040F480E000E010E092306C
:10367000B1F4E2E0FE2E13C080E0913219F40CC0E8
:1036800000E010E0F82E0BC0FF24F394913209F013
:10369000F12C0FEF1FEF03C00FEF1FEFF12CF5011F
:1036A00080838C8187FD03C0F1100AC07BC08881B4
:1036B0008530D0F3855283D7882309F473C0F4CFC3
:1036C00017FF04C08B81833028F46CC001151105ED
:1036D00009F055C08C818076803211F4CE0153DC24
:1036E0008C81877059F1813021F52F81822F988547
:1036F0008C3FF1E09F0740F040E050E060E070E078
:1037000084E0820FE2D60DC0853F21E0920748F0A9
:10371000FC01EE0FFF1FE85EFE4F8081992787FDB9
:1037200090952F2D30E021503109820F931FC9D879
:1037300005C060E070E08F810E940A728C81807603
:10374000803411F4CE011FDC8C81282F287181F088
:10375000869586958695837090E0029724F02831AF
:1037600021F48FE003C08DE001C08EE00E9405725D
:103770008B8183508E31A0F00FEF1FEF13C0101616
:10378000110684F40F5F1F4F8B813AE0839FC001C5
:1037900011244397081719072CF000E010E002C02D
:1037A00001E010E0F601E95EFD4F11830083DF9137
:1037B000CF911F910F91FF90EF90DF90CF90BF902E
:1037C000AF909F908F9008951F93CF93DF93C4EC99
:1037D000D5E010E0612FCE0196DE29961F5F1830EC
:1037E000C9F7DF91CF911F9108959F92AF92BF9239
:1037F000CF92DF92EF92FF920F931F93CF93DF93BD
:10380000109237088091120102B79091120189132A
:10381000F9CF10E0182B41DA8EE587B91BBA8FE19A
:103820008ABB00C099B38FEF8ABBECE0F2E08781DE
:10383000882311F080E202C0892F807E8483292FA3
:10384000207C8081281759F08074880F907831810E
:10385000891711F0315001C03F5F3183208382818D
:103860009381891711F0838381838091590D909101
:103870009306282F291B20933C0180939306809167
:103880000A02811106C060E08AED97E00E94AC4711
:1038900001C0A89580913C01882309F4CCC2C4E3FF
:1038A000D1E080910008882319F0815080930008AE
:1038B000C5D92B813C818217930741F09C838B8370
:1038C0001A82198281E0809339012DC060915206DD
:1038D000665F49F180913D01823328F188818F5FD5
:1038E0008883803100F189819A8101969A83898346
:1038F000188247E751E0649F9001659F300D1124C5
:103900002817390780F48F719927019761F4809106
:10391000C6018D7F8093C60186E00E947D146DE212
:1039200080E10E940F720E9466310E948130809176
:103930001502882319F081508093150280E00E94BF
:10394000835D0E94C4620E948C67D82E80910A0217
:103950008111B4C13D2D3F70A32E4AEFA40EC0913A
:103960005D02C43021F0C33019F4C4E001C0C8E0E6
:1039700057E05A1508F495C08D2D807F803209F4E8
:1039800090C08A2D86950E94751090916D0690FDCD
:1039900004C0CC24CA94C80E03C0E4E0CE2EC81ADA
:1039A0006C2D8091EA060E94E712B82E6C2D0E94C1
:1039B00009137C01C1110CC0EC0197FF04C0CC2796
:1039C000DD27C81BD90BD595C795D595C795CF5F72
:1039D00082E0C8120FC080915C0280FD02C0912C71
:1039E00003C099249394C2E00E949610882319F092
:1039F000C19501C0912CDD27C7FDD095A0FE03C065
:103A0000CE0DDF1D04C0F701EC1BFD0BEF0120976D
:103A100021F08D2F8F2587FF11C091100FC0EF2847
:103A200069F040E050E06C2D8B2D0E941D138D2D10
:103A30000E94C36886E10E940572C8C39E01245893
:103A40003F4F293F310548F4AE016C2D8B2D0E946C
:103A50001D136C2FC7FF18C016C01C161D061CF4C2
:103A60004DE750E002C043E85FEF6C2D8B2D0E94C4
:103A70001D13CE0183589F4F8B3F910508F0A6C3BD
:103A80006C2F1C160CF4619567FD6D5F659565954F
:103A9000772767FD7095645C7F4F85E10E940A720D
:103AA00095C38D2D8F7B71F480919A06B1998AC34D
:103AB0008F3F31F08F5F883C19F48FEF6DEBD62E7E
:103AC00080939A06EFE3F1E08091300890913108FD
:103AD00020813181281B390B37FF02C0215E3F4F07
:103AE00055E0359527955A95E1F72115310561F097
:103AF00024813581281B390B37FF02C02F5F3F4FD0
:103B0000359527959183808395838483809153068F
:103B100085FD04C08091FE07882311F020E030E08D
:103B200033832283CCE0D2E02D818981821B8F3FB9
:103B300009F480E087FD8F5F85958887982F990F1E
:103B4000920F9D838D29A8DCF0906906F7E0FF0EA7
:103B5000E0914A01F0E0EE0FFF1FE55BFE4F208190
:103B600031812953354409F040C080915A088111B0
:103B70003CC02885222371F08E81332727FD3095A4
:103B8000F901E80FF11D87FDFA95CF010E940F138F
:103B90008E831886E091C7048E2F807E31F1E295E6
:103BA000E695E770F0E0E430F10554F4EE0FFF1F06
:103BB000E65DF74F208131813C5F60E078E00CC02A
:103BC000EE0FFF1FE650FB4F2081332727FD309576
:103BD00023583F4F6AEF70E047E0429FC001439F88
:103BE000900D11240E944C74F62E80911602F81646
:103BF00019F08F2D0E947D148091590687FF3CC0DB
:103C0000809156018823C1F1809155018823B1F13B
:103C10008091920687FD03C08F5F8093920682E0B9
:103C20000E94A615982F9F7789F0209192069217EF
:103C300028F510929206D11021C0D82ED094DD1C08
:103C4000DD24DD1C83E68D19D82E18C083E00E9488
:103C5000A615982F9F7791F020919206921770F4F5
:103C600010929206D1100AC0D82ED094DD1CDD240B
:103C7000DD1CF4E6DF0E02C01092550181E0809356
:103C80005601E0901202FF24E7FCF094C3E0D5E077
:103C90008881882371F0853031F00E94CD159927F5
:103CA00087FD909501C0C7010E940F13FE01319757
:103CB0008083229625E0C131D20751F780914902D5
:103CC00090914A020097B1F060E00E9465120E9454
:103CD000A27290919106992339F0811128C0109217
:103CE0004A021092490223C0882309F181E080939F
:103CF00091061DC010929106C0914901CC2331F06C
:103D00001092490187E10E940572DC2E84E18093C4
:103D10003E01D0920B02E0914A01F0E0EE0FFF1F4E
:103D2000E55BFE4F0190F081E02D8D2D09950E94FD
:103D30001267C091650088EC91E00E943A70882378
:103D400011F084E105C08091630E882321F0815039
:103D50008093630E06C08091630086958170809386
:103D6000620E8091620E80934702882309F42CC270
:103D70008091590685FD28C2CF7EC0936500809151
:103D8000580D8F71823009F054C0809121019091BB
:103D90002201AC01A4E0440F551FAA95E1F797FD5D
:103DA0000796BC01F3E075956795FA95E1F72091C8
:103DB0003D06332727FD30952A5F3F4F629FC001A4
:103DC000639F900D729F900D1124840F951F209179
:103DD000530626FD05C0609100017091010102C0EB
:103DE00060EF70E00E944C7480913D01680F711D7E
:103DF0006F5F7F4F7595679560933D018091900649
:103E0000805F80939006811114C080913C066817F2
:103E100080F4623370F06EE281E10E940F72809153
:103E2000530683FF06C082E390E090933B018093AA
:103E30003A01109239018EE587B9369A3699FECF4C
:103E400084B195B190930101809300018091910D0F
:103E5000833019F4A8951092910D2091120182B728
:103E6000909112012913F9CF90E0922B801B910BB6
:103E700020910801309109012817390720F4909307
:103E800009018093080180910501882309F419C173
:103E900000919506109196060F5F1F4F109396069E
:103EA000009395068091C7048F7150E1B52EB81A22
:103EB000F7E1FB1508F477C0EB2CF12CE701CC0FF0
:103EC000DD1FC853DB4F3FE03B1528F4E701CC0F63
:103ED000DD1FC45DDA4F8881C82EC294C69427E0E6
:103EE000C222D98045E04C1550F05AEF5D1538F4E8
:103EF000ED2DF0E0EE0FFF1FEE5EFC4FD0808F71D6
:103F000009F44FC0A2D9A82E80910501F701E15D07
:103F1000FD4F7F0181FD43C08C2D857049F4808168
:103F2000811106C0AA2021F08D2D90E00E9461141D
:103F30008FEF8C0D823058F4F7018081813079F554
:103F4000A1102DC0F2E0CF1226C0D39424C025E0EA
:103F50002C1548F4F7018081811121C0AA20F9F0C5
:103F6000898174D31CC0F2E0FC15C8F4AA20B9F012
:103F700024E0C21631F035E0C31631F066E970E096
:103F800005C06CE271E002C068E572E0C8010E9401
:103F90004C74892B21F48D2D90E00E946114F7015F
:103FA000A082B39485CF01EA14E0B4E8AB2EB6E06A
:103FB000BB2ECEEACC2EC1E0DC2EE12CF12CF80198
:103FC0009280892D8F700E9489108330D9F5F60177
:103FD000C081D181209771F4F801C081C7FD06C06E
:103FE000C095FAE0CF02E00111241BC0DD27C7FD18
:103FF000D09517C0D7FF14C0219699F4F701EE555C
:10400000FB4FC081C7FD06C0CF5F2AE0C202E001BE
:10401000112406C0DD27C7FDD095C095D09501C0FD
:104020002197892D807F59F0892D82958F70893055
:104030000CF08F5F0AD9811102C0CFEFDFEFF601DC
:10404000D183C083F501C081F80182818F708C30EB
:1040500071F48081FAD8811109C0F701EE55FB4F48
:104060008081F3D8882319F0C0E001C0C1E0F801D5
:1040700082818F708D3091F48081E7D8882359F048
:10408000C1FD0CC0F701EE55FB4F8081DED88823BF
:1040900021F0C3E003C0CD7F01C0C2E0F501C193B0
:1040A0005F010D5F1F4FF3E0EF0EF11C22E0C20E27
:1040B000D11C34E2E316F10409F081CF85DB1092C4
:1040C000050180910301882309F482C020919406A0
:1040D0002F5E822F8F7090E00C970CF0207F209342
:1040E00094068091C7048F71A0E1FA2EF81ACBE4F0
:1040F000D2E0E12C422F4073D42E522F5F70C52E98
:10410000822F8077B82E207FA22EEF1409F450C0A2
:104110008E0103581D4FF8018081982F907C9034B8
:10412000A9F4D11013C0880F880F859585958DD877
:10413000882361F080915C0680FF05C0FE01E25893
:10414000FD4F808101C081E00E940572F8018081ED
:10415000982F907C903849F5880F880F8595859524
:104160008731B4F08751813039F018F0823039F05E
:104170001CC0B1101AC006C0C11017C003C0F0E2C5
:10418000AF1213C0FE01E258FD4F80815FD20DC017
:10419000D1100BC05AD8882341F0FE01E258FD4FE0
:1041A0008081805890E00E946114E3942296ADCF04
:1041B0001092030180915501882351F08150809322
:1041C000550106C080E07CCCC061D7CDD12C6CCC31
:1041D000DF91CF911F910F91FF90EF90DF90CF90E3
:1041E000BF90AF909F900895282F30E0883058F00E
:1041F0002850310949E0429FC001439F900D11248E
:10420000875A9B4F089545E0429FC001439F900D00
:1042100011248F5C9B4F0895813641F40E94C3683E
:1042200081E00E942D1482EF9DE464D860EC71E17E
:1042300080E10C94F863CF93C82F80918F0D80FF9D
:1042400003C06AE371E102C068E271E188E10E94A3
:10425000F863C13629F410928F0D80E00E942D146E
:104260008091D80881508093D808811103C081E0E3
:104270000E940572CF910895CF93DF93EB01E7E59C
:10428000F8E08F3B19F49091570803C08E3B21F45E
:1042900090819150988310829281992321F091818D
:1042A0009F779083128290819923A1F0813211F03F
:1042B0008E3871F520910208211108C09150988321
:1042C00010820E94C36887E10E9405721092020862
:1042D00080E01EC09881843621F49417C0F4995F61
:1042E00016C0853621F4973090F0975010C0803674
:1042F00011F08E3261F49F5F9083906891830E94E9
:10430000C36810920B021092D90790E080E0988366
:10431000DF91CF9108951F93CF93DF93182FD62F5E
:10432000C42F662329F06FE0842F0E942114C82F28
:1043300080915C024C2F83FF02C0440FD06250E09A
:104340002D2F612F80E60E94FB658C2FDF91CF918E
:104350001F910895FF920F931F93CF93DF93182F10
:10436000F62E0AE08AE0189FE0011124CB59DD4FB8
:104370002FE130E0211B3109029FA001039F500D66
:104380001124BE01CE010A960E94C074FF2049F09C
:10439000BE016A5071094AE050E0CE010E94C0742B
:1043A0000DC0FE0111920A95E9F78091E308888318
:1043B000898384E68A838F8188608F831093E508E0
:1043C00082E0DF91CF911F910F91FF900C94315DAE
:1043D000EF92FF920F931F93CF93DF93E62E142F4C
:1043E000EC0188E0F82E00E0FE01659174918F2DBC
:1043F0000E94F8630E1540F4FE013E9645915491DB
:104400006F2D85E40E940E640F5F229688E0F80EFF
:10441000073051F74FE360E083E40E94AE6411235C
:10442000B1F0612F660F660F660F183028F06853E1
:1044300020E04BE385E403C020E042E480E0DF912C
:10444000CF911F910F91FF90EF900C943464DF9106
:10445000CF911F910F91FF90EF9008950F934430EB
:1044600051F490915A029F70913029F445E553E13F
:104470000F910C94D363022F242F40E257E10E9446
:10448000C1630F9108959C01220F331F280F391F1C
:104490009595879595958795280F391F95958795BB
:1044A0009595879595958795820F931F08954296C8
:1044B00043E7489F9001499F300D1124C901E6E070
:1044C00095958795EA95E1F70895CF92DF92EF925F
:1044D000FF920F931F93CF93DF937B018A01D090BC
:1044E000370895E09D1508F45FC091E09D0D90930D
:1044F0003708EBE08E9FE0011124C257DA4F888124
:10450000882349F081500E9424129C01442737FDE2
:104510004095542F03C020E030E0A901D092370825
:10452000DE80FD2DF870CF2ED3FC0AC089819A81E0
:10453000AA2797FDA095BA2F280F391F4A1F5B1F86
:10454000AB81B0E011960E941E742C8130E02F5F89
:104550003F4F442737FD4095542F0E949574CC203F
:1045600051F089819A81AA2797FDA095BA2F280F2B
:10457000391F4A1F5B1FD0FE07C0509540953095EC
:1045800021953F4F4F4F5F4FE114F10419F08D819A
:10459000F70180830115110529F08E8186958370BE
:1045A000F8018083C90102C080E090E0DF91CF91E3
:1045B0001F910F91FF90EF90DF90CF90089581E0D1
:1045C0000895E82FF0E0EA5EF84EE491862F9927EF
:1045D00087FD909583589F4FEE5FE23038F42AE0D4
:1045E000AC01249FC001259F900D11240895E82F50
:1045F000F0E0EA5EF84EE491E03F29F1ED3F4CF443
:10460000EE0FFF0BEA5EFA4F8081992787FD9095A8
:104610000895ED3FA1F0BCF0EF3F09F0A4F48E2F18
:10462000992787FD909502962FE0289FF001299FFA
:10463000F00D1124E75CF74F8385948508958091F0
:104640003D0190E0089580E090E00895CF92DF92E0
:10465000EF92FF92CF93DF9300D0CDB7DEB7F82E65
:104660001A821982C4DFEF2DF0E0EA5EF84E249141
:10467000422F552747FD5095652F752F415F5F4F9E
:104680004F30510590F54C5A5F4FFA010C94B174BC
:10469000AE014F5F5F4FBE016E5F7F4F8FE0820FB5
:1046A00014DFEA81F0E0E650FB4EE491EA831DC09E
:1046B00024E22A8321E0298318C06CE370E00E9481
:1046C00060746B017C0146E260E0C6010E941772D3
:1046D000C70125E32A8309C0E22FEE0FFF0BEA5E34
:1046E000FA4F8081992787FD90954A8169810E94C0
:1046F00017720F900F90DF91CF91FF90EF90DF90A6
:10470000CF9008950F939FE0499FF0011124E75C3B
:10471000F74F43855485022F0E9439660F91089503
:104720008F929F92AF92BF92CF92DF92EF92FF92C1
:104730000F931F93CF93DF9300D0CDB7DEB7F82E42
:10474000D62EC22EB32E102F80E28A83E42FFF27AD
:10475000E7FDF095EA5EF84EA4908E2D8170982EBC
:10476000E0FE20C0AFE0AA0DA43008F08CC08BE0C2
:10477000A89FD0011124FD01EB56FA4F80818823B8
:1047800009F481C0AF0100E124E08F2D0E949D63F8
:1047900012FD03C008E10F0D06C00CE10F0D88EFFC
:1047A000D80E01C00F2D8E2D8870882EE3FC1F7B44
:1047B00081EFA8160CF43DC084EF8A152CF482E03A
:1047C0008A0D8230F8F035C0AE014F5F5F4FBE01F9
:1047D0006E5F7F4F8FE08A0D78DE2981213011F4E2
:1047E000106203C0223009F41063EA81F0E0EE5059
:1047F000FB4EE491EA83E7FE02C08C2D9B2DC82E70
:10480000B92E17C012FD02C08CEF01C082E0800FEC
:104810009110865F1770012F212F4C2D5B2D6D2D70
:1048200083500E943966E3E3EA0DEA838AEFF80ECB
:104830000AC0882071F18DE38F0D212F4C2D5B2D47
:104840006D2D0E94FB658E2D867069F0E2FE04C01E
:104850008AE08F0D1B7F02C08091450D212F4A8178
:104860006D2D0E9410638A810F900F90DF91CF9180
:104870001F910F91FF90EF90DF90CF90BF90AF907E
:104880009F908F9008954F5F20E06D2D8F2DE6DD76
:104890007FCF802FD2CF0F931F93CF93DF93C82F5B
:1048A000D62F042F122F45EC54E10E94D36340E32E
:1048B000400F212F6D2F8CE08C0FDF91CF911F9136
:1048C0000F910C941063EF920F931F93CF93DF938C
:1048D000C42F122F2E2DDE2DD3709DE7940F9B3FFA
:1048E00080F043E84C0F8251D6DFDD2359F122E0FE
:1048F00042E850E06EE770E08C2F90E00E944F138A
:104900000CC0552747FD50950E94FB65DD23D1F073
:10491000402F612F8C2F0E941E14C82F80910B02F4
:104920008D3B81F48DE78C0F8B3F40F0EC2FF0E056
:10493000EE0FFF1FEA5FFB4FC08101C0CEE782E0B0
:104940000E94315D8C2FDF91CF911F910F91EF90DD
:104950000895EF920F93E22E0DE723E8B4DF0F9155
:10496000EF900895CF93DF939EE0899FE00111249B
:10497000CB50DC4F8C850E942519882339F08D851A
:104980000E942519811104C081E003C080E001C0AC
:1049900082E0DF91CF910895942F9695691B242F83
:1049A000891B0C949F669091140281E0191624F0E3
:1049B000911101C080E0819510921402089521E0C8
:1049C000AC0160E080E00C94D3630F931F93CF930E
:1049D000C62F0E94FB65B8018C2FCF911F910F91BC
:1049E0000C94F863EF92FF920F931F93CF93DF9392
:1049F000E82E142FFB01F490EB012296319644919E
:104A0000222381F08091FA07882321F08091020807
:104A1000882351F02091FB0760E0812F0E9414143D
:104A2000182F02C000E002C00091FC07212FAE0148
:104A30006E2D8F2D0E94C163812FDF91CF911F9129
:104A40000F91FF90EF900895982F862F242F492FD4
:104A50006CEE71E1C7CF0F931F93CF93DF93182FA5
:104A6000D62F022FBA018D2F0E94F863C1E0402F8C
:104A70006D2F8C2F811BE8DFC81B8C2FDF91CF910E
:104A80001F910F910895982F862F242F492F6BE4A3
:104A900073E1A8CF0F9390915A029F7021E091305B
:104AA00009F020E000E04BEC56E10E94C1630F9159
:104AB0000895442321F050E08E5E0C94FB6548EE8F
:104AC00052E00C94D363EF92FF920F931F93CF9316
:104AD000DF93EC01062FF42E1091D907A0912C083A
:104AE000B0912D0820912E0830912F08EFE3F1E0CE
:104AF000868197818A1B9B0B97FDCF9666E09595E3
:104B000087956A95E1F7482F8093FF078085918507
:104B1000821B930B97FDCF9656E0959587955A95F6
:104B2000E1F7982F8093FD07442311F0B783A68304
:104B3000992311F0318720878091FE07811104C0ED
:104B40008091530685FF06C01092FF071092FD0763
:104B50001092FE078091FF07811108C08091FD0728
:104B6000811104C082819381892B11F00E944D1420
:104B7000E090E8088FEFF81609F44DC080913808EE
:104B800081112DC08091E008882319F01092E0086F
:104B90001E2D09DF18166CF41E1510F41F5FC9F4E2
:104BA00088818F1518F48F5F888301C0188210E008
:104BB00010C0882371F011110BC08881882319F06F
:104BC0008150888301C0F88281E08093E00801C0B1
:104BD00011500E3271F481E0809338080AC08130A0
:104BE00041F40E3221F080910208811102C010922E
:104BF00038088091D807B1990BC08F3F19F08F5FAB
:104C00008D3338F091E0909302089093380801C0FA
:104C100080E08093D807E092FA0780910208811122
:104C20002CC08091FD078823A1F04881481B47FDD7
:104C300040E08F2D90E0242F332727FD3095281753
:104C400039070CF04F2D4883E11608F41E2D109201
:104C5000FD078881882389F08091FF07882369F008
:104C6000181B17FD10E08E2D90E0212F332727FD14
:104C70003095281739070CF01E2D003679F190F485
:104C8000023409F46BC028F40132E9F10E3231F13B
:104C900084C0043409F442C008F46EC0053409F439
:104CA0004DC07BC0053609F44BC040F4033609F40F
:104CB00066C0B0F5023609F454C06FC00E3801F179
:104CC0000F3B39F0013809F068C01092020881E00A
:104CD00022C018821092020810E05FC08FEFF81611
:104CE00009F45BC081E090910208911180E080930B
:104CF0000208882309F451C081E0809338084DC030
:104D00008EE80E94C36880910208882319F01092EF
:104D1000020843C080E00E942D143FC01E15E9F137
:104D2000EE20D9F180910208811137C01E1510F4D0
:104D30001F5F01C010E010920B022FC0112369F118
:104D4000EE2059F180910208811127C0112319F03A
:104D5000EE24EA94E10E10920B021EC088818F159A
:104D6000E1F080910208811118C088818F1510F43C
:104D70008F5F0DC018820EC08881882371F08091EA
:104D8000020881110AC08881882319F08150888324
:104D900001C0F882E11608F41E2D209102082111AD
:104DA0000AC031E08091410190914201892B09F4C0
:104DB00030E0832F01C081E0809301081093D90770
:104DC000222311F082E001C081E08093FC07109261
:104DD000E808DF91CF911F910F91FF90EF90089518
:104DE000AF92BF92CF92DF92EF92FF920F931F93F9
:104DF000CF93DF93C82F81E195E1E1DD4AE06C2F8D
:104E00008BED98E060DEC090DB08B090D90786E0BB
:104E1000CE3211F0C03671F48C1578F489EF8C0D18
:104E20008093E9088C2F0E94C3688AE09BE40E946B
:104E30007A1962C08C1508F45FC081E08093E8089D
:104E4000E12CF12C18E065EC74E1812F0E94F863ED
:104E5000AE2C41E34E0D612F8CE00E949B63E70175
:104E6000CC0FDD1FCE5FDA4FD12CCA1005C0BD10AC
:104E700003C00091FC0701C000E080910208882374
:104E800009F486C0D1101BC0002329F062E2898199
:104E90000E942114898329812D3018F443EA55E1B9
:104EA00005C02D3140F42D5F45E957E1612F8CE3BA
:104EB0000E94C16315C02D514FEC52E1F7CF002382
:104EC00031F04DE763E888810E941E148883488191
:104ED000552747FD5095202F612F8CE60E94FB65DA
:104EE000D39482E0D812C1CF185F8FEFE81AF80A86
:104EF000103409F0A8CF41C089EFC80E0EE815E0C4
:104F000071E3E72EE8E0FE2E66EC72E18F2D0E9441
:104F1000F8634E2D6F2D8CE00E949B63E80120E02A
:104F200048816F2D88E10E94A01049815A816F2D20
:104F30008BE40E9429664B8150E04F5F5F4F6F2DDD
:104F400080E60E9429664C8150E04F5F5F4F6F2DD5
:104F50008EE70E94296688E0F80EE394055F1F4FF4
:104F600088E2F812D1CF6C2D660F660F660F685F6E
:104F700020E04EE780E00E943464DF91CF911F91E2
:104F80000F91FF90EF90DF90CF90BF90AF9008957A
:104F9000D1109DCF80CF1F93CF93DF93C82FD62FF3
:104FA000142F47E16BE2F8DC43E06AE28C2F0E94A9
:104FB000AE6443E06BE28FEF8C0F0E94AC64812FF4
:104FC00069EF0E943F74382F375D8D2F67E00E9494
:104FD0003F748C0F25E045E0632F8250DF91CF9125
:104FE0001F910C947F66CF92DF92EF92FF920F9306
:104FF0001F93CF93DF93C2E3D8E0498168818AE2AF
:10500000CADF4A816B8186E5C6DFC4E2D8E0289614
:10501000AAE3FA2E0DE510E0B7E3CB2E8991999122
:105020009C5FB8010E946074DD24D394D60EEC2CF2
:10503000E61A4D2D6E2D8F2D0E94AE644D2D6E2DD6
:1050400081E08F0D0E94AE644D2D6E2D82E08F0D9C
:105050000E94AE6485E0F80E89E4F812DFCFDF919C
:10506000CF911F910F91FF90EF90DF90CF90089517
:1050700046E353E168E388E60C940E640F931F93B4
:10508000CF93DF93D82F162FC42F022F47FF08C0CE
:1050900041E28AEF8D0F0E94106386E08C1BC82FBF
:1050A0002C2F4EE457E1612F8D2F0E94C163DF91B9
:1050B000CF911F910F9108950F931F93CF93DF937B
:1050C000162F042FC62FD0E0AE014F5F5F4F202F69
:1050D000682F86E60E94FB65002329F06FEFCE0162
:1050E0000E942614182F812FDF91CF911F910F91CD
:1050F00008950F93CF93DF93C42FD02FD27001FF69
:1051000003C00E94BA1102C00E94841100FF41C076
:10511000DD23B9F1CD3274F084ED8C0F0E9464115F
:105120002091570130E0280F311D87FD3A9521501D
:10513000310907C08C2F0E946411282F332727FDC7
:10514000309580915701482F440F4250C1E06C2F99
:10515000681B822F0E941E1490915701482F5527DB
:1051600047FD5095292F30E0421753073CF0C91BEB
:105170008C0F0E947411CCE2C80F0BC00E947411F6
:1051800007C040915701642F61958C2F0E941E1417
:10519000C82F8C2FDF91CF910F910895FF920F931D
:1051A0001F93CF93DF93182FF62EEA01022F498128
:1051B000453249F4298522952695277049E554E121
:1051C0000E94C16311C020610E94A0108981855195
:1051D000803150F48F8186FF07C0202F43EC52E1CD
:1051E0006F2D812F0E94D363DF91CF911F910F917B
:1051F000FF90089580919B03882329F08CE091E231
:105200000E947A1981E00895CF93DF93C82F88E038
:105210000E94F86369EA71E188E20E94F863C1368E
:1052200071F028F4CE3269F0C03659F012C0CE3891
:1052300031F0CF3B71F480E00E9405720AC0D2E0E9
:1052400001C0D1E08C2F0E94C36881E00E942D1420
:1052500001C0D0E08D2FDF91CF910895CF93909131
:10526000D6079F3F19F468E971E102C06CE871E16B
:10527000CBDF813019F0823019F127C0C091D607F9
:10528000CF3F19F40E94E5691BC08C2F0E948F103C
:105290002FE130E02C1B3109CAE0C29FA001C39F5F
:1052A000500D1124BC01665F7F4F0E94C074EBE972
:1052B000F3E0DF011D92CA95E9F782E00E94315DBB
:1052C00082EF9DE4CF910C947A19CF9108950F93BA
:1052D000CF93C82F4FE06EE578E08091D3070E940E
:1052E000765C00E12AE04EE558E060E181E00E9452
:1052F0009D634FE360E182E40E949B638091D40749
:10530000882319F062E671E102C065E571E18C2F36
:105310007BDF813019F08230F9F024C08091D4070E
:105320008823A9F083E491E10E9493128091D3072E
:105330000E94BE5C882339F087E10E94057282E0FA
:105340008093D40709C080E00E94057205C0809157
:10535000D3078F5F0E946B608AE49AE2CF910F912E
:105360000C947A19CF910F910895DF92EF92FF92EA
:105370000F931F93CF93DF93EC01062FD42EF62EBD
:1053800018E0E12CFF20B9F0F0FE0EC02D2D4DE706
:1053900051E1612F82E10E94CE63AE01612F88E16D
:1053A0000E940E64E394185FF694FE0184912196A6
:1053B0008111FBCFE7CFCD2DCC0FCD0DCC0F2AEF38
:1053C000210F4C2F67E082E10E949F6644EF4C0F53
:1053D00060915B08660F660F660F685F20E088E1EA
:1053E0000E943464E0DA282FCAE5D8E099818B81E5
:1053F000882351F03091580D36FF08C081508B83BF
:10540000811104C018821CC08FEF8B8380910B0226
:10541000813681F028F4803249F08E3239F012C0A2
:105420008336C9F088F08E3829F00CC018821B82B0
:1054300081E01AC00E94C36810920B0218821B827E
:1054400082E012C012162CF4EA949E1530F49F5F8D
:1054500004C0222339F0911191508B81882311F0DF
:105460008FEF8B83998380E090915B089F5F20E0B2
:1054700000FF02C0915021F006952F5F2830C1F740
:1054800020935C08DF91CF911F910F91FF90EF90D7
:10549000DF900895DF92EF92FF920F931F93CF93C7
:1054A000DF93C82F87EA90E18ADAF090D2088091E2
:1054B0005A08811105C04FE06C2F82ED98E003DBA4
:1054C00061EA70E180E00E94F8630E94915FAC01A4
:1054D00060E086E60E9429661091D2088091D40788
:1054E000823021F41092D1081092D40780910308E1
:1054F00091E0980F191728F4123068F08FEF810FA0
:105500000BC094E0980F911738F48CEF810F8B301B
:1055100018F08AE001C080E080930308082FD0E1F2
:10552000EE24E3941013E12CDD24D394D00E2E2D21
:105530004D2D6D2F82E10E942B6680913A06081353
:1055400005C04AE26D2F81E00E949B634FE06EE54B
:1055500078E0802F0E94765CEE2031F08091D108B7
:10556000882311F001E101C000E12FE04EE558E091
:105570006D2F88E10E949D63D85FD03411F00D2D0E
:10558000CFCF80915A08882309F477C08091D20840
:1055900090913A06981302C0D9E501C0DEE70E9457
:1055A000A75C811101C0D6E980915C0682FFDF73A0
:1055B0004AE06D2F8DEF93E1D8DE813009F09CC079
:1055C000D0915C08D11105C088EA90E50E94401492
:1055D00093C09FEF9D0F923060F50091D208009329
:1055E0003A0680938E0D8C2F0E94C3680E942D5E18
:1055F00000933A06802F0E943C5E809105018260F4
:105600008093050181E00E94315D0E942D5E0E9421
:105610008F190E94AA19809155020E9477140E9446
:105620008C6F80915A08823079F2D23009F055C0DF
:10563000CBCFD53031F48C2F0E94C3681092D407A1
:1056400004C0D33049F48093D4071093D30787E67E
:1056500099E20E947A1950C0D63019F480936208FA
:1056600004C0D73039F4109262081093660889EAB2
:105670009EE2EFCF8093D1083FC0C63638F4C436DF
:1056800088F4C036C1F0C13641F036C0C13829F1C6
:10569000CF3B39F1CE3681F50EC08091D1088823F9
:1056A00059F10FC090913A068091D208981709F4E9
:1056B0008BCF82E00AC0109202088091D108882323
:1056C00019F01092D10818C081E080935A088C2FED
:1056D0000E94C36810925B080FC081E00E942D14E5
:1056E0000BC01092D10810925A0880913A0680930C
:1056F000D20881E00E94835D8091D1088823F9F06F
:10570000CF2DDD27C7FDD095812F90E0C817D90791
:10571000B1F061E0610F81E08F0D0E944A608091DD
:105720003A06181303C0F0923A0606C090E0C81774
:10573000D90729F410933A0681E00E94315DDF9188
:10574000CF911F910F91FF90EF90DF900895CF922E
:10575000DF92EF92FF92CF93DF93FC01EB019C016C
:10576000DC010E94FF739B01AC01DE010E941474F6
:10577000272F382F492F5527DF010E9414746B0102
:105780007C013CE0F694E794D794C7943A95D1F71E
:1057900024E630E02C1B3D0B0E94FF736E5C7F4FB4
:1057A0008F4F9F4F6C0D7D1D8E1D9F1D24E630E099
:1057B00040E050E00E947374C901DF91CF91FF90E7
:1057C000EF90DF90CF9008951F93CF93DF936115F3
:1057D000710519F1192F111F1127111F19F091953A
:1057E0008195910977FF0FC0719561957109C0E0AE
:1057F000D4E09E01281B390BC901A9DF9E01281B9B
:10580000390BC90101C0A3DF112329F02227332757
:10581000281B390B01C09C01C901DF91CF911F9159
:105820000895EF920F93CF93DF93382F862F642F35
:10583000922F332319F02091FC0701C020E0C09182
:10584000E6084EE0C49FE0011124CB50DC4F9336B4
:1058500029F4032F4C854DDC8C8724C0923629F423
:10586000032F4D8546DC8D871DC0E02FF0E0E90F4A
:10587000F11DE90FF11DEE0FFF1FEE0DF11DEC0FF5
:10588000FD1FEF01011106C0E22E04E62CE948815C
:105890001AD807C048814C59E22E04E620E013D8FC
:1058A00084568883DF91CF910F91EF90089590E017
:1058B000E92FF0E0ED52F94EE491E81721F0EE23E4
:1058C00021F09F5FF5CF892F089580E008958234FD
:1058D00030F4E82FF0E0ED52F94E8491089580E223
:1058E0000895DF92EF92FF920F931F93CF93DF9370
:1058F000F82E162FEA01E22ED02E64E576E1812FF4
:105900000E94F86300E12E2DAE01612F82E40E9417
:105910009D63DD2099F18F2D880F8F0D880F2091C9
:10592000020846E0612F8E5B0E9434644E2D440FC6
:105930004E0D440F4C5F6FEF610F29E080E40E9431
:105940009F66809102088823C9F0CF0DD11D888100
:105950008111ADDF2D2D41E460E00E941414B7DF0A
:10596000488150E0282F332727FD309542175307F1
:1059700029F088838091FB070E94315DDF91CF91F0
:105980001F910F91FF90EF90DF900895FF920F937A
:105990001F93CF93DF93C82FD62FF42E122F622F91
:1059A000842F0E94C912FC01E53F81E0F80774F0E2
:1059B0009BE09E0F9F1510F09CE09E0F40E3490F67
:1059C000202F6D2F8C2F0E94106307C0212F42E0E3
:1059D00055E16D2F8C2F0E94C163DF91CF911F91F4
:1059E0000F91FF9008957F928F929F92AF92BF92F6
:1059F000CF92DF92EF92FF920F931F93CF93DF939B
:105A0000182FC091E9082AE0C29FE0011124C05F6D
:105A1000DA4F80E291E10E94DF2443E0612F87EDBD
:105A200098E051D84091E9084F5C60E080E30E9423
:105A30009B63B090D70878E0C72ED12CE3E0AE2E60
:105A4000BD1003C09090FC0701C0912C82E0D816D5
:105A500009F467C0E3E0DE1609F478C0F1E0DF1670
:105A600081F062E071E18C2D0E94F86301E09110F9
:105A700001C000E0292D48856C2D80E33ADB888742
:105A800080C09110A092E8086CE3762E812C809162
:105A9000D907881511F000E001C0092D4091E908EF
:105AA0004F5F282D6C2D872D71DF992099F1809102
:105AB000D90788112FC080910108882359F18E01E0
:105AC000080D111D080D111DF801E080F180FBE0AB
:105AD000EF1AFEEFFF0A24EFE21621E0F20624F4AB
