:100000000C941E010C943B010C947F040C943B0156
:100010000C943B010C943B010C943B010C943B0170
:100020000C943B010C943B010C943B010C943B0160
:100030000C9484050C943B010C943B010C943B0103
:100040000C94362F0C943B010C940E050C94E00498
:100050000C943B010C943B010C943B010C943B0130
:100060000C943B010C943B01FF0A040B090B0E0B93
:10007000130B180B1D0B220BBA0CD30CA30CDA0CB0
:10008000A10CA50CD30CA30CDA0CA10C771C371C0B
:10009000491C711C7A1C7D1C961CA01C7E1E7E1E99
:1000A000801E821E821E841E841E821E821E821E4E
:1000B000821E821E861E861E801EEC2DF22DFF2DB6
:1000C000122E172E062E0C2E1C2E212E262E2B2EF7
:1000D000302E352E3A2E0A5A14641E6E287832823B
:1000E0003C8C469650A0A05096468C3C8232782894
:1000F0006E1E64145A0A0A5A50A0146446961E6E64
:100100003C8C28783282823278288C3C6E1E96464F
:100110006414A0505A0A28780A5A50A014641E6E1B
:100120003C8C32824696964682328C3C6E1E64141B
:10013000A0505A0A782850A028780A5A1E6E3C8C83
:100140003282469614646414964682328C3C6E1E4B
:100150005A0A7828A05050A046963C8C28780A5A13
:1001600032821E6E146464146E1E82325A0A78281B
:100170008C3C9646A05046963C8C50A028780A5A53
:100180001E6E32821464641482326E1E5A0A7828FB
:10019000A0508C3C964646960A5A3C8C146450A05B
:1001A00028781E6E328282326E1E7828A050641427
:1001B0008C3C5A0A964646960A5A50A03C8C28789F
:1001C0001E6E32821464641482326E1E78288C3C57
:1001D000A0505A0A9646FF42001400FFFF0000009C
:1001E0000001210500509E4B0002162B1200628078
:1001F00080000A32C30F13C300FF00003B00174703
:10020000800301451800010FFFFF63FF0FFFFFFF91
:10021000FFFFFFFFFFFF0504FFFFFFFFFFFF2BFFB7
:10022000FF6280FFFF0AFFFF0717FFFFFFFFFFFFCF
:10023000FFFF47FFFFFFFFFFFFFFFFFF11241FBE70
:10024000CFEFD8E0DEBFCDBF14E0A0E0B1E0E4E145
:10025000F4E602C005900D92A237B107D9F726E067
:10026000A2E7B4E001C01D92A231B207E1F70E94FB
:100270003B300C9408320C9400008F929F92AF9206
:10028000BF92CF92DF92EF92FF920F931F93CF9383
:10029000DF9300D000D0CDB7DEB7F82E84E190E038
:1002A0000E94E031803FC1F4F11016C044E050E0FC
:1002B0006AE070E0CE0101960E94D0318A81CB8045
:1002C000D12CE12CF12C7601DD24CC24D82A898193
:1002D000C82A8C81F82A42C084E10E941D308C011A
:1002E00085E10E941D306C01B801882777FD80955B
:1002F000982F2AE0660F771F881F991F2A95D1F73C
:10030000EE24D7FCE094FE2C6C297D298E299F29B0
:100310000E944A306EEF7EEFCB010E9452304B01BB
:100320005C016EEF7EEFCB010E9452307B01DD2439
:10033000CC24C80CD91CEA1CFB1CC982DA82EB82D3
:10034000FC8244E050E06AE070E0CE0101960E9439
:10035000E83160EF84E190E00E94F231C701B6011C
:100360000F900F900F900F90DF91CF911F910F91F1
:10037000FF90EF90DF90CF90BF90AF909F908F90C5
:100380000895CF92DF92EF92FF9280910C05811138
:1003900021C0C090EF05D090F005E090F105F090FD
:1003A000F2050E94802FC616D706E806F90608F067
:1003B00046C085B190E2892785B98091EF0590917B
:1003C000F005A091F105B091F2058C509E4FAF4F12
:1003D000BF4F2DC08091CD049091CE04892B11F494
:1003E0002D982DC080914F0587FF02C02D9A27C000
:1003F000C090EF05D090F005E090F105F090F20587
:100400000E94802FC616D706E806F906C0F485B10B
:1004100090E2892785B98091EF059091F005A09130
:10042000F105B091F2058C599F4FAF4FBF4F8093AC
:10043000EF059093F005A093F105B093F205FF90BE
:10044000EF90DF90CF900895CF92DF92EF92FF92DE
:10045000CF93DF93EC01B19B0BC0F89480918400A3
:10046000909185009093890080938800789402C0D1
:10047000B19BFECF0E948C2F6B017C01FE01099580
:10048000EC01F2E3CF0ED11CE11CF11CC80ED91E09
:10049000E11CF11C0E948C2F6C157D058E059F05BB
:1004A00028F5C1308DE7D80788F0CE01805D9740F0
:1004B0000E94D72FF89480918400909185008056F7
:1004C000904F90938900809388000DC0F89480919C
:1004D000880090918900CC0FDD1FC80FD91FD093E1
:1004E0008900C0938800789482E086BBDF91CF9129
:1004F000FF90EF90DF90CF9008951F93CF93DF93FD
:1005000090911D0580914F0595FF02C0886001C044
:10051000877F80934F0580911D05807C90914F05CA
:10052000882311F0906101C09F7E90934F059091B8
:100530001E0580914F0597FF02C08B7F01C084602C
:1005400080934F0580911F0580930E0580930501D0
:1005500080911D0590910C0589278F7541F480913C
:100560001E058F7720910D05821709F471C09F71C8
:1005700090930B0580911E058F7780930D058091D8
:100580004F05826080934F0580911E0590E064E0E6
:10059000959587956A95E1F7877080930F0520916F
:1005A0001E052F708091010690910206A09103060E
:1005B000B0910406820F911DA11DB11D8093050607
:1005C00090930606A0930706B093080680911D0538
:1005D00080930C05E4EAF5E08DEFAFE1B5E013E0C0
:1005E000180F183018F01BEF180F1196ED01219617
:1005F00011962D913D914D915C911497012E04C05F
:1006000056954795379527950A94D2F73770442722
:100610005527A5E0B0E00E944931A3E09695879563
:1006200077956795AA95D1F7645A7C4F619371933A
:1006300085E0E43CF80719F0812FDE01D0CF8091EE
:100640004F058E7F80934F05DF91CF911F910895C5
:1006500080911D0587FFBACF97FDB8CF80914F05D8
:10066000826080934F05B2CFCF93DF93EB019A0165
:10067000E82FF0E0EE0FFF1FEC55FA4F80819181DB
:10068000880F991F880F991F63E070E00E94DA308D
:10069000609570956883F9017083DF91CF9108951B
:1006A000E82FF0E0EE0FFF1FEC55FA4F208131816B
:1006B0002D3D87E0380738F42C3D83E0380730F4CF
:1006C0008CED93E008958CED97E00895C9010895AD
:1006D000AF92BF92CF92DF92EF92FF920F931F9350
:1006E0000E945003BC0180E090E01F921F921F9275
:1006F0002FEF2F93A12CB12C65011CEDE12E17E0FB
:10070000F12E00E010E02CED33E040E050E00E94DC
:100710007630862F0F900F900F900F901F910F91B2
:10072000FF90EF90DF90CF90BF90AF9008950E9420
:100730006803982F87FD03C08FE7891B08950895EC
:10074000AF92BF92CF92DF92EF92FF920F931F93DF
:10075000CF93DF931F92CDB7DEB7A62E49830E94B9
:100760005003B12CC12CD12CBC0180E090E01F9231
:100770001F921F9249814F931CEDE12E17E0F12E3D
:1007800000E010E02CED33E040E050E00E947630D5
:10079000862F0F900F900F900F900F90DF91CF91B9
:1007A0001F910F91FF90EF90DF90CF90BF90AF908F
:1007B0000895AF92BF92CF92DF92EF92FF920F9384
:1007C0001F930E945003BC0180E090E01F921F9293
:1007D00023E02F932FEF2F93A12CB12C6501A3942D
:1007E0001CEDE12E17E0F12E00E010E02CED33E0DF
:1007F00040E050E00E9476300F900F900F900F90E5
:10080000CB011F910F91FF90EF90DF90CF90BF90A1
:10081000AF90089590937F05809380057093810534
:100820006093820581EC8093830508959091D404B0
:100830009F5F9C3008F090E0E92FF0E0EF5EFA4F08
:1008400080839093D4048091C10080628093C10022
:100850000895CF92DF92EF92FF920F931F93CF9361
:10086000DF931F92CDB7DEB7182F8EE799830E94D2
:100870001604C12E9981D92EF12C10E2E12E8601A9
:10088000F60180818D57823038F48DE70E9416047E
:10089000F60180818E258083FFEFCF1ADF0AF801F1
:1008A00080810E941604F394F9E0FF12E8CF8EE7EE
:1008B0000F90DF91CF911F910F91FF90EF90DF90FC
:1008C000CF900C9416041092C50089E08093C40068
:1008D0008091C2008E628093C2008091C00087FF29
:1008E00003C08091C600F9CF8091C10080698093D8
:1008F000C1008091C10088608093C10008951F925B
:100900000F920FB60F9211242F933F934F935F9343
:100910008F939F93EF93FF932091840030918500F4
:1009200080917A0490917B04A901481B590BCA015C
:10093000883E53E0950780F1893E42E1940740F0FC
:100940001092040180914F05806480934F0527C069
:10095000409104014F3F19F196958795E42FEE0FD2
:10096000FF0BEC57FA4F91838083808191818C3506
:10097000934018F48CE593E007C0808191818D3518
:10098000984020F08CE598E09183808381E0840F8B
:100990008093040140311CF08FEF80930401309369
:1009A0007B0420937A04FF91EF919F918F915F9147
:1009B0004F913F912F910F900FBE0F901F90189560
:1009C0001F920F920FB60F9211248F939F93EF9364
:1009D000FF938091D3049091D404981769F08F5FAE
:1009E0008C3008F080E0E82FF0E0EF5EFA4F908165
:1009F0009093C6008093D3049091D404891305C0CA
:100A00008091C1008F7D8093C100FF91EF919F91F4
:100A10008F910F900FBE0F901F9018951F920F92FD
:100A20000FB60F9211248F939F93AF93BF93EF93C1
:100A3000FF938091C0008C7109F055C08091100522
:100A400081111CC08091C600853509F052C080918B
:100A500010058F5F80931005809184009091850030
:100A60008C59964E90938B0080938A0084E086BBCD
:100A700080916F00846080936F003BC0E09110050F
:100A800081E08E0F80931005F0E08091C600EB5C52
:100A9000FA4F8083809110058A3158F180916F0060
:100AA0008B7F80936F0090914F0590FD20C0109236
:100AB000100580911005893190F4E0911005F0E067
:100AC000A0911005B0E0AA5CBA4F8C91E35EFA4F9A
:100AD0008083809110058F5F80931005EACF91602D
:100AE00090934F0504C08091C6008093100510922A
:100AF0001005FF91EF91BF91AF919F918F910F9052
:100B00000FBE0F901F9018951F920F920FB60F9265
:100B10001124109210050F900FBE0F901F90189582
:100B20005C985D9899E0915051F087FF02C05D9A02
:100B300001C05D985C9A00005C98880FF4CF5D9AC4
:100B40000895CF93DF931F92CDB7DEB75A9869838C
:100B50000E94900500006981862F0E9490055A9A94
:100B60000F90DF91CF91089563E38BE00E94A10580
:100B700061E38CE00C94A105559898E080E0880F23
:100B80004D9981605C9A00005C9800009150B9F723
:100B9000559A08955A9880640E9490050E94BC0559
:100BA0005A9A0895813011F40C94B405823011F4EE
:100BB00061E301C063E38BE00E94A10563E38CE085
:100BC0000C94A1051F93CF93DF9300D01F92CDB754
:100BD000DEB7182F5A9886E06B837A8399830E9438
:100BE00090059981892F0E949005812F0E94900580
:100BF0007A81872F0E9490056B81862F0E94900535
:100C00005A9A0F900F900F90DF91CF911F910895F6
:100C100080914F0587FF04C082FF04C067E103C0D5
:100C200060E001C064E088E20C94A1055A980E943B
:100C300090055A9A0895CF92DF92FF920F931F93D7
:100C4000CF93DF931F92CDB7DEB7F82E5A9880EE80
:100C500069830E94900585E00E94900504EC15E0F0
:100C6000680169818C2D801B8F1538F4F601819104
:100C70006F0169830E949005F4CF5A9A8FE00E9419
:100C8000A10580ED0F90DF91CF911F910F91FF9003
:100C9000DF90CF900C941606CF93DF9380EF0E94E5
:100CA00016065A9885E40E949005C4ECD5E00E948F
:100CB000BC05899385E0C43DD807C9F75A9ADF91EE
:100CC000CF910895CF936AE070E080E090E00E94B9
:100CD000AF2F60E080E00E94A10568EE73E080E045
:100CE00090E00E94AF2F80E00E94D20580E10E9438
:100CF000CA05C82F80EA0E94160681E0CE3909F0A5
:100D000080E0CF910895FF920F931F93CF93DF93CD
:100D1000F82E811109C06AE275EC85E794E50E941E
:100D2000E20506ED11E008C061E470E180E295E5BE
:100D30000E94E20509E012E0C0E0D0E0F801EC0F0B
:100D4000FD1F84918F3F21F064918C2F0E94A1059B
:100D50002196C333D10591F780EA0E94160661E01F
:100D600082E00E94A10582E00E94CA058111FBCFAA
:100D7000F11008C063E184E20E94A1056BE386E202
:100D80000E94A10560E08FE00E94A10562E082E080
:100D90000E94A10582E00E94CA058111FBCF60EA92
:100DA0008FE00E94A10562E082E00E94A10582E03E
:100DB0000E94CA058111FBCFF11004C068E085E2F2
:100DC0000E94A1050E94B4050E94080680EADF91F6
:100DD000CF911F910F91FF900C941606EFE7F5E06D
:100DE000AAE5B5E02AE28191622F0E94CE309D9360
:100DF00085E0E338F807B9F71092570508955C9835
:100E00005D9899E0915051F087FF02C05D9A01C052
:100E10005D985C9A00005C98880FF4CF5D9A089505
:100E2000EF92FF920F931F93CF93DF9300D0CDB734
:100E3000DEB7142F5F98806469837A830E94FF066F
:100E40006981062FE62E7A81F72E8E2D801B811761
:100E500030F4F70181917F010E94FF06F6CF5F9A7F
:100E60000F900F90DF91CF911F910F91FF90EF9016
:100E70000895CF93DF931F92CDB7DEB75F98698354
:100E80000E94FF0600006981862F0E94FF065F9A7C
:100E90000F90DF91CF9108956FE682E00E943907AD
:100EA0006FE280E00C94390798E080E0880F4E995B
:100EB00081605C9A00005C9800009150B9F7089539
:100EC000EF92FF920F931F93CF93DF9300D0CDB794
:100ED000DEB7142F5F9869837A830E94FF066981C9
:100EE000062FE62E7A81F72E8E2D801B811730F487
:100EF0000E945407F70181937F01F6CF5F9A0F900C
:100F00000F90DF91CF911F910F91FF90EF90089577
:100F1000462FBC018FEF0C9460075F9880680E9499
:100F2000FF060E9454075F9A08955F980E94FF068B
:100F30005F9A08950F931F93CF93DF931F92CDB7BE
:100F4000DEB78C018BE369830E9495074981B80164
:100F50008FE30E94100785E30F90DF91CF911F91DF
:100F60000F910C94950780914F0587FF04C082FF75
:100F700004C06EEF03C065EC01C06FE78EE30C9414
:100F80003907813011F40C944C076FE2823021F460
:100F90000E9439076FE604C082E00E9439076FE2C1
:100FA00080E00C94390780E30E9495078FE99FE069
:100FB0000197F1F700C0000080E00E94C1078EE0B9
:100FC0000E948D0791E0843C09F090E0892F0895FC
:100FD00080917F058F7380688A3A09F48BEA809349
:100FE0007F0580917F058D57809357050895E0E830
:100FF000F5E0808160E30E94CE30908380917F0590
:10100000282F2F702D5F20935A0582958F708A5E4E
:1010100080935B05892F8F70835D80935C0592952B
:101020009F70905C90935D0508955C985D9899E041
:10103000915051F087FF02C05D9A01C05D985C9AA3
:1010400000005C98880FF4CF5D9A089598E080E0E6
:10105000880F4E9981605C9A00005C980000915066
:10106000B9F70895CF93DF931F92CDB7DEB72998D4
:10107000806869830E9415086981862F0E9415087F
:10108000299A0F90DF91CF910895EF92FF920F93DD
:101090001F93CF93DF9300D0CDB7DEB7142F2998DD
:1010A000806869837A830E9415086981062FE62E7D
:1010B0007A81F72E8E2D801B811730F4F7018191F4
:1010C0007F010E941508F6CF299A0F900F90DF91AB
:1010D000CF911F910F91FF90EF900895EF92FF92A3
:1010E0000F931F93CF93DF9300D0CDB7DEB7142FAC
:1010F000299869837A830E9415086981062FE62E54
:101100007A81F72E8E2D801B811730F40E942608DD
:10111000F70181937F01F6CF299A0F900F90DF910D
:10112000CF911F910F91FF90EF90089529980E9401
:1011300015080E942608299A0895CF93DF93EC01A1
:101140006FEF85E20E94320846E0BE0185E20E9410
:101150006E0860E085E2DF91CF910C943208CF9366
:10116000C82F813011F468E201C06CE28FE00E9468
:101170003208C13011F460E801C060E28EE0CF9126
:101180000C94320861E08DE10E9432088FE193E017
:101190000197F1F700C0000060EC8CE00E9432087B
:1011A00064E08DE00E94320880E00E94AF0880E198
:1011B0000E94960891E0853A09F090E0892F089501
:1011C000682F80E00C94320820914F0527FF04C05F
:1011D00022FF04C097E003C090E001C093E0692FB4
:1011E000682B83E00C943208CF93DF931F92CDB726
:1011F000DEB7682F85E199830E9432089981692FB3
:1012000086E10F90DF91CF910C94320848E0BC0149
:1012100082E20C944508462FBC0183E20C944508F9
:101220001F93CF93DF9300D0CDB7DEB7182F299847
:1012300084EA69837A830E9415086981862F0E9457
:1012400015087A81872F0E941508812F0E941508A2
:10125000299A0F900F90DF91CF911F91089567E821
:1012600085E00C9432080F931F93CF93DF931F9266
:10127000CDB7DEB78C01462F81E049830E9432084A
:1012800060E482E00E9432084981B80180E20E9455
:1012900045086FEB82E00F90DF91CF911F910F9186
:1012A0000C94320860E10C9433098F929F92AF92B4
:1012B000BF92CF92DF92EF92FF920F931F93CF9343
:1012C000DF93CDB7DEB7C155D1090FB6F894DEBFB5
:1012D0000FBECDBFA82E992ED62EC42E243008F4D2
:1012E00024E0802E80E5801710F460E5862E4D2DD9
:1012F00050E060E070E08A2D992D62962FAF6297E2
:101300000E94C93180E090E00E94F40882E00E94CF
:10131000AF08AFE9BFE01197F1F700C000008E0100
:101320000F5F1F4FB12C780162962FAD62978B2D06
:1013300062962FAF62970E94E00883E10E949608B0
:101340000E942F09B5E3BA95F1F7000083E10E94EE
:101350009608F80181938F01B39462962FAD62973E
:10136000F0E5BF12E4CFBA2CEA2DF92D082D10E0DC
:101370004C2D50E0AA24AA948E2F8B198D1578F548
:101380002083322F832F992787FD909560818017C6
:1013900091077CF48E0D9F1DD701A60FB11DBD01D5
:1013A000DC019C91DB018C91981708F430833F5F3E
:1013B000E9CF3196362F3C19CA01860F911DBC0129
:1013C000832F992787FD909586179707ACF63035C0
:1013D00020F4D701A80FB91FAC923F5FF1CF81E095
:1013E0000E94AF08CF5ADF4F0FB6F894DEBF0FBE92
:1013F000CDBFDF91CF911F910F91FF90EF90DF90C4
:10140000CF90BF90AF909F908F9008952091C4048B
:101410003091C5043093C4052093C5059091F5051E
:1014200090959093C6058091C30481504091F60534
:10143000841B8093C7053093C8052093C9059093FA
:10144000CA058093CB05E4ECF5E080E791E02191BB
:10145000820F911D25E0EC3CF207C9F79093CC0573
:101460008093CD0521E02093CE0537E03093CF0562
:1014700030910F05313009F422EB2093D005109202
:10148000D105ECECF5E02191820F911D25E0E23DC4
:10149000F207C9F79093D2058093D3050895609120
:1014A000A6057091A7054091A4055091A505882334
:1014B00049F07093790460937804509377044093D3
:1014C000760412C0209176043091770480917804DC
:1014D00090917904280F391F261B370B241B350BDD
:1014E00081E0213C310508F480E008952F923F927D
:1014F0004F925F926F927F928F929F92AF92BF9224
:10150000CF92DF92EF92FF920F931F93CF93DF93CF
:10151000CDB7DEB72F970FB6F894DEBF0FBECDBFA5
:10152000282E87E0EFE0F1E0DE01119601900D92A8
:101530008A95E1F78091C604882329F080E00E9413
:101540004F0A8111E3C030910F052091F50580917C
:10155000C3049091F605313039F42093C405890F06
:101560008093C5052BE008C020952093C4058150C9
:10157000891B8093C5052AE0422F50E05D874C8788
:1015800081E090E002C0880F991F2A95E2F7FC01E4
:10159000F695E795FF87EE87B7EC6B2EB5E07B2ECF
:1015A000812C912C9E012F5F3F4F290137E0239E14
:1015B000400C511C112401979C0140E050E0288709
:1015C00039874A875B87F201E80DF91D30803FEFCC
:1015D000331609F470C08091C604882331F033209B
:1015E00009F451C06E857F8550C0832D90E088300E
:1015F000910560F5FC01EC5CFF4F0C9443310091C8
:10160000A8051091A90522C00091A4051091A50577
:101610001DC00091A6051091A70518C00091AA054C
:101620001091AB0513C00091AC051091AD050EC033
:101630000091AE051091AF0509C00091B005109161
:10164000B10504C00091B2051091B305B80180E066
:1016500090E01F921F9249854F9358855F93A12C6C
:10166000B12C65011CE5E12E18E0F12E00E010E040
:101670002CE533E040E050E00E9476300F900F9070
:101680000F900F9002C061E070E0222011F08820DE
:1016900019F080E090E002C080E090E8032D10E0B7
:1016A0000C8402C0000F111F0A94E2F7062B172BBF
:1016B000082B192B02C00FEF1FEFF3013197108396
:1016C000F3010083FFEF8F1A9F0A22E0620E711C64
:1016D00037E08316910409F076CF2F960FB6F89471
:1016E000DEBF0FBECDBFDF91CF911F910F91FF9055
:1016F000EF90DF90CF90BF90AF909F908F907F90B2
:101700006F905F904F903F902F9008951092C60475
:101710001ACF90910F05913039F490E0029765E06F
:1017200070E00E94EE30089565E00E94CE30892F6F
:101730000895CF93DF93CCEBD2E0FE01319768811F
:1017400080810E943208229682E0CC3ED807A9F719
:1017500064E073E383E390E00E94100981E6DF9187
:10176000CF910C94E0080F931F93CF93DF93CDB7E5
:10177000DEB7A8970FB6F894DEBF0FBECDBF88E0E6
:10178000E6E1F1E0DE01919601900D928A95E1F794
:101790008DE00E94E00880910F05813011F401E096
:1017A00001C003E08091C4049091C5040E94F40834
:1017B0008091CB0429E0029F800111249801280F19
:1017C000311DC90123E0880F991F2A95E1F7855142
:1017D0009D4F0E9406098091CA04F801E80FF11D8F
:1017E00033E0EE0FFF1F3A95E1F7E551FD4F80E141
:1017F000DE01119601900D928A95E1F788E0EBE207
:10180000F3E0DE01519601900D928A95E1F788E0B0
:10181000FE01B196DE01599601900D928A95E1F78D
:1018200060E2CE0101960E940B090E94060AA8966A
:101830000FB6F894DEBF0FBECDBFDF91CF911F91E1
:101840000F910895CF93DF93CEE9D2E0FE01319757
:10185000688180810E943208229682E0CC3BD807C2
:10186000A9F7DF91CF910895CF93DF93E091CC0456
:10187000F0E0E65AFA4FD0818D2F0E94890BC82FD5
:101880008D2F0E94E0088091C7042091C4043091FC
:10189000C504882321F0C9018095909501C0C90134
:1018A0000E94F4088091CB0429E0C29FE00111243A
:1018B0009E01280F311DC90143E0880F991F4A95E9
:1018C000E1F785519D4F0E9406098091CA049E014F
:1018D000280F311DC90153E0880F991F5A95E1F770
:1018E00060E185519D4F0E940B0990910F058091F9
:1018F000CC04913039F490E0019667E170E00E94E9
:10190000EE3004C090E00196817099278093CC045A
:1019100081E09091C704911180E08093C704DF912A
:10192000CF910895CF932091C8043091C904F90153
:10193000E855F240EA30F10540F4E45CFF4F0C94C6
:101940004331C5E15EC0C5E147C02F5F3F4F3093D3
:10195000C9042093C80420FF07C084EC95E00E94CE
:10196000520984E391E266C084E00E9496088CEDFF
:1019700095E060C080914F05806880934F050E947C
:10198000220C81E00E94AF081092CC041092C70490
:1019900089E592E09093C9048093C8040E94340CB6
:1019A00080E197E247C081E02E35324009F080E0C7
:1019B0000E94760A84EC95E00E9452098091C80446
:1019C0009091C90401969093C9048093C80482E75A
:1019D00096E030C0C15029F084E00E94960881FF53
:1019E000F9CF0E94340C8091C8049091C9040196EB
:1019F0009093C9048093C80488E399E01BC0C15048
:101A000029F084E00E94960881FFF9CF8091C804F4
:101A10009091C9048C35924019F488E20E94E40840
:101A20000E94340C89E592E09093C9048093C80425
:101A30008CED94E1CF9108954F925F926F927F92D7
:101A40008F929F92AF92BF92CF92DF92EF92FF92CE
:101A50001F93CF93DF938091F305C090F405D12CB1
:101A6000E12CF12C7601DD24CC24F82A8091F605B6
:101A7000C82A8091F505D82AC094D094E094F094B7
:101A80004601570110E0E9E44E2E512C612C712CD7
:101A9000CAE5D5E0A50194016DE076E689E190E024
:101AA0000E94BE304B015C0141EA841A4CE0940A6A
:101AB00041E9A40A43ECB40A99278B2D7A2D692DAC
:101AC000A30192010E94023123E0260FD701C60133
:101AD000822780FF2DC0AAE5B5E080E090E030E0ED
:101AE000EA2FEC1BE11768F44D91421709F14C31D4
:101AF00010F43F5FF5CF443310F49F5FF1CF8F5F59
:101B0000EFCFE11315C02C3110F4383048F0695193
:101B1000683110F4973020F0243348F0883038F4DE
:101B200011E01E0FF0E0E65AFA4F208301C01E2F8D
:101B3000173108F4AFCFDF91CF911F91FF90EF9055
:101B4000DF90CF90BF90AF909F908F907F906F90DD
:101B50005F904F9008950E94C20883EF95E00E9425
:101B60009D080E94990B80910F05813019F40E9405
:101B70001C0D24C02091F3058091F50590E0820FA3
:101B8000911D2091F705820F911D67E270E00E9480
:101B9000EE308F5F80935A052091F4058091F60511
:101BA00090E0820F911D2091F805820F911D68E24F
:101BB00070E00E94EE30885D80935B053091F30504
:101BC0002091F405832F90E0982F8827820F911D94
:101BD000809590959093C5048093C4041092C70497
:101BE000832F820F8E5F9091F505890F8770809308
:101BF000CB0497E0981B9093CA04809105069091BE
:101C00000106891B8093C30481E00E94AF08809184
:101C10004F0584FF0DC01092C9041092C80481E0E2
:101C20000E944F0A0E94B30B81E08093C60408C053
:101C300088E592E09093C9048093C8041092C6048A
:101C400080E197E20895E5ECF5E080E0A82FA3702D
:101C5000B0E0AD50BA4F90812C91922791938F5F55
:101C60008F30A1F708958091BF04882341F08091BF
:101C70007C0590917D05892B21F090EC03C090E0CC
:101C800001C090E883E02091C104821B892B8093DE
:101C9000CE05E0915805F091590581818093CF05DB
:101CA00082818093D0052091F9059091FA05809169
:101CB000FB052093D1059093D2058093D305089519
:101CC000811105C087E88093C40528E004C088E836
:101CD0008093C40524E085EC95E0FC0111923E2F31
:101CE000381B3217D8F31092CD050C94330EEF92B7
:101CF000FF920F931F93CF93DF938AE88093C405DD
:101D000090917C0580917D059093C5058093C605D3
:101D1000E0915805F091590580818093C705818134
:101D20008093C80582818093C905A3EFEA2EA5E0C0
:101D3000FA2ED7018C918093CA0504EF15E0F801C3
:101D400080818093CB05C5EFD5E088818093CC0559
:101D50008091F6058093CD050E94330EE1EDF5E00C
:101D6000D7018C91908189278083E2EDF5E0D8013D
:101D70008C91908189278083E3EDF5E088819081C3
:101D800089278083DF91CF911F910F91FF90EF9072
:101D900008952F923F924F925F926F927F928F920F
:101DA0009F92AF92BF92CF92DF92EF92FF920F93EA
:101DB0001F93CF93DF938091C004855F80688093E9
:101DC000C40536EC832E35E0932EC0E0D0E04BE026
:101DD000342E50E4252E67E0462E512C6624639461
:101DE000712C8091C004FE0124E0829FE00DF11D62
:101DF0001124EE0FFF1FEC55FA4F6081718180E0D6
:101E000090E01F921F9236E03F932F9210ECA12E8C
:101E100019EFB12ECC24CA94DC2C1CE5E12E18E07D
:101E2000F12E00E010E02CE533E040E050E00E94AD
:101E300076309B010F900F900F900F9077FF0EC0A0
:101E400022273327261B370BC2018C1B9D0BA301B6
:101E500002C0440F551F8A95E2F7342AF4013197E6
:101E60002083F40130832196F2E08F0E911CC43060
:101E7000D10509F0B6CF3092CD052091C0042F5F77
:101E800034E0239FC001112408971CF42093C00460
:101E900002C01092C004DF91CF911F910F91FF906B
:101EA000EF90DF90CF90BF90AF909F908F907F90FA
:101EB0006F905F904F903F902F900C94330EFF9255
:101EC0000F931F93CF93DF93F090F305C091F40528
:101ED000D0E00091F505102F1F0D9E01A6E035956D
:101EE0002795AA95E1F7120F09F411E081E00E940D
:101EF000AF08812F90E0382F2227820F931F0E9476
:101F0000F408CE0124E0F29E800D911D1124800F73
:101F1000911D99276AE070E00E94EE30F3E0880F8F
:101F2000991FFA95E1F7835B9D4F0E94060988E0AF
:101F3000DF91CF911F910F91FF900C94E40869E31A
:101F40008DE10E94320888E00E94E4086AE486E09D
:101F50000E94320860E08BE00E94320864E08DE06D
:101F60000E94320860E28EE00E94320864EA80E15A
:101F70000E94320865E081E10E9432086EE082E151
:101F80000E94320865E58BE10E94320865E08CE131
:101F90000E9432086CE382E30E94320864E185E328
:101FA0000E94320861E089E30E94320860E18EE11C
:101FB0000E94320860E08FE10E94320860E181E017
:101FC0000E94320860EC8CE00E94320860E18FE0F1
:101FD0000E94320862E087E20E94320862E088E2F2
:101FE0000E94320868E28FE00C9432080F9300E5FB
:101FF00024E044E063E08AE595E00E945509809181
:102000005A0580935D0580915B0580935E050F9175
:10201000089580917E058C3038F48230A0F58823B5
:1020200039F08130A1F05AC08C3009F448C056C054
:1020300080917C0590917D05009729F00197909300
:102040007D0580937C050E94770E81E045C08091DC
:102050007C0590917D05009729F0019790937D056F
:1020600080937C050E94C90E0E94230E80917C05FE
:1020700090917D05892B21F482E080937E0519C023
:1020800010927E052BC00E94C90E0E94230E8091E3
:102090007E058F5F80937E0580917C0590917D0504
:1020A0000097E1F0019790937D0580937C05892B43
:1020B000A9F480914F05806880934F050FC080E0A0
:1020C0000E94600E81E09091BE04911180E08093A7
:1020D000BE040E94230E83E080937E058091C1049C
:1020E0008F5F843019F08093C10408951092C10469
:1020F0000895CF938091C20481110AC081E080933A
:10210000C2040E94091084EC95E00E9452092EC07E
:102110001092C204C5E184E00E94960881FD03C0CC
:10212000C150C9F723C080917E05823029F485E033
:1021300080937E050E945F0F8091C104811116C0BB
:1021400088E00E94E408E0915805F091590585E087
:10215000EC35F80711F0319602C0EAE5F5E0F093AE
:102160005905E093580580810E94E00880EB94E0D7
:10217000CF9108950E94C2080E949F0F83EF95E0BF
:102180000E949D0881E00E94AF0880E090E00E94DC
:10219000F4088DE492E00E9406090E94F60F109266
:1021A000BF041092BE048AE595E090935905809390
:1021B000580580915A050E94E0081092C1041092BF
:1021C000C0041092C2048091FD059091FE05A0917B
:1021D000FF05B09100060097A105B105C9F5209152
:1021E000F30580915A0528278091F60528276091EC
:1021F000F40580915B0568278091F7056827862F95
:1022000090E0A0E0B0E06627782F892F9A2F822BEC
:102210002091F50530915C0523273091F80523279F
:10222000622B20E432E44FE050E00E9402316093E0
:10223000F9057093FA058093FB059093FC0588E8F7
:1022400093E190937D0580937C0510927E0514C0E8
:102250008093F9059093FA05A093FB05B093FC05D4
:1022600081E08093BF0483E080937E0510927D051A
:1022700010927C050E945F0F80E699E00895CF934D
:10228000DF93CDB7DEB72A970FB6F894DEBF0FBE47
:10229000CDBF8AE0EEE1F1E0DE01119601900D92F2
:1022A0008A95E1F780910F058230C1F1833009F4FE
:1022B000ACC0813009F0EFC08091AC059091AD05C4
:1022C0008F30964028F08091D00580618093D005B2
:1022D0008091AE059091AF058F30964028F08091A7
:1022E000D00580628093D0058091B0059091B105B2
:1022F0008F30964028F08091CE0580688093CE057F
:102300008091B2059091B3058F30964008F4C3C018
:102310008091CE0580648093CE05BDC083E080931C
:10232000D1051092D2058091AC059091AD058F300A
:10233000964018F080E88093D2058091AE05909188
:10234000AF058F30964028F08091D205806480934D
:10235000D2058091B0059091B1058F30964028F05C
:102360008091D20580618093D2058091B2059091D1
:10237000B3058F30964028F08091D205816080931C
:10238000D2058091B4059091B5058F30964040F00C
:1023900083E88093D1058091D20580628093D20535
:1023A0008091B6059091B7058F30964028F08091C6
:1023B000D20588608093D2058091B8059091B905C7
:1023C0008F30964028F08091D20584608093D205AA
:1023D0008091BA059091BB058F30964028F080918E
:1023E000D20582608093D20580E18093D3058093EB
:1023F000D4058AEA8093D5058093D60580E680933C
:10240000D70582E08093D80546C0809175048F5F20
:102410008A3018F48093750402C01092750480917C
:10242000D00580628093D0051092D1051092D2051C
:102430008091AC059091AD058F30964018F080E802
:102440008093D2058091AE059091AF058F30964074
:1024500028F08091D20580648093D20587E2809332
:10246000D30583E08093D40580917504E1E0F0E02A
:10247000EC0FFD1FE80FF11D90819093D5058111A0
:1024800004C082E08093D60502C01092D605109257
:10249000D7051092D8052A960FB6F894DEBF0FBE66
:1024A000CDBFDF91CF910895CF93DF93CDB7DEB746
:1024B00028970FB6F894DEBF0FBECDBF882311F06A
:1024C0008AEA01C085E58093C405809182058093E6
:1024D000C505809181058093C60580918005809314
:1024E000C70580917F058093C80588E0E8E2F1E0A8
:1024F000DE01119601900D928A95E1F7CE010196C9
:10250000AAECB5E09E01275F3F4FFC014191CF014E
:10251000E42FF0E0EE0FFF1FEC55FA4F50814181A0
:10252000FD01319750834C9312968217930769F7F8
:1025300028960FB6F894DEBF0FBECDBFDF91CF91C6
:102540000C943F1180917C0590917D05892BC1F001
:1025500081E00E94541261E085E10E941B06809197
:102560007C0590917D05019790937D0580937C0576
:10257000892B41F580914F05806880934F0522C0DB
:1025800080E00E9454128091BD04E091BC04F0E010
:1025900090E1899FE00DF11D1124EA52FF4F6491F3
:1025A0008091BB04681B85E10E941B068091BC04DE
:1025B00090E001968F7099278093BC04892B11F4C9
:1025C0000E94080684EB95E0089580E00E9483064F
:1025D00080918205813918F080578093820580911F
:1025E0008205982F9F709093BD041092BC04829531
:1025F0008F708093BB0480914F0584FF07C084ECEB
:1026000099E090937D0580937C0504C010927D0530
:1026100010927C0580E699E00895FC0191818091FB
:102620008205981305C0928180918105981739F031
:102630001092D8041092D9041092DA040895262F2B
:1026400030E0808190E003962817390789F73396A8
:10265000A8EDB4E083E08A1B982F9A0F961718F420
:1026600091919D93F9CF81E08093CF040895E091FB
:10267000B604F0E0ED52FB4F208132E1239FC00110
:10268000112455E0969587955A95E1F727FF03C0E9
:102690008255910902C08F5B9F4F9093D104809324
:1026A000D0040895CF93DF93CDB7DEB729970FB647
:1026B000F894DEBF0FBECDBF8EEF898380910C05ED
:1026C0008F71833079F40E9437138091D8048A8304
:1026D0008091D9048B838091D0048C838091DA041B
:1026E000880F0AC0823069F48091D204880F8A83EF
:1026F0001B828AE58C8384EB8D83198618861F8262
:102700001E82CE0101960E94290429960FB6F894E4
:10271000DEBF0FBECDBFDF91CF9108958091CF0472
:10272000882321F00E9452131092CF040895CF9372
:10273000C82F0E94D30766E082E00E94390766E056
:1027400080E00E9439076CE087E10E94390768E168
:1027500088E10E94390769E186E00E94390764E058
:1027600087E00E94390765E088E00E9439076FEF33
:102770008EE30E94390768E08BE00E943907609180
:1027800005018CE00E9439076CE58DE00E94390755
:1027900066E78EE00E94390767E28FE00E94390702
:1027A0006AEA80E10E94390769E381E10E94390702
:1027B00061E182E10E94390763E283E10E94390707
:1027C0006AE784E10E94390762E485E10E943907E3
:1027D00066E189E10E9439076CE68AE10E943907C7
:1027E000CC2311F063E401C063E08BE10E94390760
:1027F00060E48CE10E94390761E98DE10E943907AC
:1028000066E581E20E94390760E182E20E943907B1
:1028100069EA83E20E9439076AE084E20E9439078C
:1028200060E085E20E94390761E186E20E94390793
:1028300069E589E20E94390768E88CE20E9439075D
:1028400061E38DE20E9439076BE08EE20E94390756
:1028500067E083E00E94390760E089E00E94390761
:102860000E944C070E94B30786E30E949507C1119E
:1028700003C06091820501C063E089E00E943907CE
:1028800065E087E00E94390786E30E94950760E0D3
:102890008AE00E94390769E883E20E9439078AE3E7
:1028A000CF910C94950780914F0584FF0CC081E077
:1028B0000E9497131092B7041092B8041092B904B2
:1028C0001092BA040FC080E00E9497138AEE93E042
:1028D000A0E0B0E08093B7049093B804A093B9044B
:1028E000B093BA0480E197E208959C014EE1429FC3
:1028F000C001439F900D11246BEE70E00E94DA300E
:10290000982F2330310531F02731310519F02F325E
:10291000310511F491E0980F2033310510F080E07B
:102920000895892F08951F93CF93DF9381E18093BA
:10293000C40583E08093C50511E01093C60580911E
:1029400082058093C705809181058093C8056091B9
:10295000B7047091B8048091B9049091BA042AE048
:1029600030E040E050E00E94023125E0269FE00187
:10297000279FD00D1124C093C905CE010E94751464
:102980008093CA05CE0101960E9475148093CB05F1
:10299000CE0102960E9475148093CC05CE01039659
:1029A0000E9475148093CD05CE0104960E94751483
:1029B0008093CE051092CF051092D0051092D105CC
:1029C0001092D2051092D3051092D4051093D5051C
:1029D000DF91CF911F91089581E18093C40580918B
:1029E00082058093C505809181058093C6058091FD
:1029F000ED058093C7058091F604882341F080910E
:102A0000B50491E0980F9093B5048F7101C080E0F8
:102A10008093C80581E08093C9051092CE0510927D
:102A2000CF051092D4051092D505A4EAB5E080E058
:102A300090E04D915D919A0136952795240F351FB1
:102A4000FC01EC53FA4F482F4170632F77278430F5
:102A500038F42683FC01F595E795E253FA4F07C059
:102A60002087FC013497F595E795EC52FA4F9B01CE
:102A70002F70332750E0440F551F440F551F042E6D
:102A800001C0220F0A94EAF73081322B308301967D
:102A90008830910571F608958091B7049091B8043B
:102AA000A091B904B091BA04883E23E09207A10531
:102AB000B10558F50E94931486E30E94950760E0E3
:102AC0008AE00E94390769E883E20E9439078AE3B5
:102AD0000E9495076091C4056F5F84EC95E00E94A9
:102AE0009A078091B7049091B804A091B904B0916D
:102AF000BA040196A11DB11D8093B7049093B80448
:102B0000A093B904B093BA04D7C0883E23E09207DB
:102B1000A105B105C9F48AEE93E0A0E0B0E080938E
:102B2000B7049093B804A093B904B093BA0480E0BA
:102B30000E9497131092EE051092ED0580914F05BB
:102B4000806880934F0517C08D3E9340A105B10565
:102B500091F484E30E94950789EE93E0A0E0B0E051
:102B60008093B7049093B804A093B904B093BA04C7
:102B700080EF93E208958091ED059091EE05019626
:102B80006CEB70E00E94DA309093EE058093ED05D7
:102B90008091B7049091B804A091B904B091BA049F
:102BA0008C3E23E09207A105B10571F582E00E94F9
:102BB000C10786E30E9495078091ED059091EE058F
:102BC0006FE270E00E94DA300E947514682F8AE08C
:102BD0000E94390769E883E20E9439078091B704AF
:102BE0009091B804A091B904B091BA040196A11DC6
:102BF000B11D8093B7049093B804A093B904B09327
:102C0000BA0484E195E00895893E9340A105B10599
:102C1000B9F48BEF0E948D07682F6F776093B6042D
:102C2000662351F080EF94E00E9488076091B6041B
:102C300080EF94E00E940D130E944C070E94B3079E
:102C400086E30E9495078091ED059091EE056FE275
:102C500070E00E94DA300E947514682F8AE00E94AA
:102C6000390769E883E20E9439078AE30E949507E1
:102C70000E94EC146091C4056F5F84EC95E00E94A3
:102C80009A078091B7049091B804A091B904B091CB
:102C9000BA040196A11DB11D8093B7049093B804A6
:102CA000A093B904B093BA048C3E9340A105B1053A
:102CB00019F48CE49DE1089588E293E208958F92DF
:102CC0009F92AF92BF92CF92DF92EF92FF920F93BB
:102CD0001F93CF93DF93062FC62ED72E7C0110E0D3
:102CE000F9E48F2E912CA12CB12CCAE5D5E0A701D7
:102CF00096016DE076E689E190E00E94BE306B01BE
:102D00007C0141EAC41A4CE0D40A41E9E40A43ECEC
:102D1000F40A99278F2D7E2D6D2DA50194010E9417
:102D2000023182E0860F982F902790FF2DC0AAE5F0
:102D3000B5E090E020E030E0EA2FEC1BE11768F40A
:102D40004D91481709F14B3110F43F5FF5CF4333F4
:102D500010F42F5FF1CF9F5FEFCFE11315C08B31E0
:102D600010F4383048F06951683110F4283020F000
:102D7000833348F0983038F411E01E0FF0E0E65A43
:102D8000FA4F808301C01E2F143108F4B0CFDF91B9
:102D9000CF911F910F91FF90EF90DF90CF90BF9058
:102DA000AF909F908F9008950F931F93CF93DF93D1
:102DB000EFE7F5E080E090E02191820F911D25E0A2
:102DC000E438F207C9F7282F892F9FEF90938D04DD
:102DD0009AEA90938E0495E590938F04A0E9B4E06D
:102DE000EFE7F5E091919D9395E0E438F907D1F78D
:102DF0002093970480939804109299042093A1043F
:102E00008093A20491E09093A3042093AB04809359
:102E1000AC0482E08093AD044AE555E02AE934E051
:102E200081E695E0C4EAD4E0A8E6B5E00EEA14E055
:102E300067E0FA017191AF01F90171939F01FC0103
:102E40007191CF0179937D91F80171938F01615058
:102E500081F7DF91CF911F910F9108952F923F92AB
:102E60004F925F926F927F928F929F92AF92BF929A
:102E7000CF92DF92EF92FF920F931F93CF93DF9346
:102E8000CDB7DEB728970FB6F894DEBF0FBECDBF23
:102E900088E0E8E2F1E0DE01119601900D928A955A
:102EA000E1F7CE0101963C0134EC832E35E0932E00
:102EB000312C48EE442E43E0542EF30121903F0183
:102EC000822D0E945003BC0180E090E01F921F926F
:102ED000F3E0FF9328EE2F93A12CB12C65011CED9C
:102EE000E12E17E0F12E00E010E02CED33E040E0A1
:102EF00050E00E9476309B010F900F900F900F9042
:102F000042E0241204C09201261B370B0BC086E05E
:102F1000281208C02039314018F420E030E002C007
:102F200023E030E0F40121934F01F3E0F31518F4AE
:102F3000E9E0F0E002C0E8E0F0E0EC53FA4F808115
:102F400090E09595879595958795808343E0431507
:102F500018F0E8E0F0E002C0E9E0F0E0EC53FA4FEE
:102F60003695279536952795207C8081822B808306
:102F7000339488E03812A1CF28960FB6F894DEBFBC
:102F80000FBECDBFDF91CF911F910F91FF90EF90BA
:102F9000DF90CF90BF90AF909F908F907F906F9079
:102FA0005F904F903F902F90089580910F05813052
:102FB00041F4EAE5F5E080E081938F5F8431E1F749
:102FC000089560910506709106068091070690911C
:102FD00008060C945F16E4ECF5E080E09191890F0F
:102FE00095E0E33DF907D1F781958093D3050895E6
:102FF0008093C4058091EC058093C5058091890478
:1030000090918A0420918B0430918C043093C605F2
:103010002093C7059093C8058093C90588E08093E5
:10302000CA0584EE8093CB058AEE8093CC058EE9A9
:103030008093CD0580E58093CE058BED8093CF0501
:1030400084E08093D00586E28093D10589E7809360
:10305000D2050C94EB1780E1E4ECF5E0DF011D9262
:103060008A95E9F780910E0520917404909173057B
:10307000281302C09436B1F48093740420E42093A2
:10308000C405833F10F027E101C026E12093C50568
:10309000835F8093C60582E88093C7059F5F909306
:1030A000730508C080E28093C40582E00E94680333
:1030B0008093C60583E00E94680380958093C805CD
:1030C00081E00E94680380958093CA0580E00E9499
:1030D00068038093CC0580917305843638F49EE0B4
:1030E0009093CD058F5F8093730525C082E0809318
:1030F000CD058091AC059091AD058E30964018F0CD
:103100008AE08093CD058091AE059091AF058E3019
:10311000964028F08091CD0584608093CD05809104
:10312000B2059091B3058F30964028F08091CD057F
:1031300081608093CD0584E68093CE058BED8093EE
:10314000CF0584E08093D00586E28093D10589E79E
:103150008093D2050C94EB17CF93DF9380917E057B
:10316000863019F170F48230F1F030F48823D9F010
:10317000813009F442C0F6C0843009F03EC081E0DD
:1031800015C0803829F138F4873009F460C08D30DB
:1031900008F47FC0E7C08438D9F08638C9F0823897
:1031A00009F0E0C015C08F5F01C089E00E94F817E8
:1031B00080EA0E9416066091EC0580E10E941B06E1
:1031C00080917E05806880937E0588EB9BE0D2C06D
:1031D000C4E180E00E94CA0580FF02C0C150C9F767
:1031E00082E00E94D20580EC0E94160680917E0546
:1031F0008F778F5F80937E0509C00E94B40580E0C1
:103200000E94CA0580FF05C010927E0584E991E105
:10321000B1C00E944C0680917E058F5F80937E0531
:10322000843009F0A2C02091C6056091C705862FA1
:1032300090E0A0E0B0E077276627922B2091C905A7
:10324000622B2091C805722B0E94E2058EC00E945D
:10325000B40580E00E94CA0580FD15C00E944C069E
:103260008091C505893079F488E080937E056FE010
:103270008FE10E94A10580914F05806880934F05E2
:1032800080E69DE677C086E080937E0588E99AE334
:1032900071C090917304911122C090ED90937204CB
:1032A000883011F40E9408060E942B1880EA0E94C0
:1032B000160680917E056091EC058C3009F46D5DF9
:1032C00080E10E941B0680917E058C3011F488E01D
:1032D00001C08F5F80937E05D8EBCBE037C0809133
:1032E0007204803D91F4CAE080E00E94CA0580FD2E
:1032F0000AC082E00E94D20580EC0E94160680EC93
:103300008093720402C0C15079F780917204803CAE
:10331000B9F4CAE080E00E94CA0580FD14C00E9492
:103320004C0680E00E94CA0580FD07C08091D1054F
:103330008093D20481E08093CF0480EC0E94160633
:10334000D8EEC3E003C0C15029F7FACF209173042F
:103350002F5F20937304283059F40E94B405109213
:10336000730406C080E090E005C084EF91E002C0E5
:103370008D2F9C2FDF91CF910895CF92DF92EF9206
:10338000FF920F931F93CF93DF93CDB7DEB72C97A8
:103390000FB6F894DEBF0FBECDBF8CE0E0E3F1E0E6
:1033A000DE01119601900D928A95E1F781E00E946D
:1033B00083068EE00E941D308C0182E10E941D3048
:1033C0006C01B801882777FD8095982FEAE0660F99
:1033D000771F881F991FEA95D1F7EE24D7FCE09458
:1033E000FE2C6C297D298E299F290E944A306EEF80
:1033F0007EEFCB010E9452306B017C016EEF7EEFBD
:10340000CB010E945230DB01992788278C0D9D1D2E
:10341000AE1DBF1D8093890490938A04A0938B04F2
:10342000B0938C046EEF7EEFCB010E9452302CE003
:1034300030E040E050E00E942431E1E0F0E0EC0FA9
:10344000FD1FE60FF71F80818093EC0580914F05EB
:103450008F7780934F0510927E051092730580E15F
:1034600097E22C960FB6F894DEBF0FBECDBFDF916A
:10347000CF911F910F91FF90EF90DF90CF90089523
:103480004F925F926F927F928F929F92AF92BF9274
:10349000CF92DF92EF92FF921F93CF93DF934B0176
:1034A0005C016B017C0110E0B9E44B2E512C612CC6
:1034B000712CCAE5D5E0A70196016DE076E689E1B9
:1034C00090E00E94BE306B017C0181EAC81A8CE05A
:1034D000D80A81E9E80A83ECF80A99278F2D7E2D16
:1034E0006D2DA30192010E9402316E5FD501C401CE
:1034F000862780FF11C0AAE5B5E0EA2FEC1BE11793
:1035000020F48D918613F9CF07C0E11305C01F5F2A
:10351000F0E0E65AFA4F6083143068F2DF91CF9101
:103520001F91FF90EF90DF90CF90BF90AF909F9052
:103530008F907F906F905F904F9008958BE4809371
:1035400083056091050670910606809107069091AB
:1035500008060C94401A5C985D9899E0915051F0DF
:1035600087FF02C05D9A01C05D985C9A00005C987C
:10357000880FF4CF5D9A089598E080E0880F4E9907
:1035800081605C9A00005C9800009150B9F7089542
:10359000CF93DF931F92CDB7DEB728988F718062EB
:1035A00069830E94AB1A6981862F0E94AB1A289A00
:1035B0000F90DF91CF910895289860E787E00E94EF
:1035C000C81A6EE080E00E94C81A87E092E0019776
:1035D000F1F700C00000289A0895EF92FF920F9330
:1035E0001F93CF93DF9300D0CDB7DEB7142F289869
:1035F0008F71806269837A830E94AB1A6981062F7A
:10360000E62E7A81F72E8E2D801B811730F4F7017C
:1036100081917F010E94AB1AF6CF289A0F900F90EC
:10362000DF91CF911F910F91FF90EF90089545E0AA
:103630006FE775E080E10C94ED1ACF92DF92FF9274
:103640000F931F93CF93DF931F92CDB7DEB7182F41
:10365000062F289880EA99830E94AB1AF12EC12E7A
:103660009981D92E8C2D8F19801730F4F601819114
:103670006F010E94AB1AF6CF289A0F90DF91CF917D
:103680001F910F91FF90DF90CF90089528988F7130
:103690000E94AB1A0E94BC1A289A0895CF92DF921A
:1036A000FF920F931F93CF93DF931F92CDB7DEB797
:1036B000182F062F289881E699830E94AB1AF12EC5
:1036C000C12E9981D92E8C2D8F19801730F40E942C
:1036D000BC1AF60181936F01F6CF289A0F90DF9103
:1036E000CF911F910F91FF90DF90CF900895289870
:1036F0000E94AB1A289A089581EE0C94771B82EEF3
:103700000C94771B0E947C1B0E947F1B10927205F9
:1037100010927305109257050E94DC1A6EE080E04B
:103720000E94C81A86E990E00895CF93C82F289880
:1037300080E50E94AB1A8C2F0E94AB1A289ACF9179
:103740000895682F62706295607F282F217030E0A5
:1037500083E0220F331F8A95E1F7622B8091880462
:10376000877D682B6093880486E00C94C81A63E513
:1037700085E00E94C81A80E00E94A11B45E064E831
:1037800071E080E10C94ED1A80914F0587FF04C031
:1037900082FF04C062E003C060E001C061E0660F28
:1037A00080918804897F682B6093880486E00C945C
:1037B000C81A80917E058F5F80937E0590910F05DA
:1037C000913009F047C0843049F0873049F08130AA
:1037D00009F040C00E94C41B82E03AC086E038C0B5
:1037E00080915705882311F083E001C085E045EC06
:1037F00055E064EC75E00E943403809157058823FE
:1038000011F082E001C086E047EC55E066EC75E01F
:103810000E94340380915705882311F084E001C091
:1038200087E049EC55E068EC75E00E943403809134
:103830005705882311F095E501C09AEA9093CB05CE
:10384000882311F087E601C08AE58093CC0588E0E3
:1038500080937E0580917E0590E0FC013197E830F1
:10386000F10508F066C0EA5BFF4F0C94433180918C
:103870007C0590917D05892B09F462C045E06AE8DA
:1038800071E080E10E94ED1A61E585E00E94C81AAE
:1038900057C080917C0590917D05009709F450C038
:1038A000019790937D0580937C05892B29F4809165
:1038B0004F05806880934F0580917A052AE0829FAA
:1038C000C00111246AE083579B4F0E941D1B809109
:1038D0007A058F5F80937A05843090F110927A0593
:1038E0002FC080917C0590917D05892B49F10E9424
:1038F0007C1B26C00E94C41B23C045E06FE775E017
:1039000080E10E94ED1AE0915705F0E0E65AFA4F87
:10391000608185E00E94C81A809157058F5F80936F
:103920005705843168F0109257050AC00E942E177F
:1039300007C010927E056AE084EC95E00E941D1B92
:1039400088EE93E0089589E0809388046CE080E03D
:103950000E94C81A60E081E00E94C81A61E082E01B
:103960000E94C81A63E083E00E94C81A60E084E005
:103970000E94C81A0E94C41B60E787E00E94C81A10
:1039800060E281E10E94C81A83E70E94951B61E012
:103990008CE10E94C81A67E08DE10E94C81A83E793
:1039A0000C94951B0E94A31C80914F0582958170F9
:1039B00091E0892780937E050E949E1A80E593EC12
:1039C0000895CF92DF92EF92FF920F931F93CF93C0
:1039D000DF931F92CDB7DEB78823B9F18BE48093D4
:1039E000C4058EE48093C50584E48093C6058AE50A
:1039F0008093C70580917F058093C80580918005DD
:103A00008093C905809181058093CA0580918205C4
:103A10008093CB0580915A058093CC0580915B05FE
:103A20008093CD0580915C058093CE0580915D05E6
:103A30008093CF051092D0051092D1051092D20537
:103A400081E08093D30563E58AC090915705E92F03
:103A5000F0E0E65AFA4F6081809173058F5F8093A2
:103A60007305843029F481E0890F837080935705B2
:103A700082E069830E94D903F82EE92E80E00E943B
:103A8000D903182F092F81E00E94D903D82EC92EFF
:103A900083E00E94D903E092C405F092C50500932B
:103AA000C6051093C705C092C805D092C90590936A
:103AB000CA058093CB0584E68093CC058093CD0521
:103AC0008093CE058093CF058091AC059091AD0594
:103AD00069818F30964030F08091510581608093EC
:103AE000510502C0109251058091AE059091AF052D
:103AF0008F30964028F08091510582608093510567
:103B00008091B0059091B1058F30964028F080915A
:103B100051058460809351058091B2059091B30561
:103B20008F30964028F08091510580648093510534
:103B3000809151058093D0052091570544E0249F42
:103B40009001112480917305E0E28E9FC001112441
:103B5000822B8093D1051092D2051092D30510923A
:103B6000720585E00E94C81A0E947C1B60E184EC0B
:103B700095E00E941D1B81E080937205809157059E
:103B800081110BC00F90DF91CF911F910F91FF908A
:103B9000EF90DF90CF900C94C41B0F90DF91CF91EA
:103BA0001F910F91FF90EF90DF90CF90089589E0E3
:103BB0008093880460E081E00E94C81A61E082E09E
:103BC0000E94C81A63E083E00E94C81A61E585E09C
:103BD0000E94C81A45E06FE775E08AE00E94ED1A7E
:103BE00045E06FE775E080E10E94ED1A6AE081E14F
:103BF0000E94C81A80910F05813011F482E001C043
:103C000080E00E94A11B0E94C41B0C94DC1A0E943D
:103C1000D5170E94D4160E94D71D10927E051092CF
:103C2000570510927A0580914F0584FF07C088EEF2
:103C300093E090937D0580937C0504C010927D05F0
:103C400010927C0588EE93E008958130910511F47F
:103C50000C94DC1A0297C9F4289860E787E00E9468
:103C6000C81A6FE080E00E94C81A60E787E00E94EF
:103C7000C81A6FE080E00E94C81A87E092E00197BE
:103C8000F1F700C00000289A089568E080E00E94E3
:103C9000C81A2898089583E70E94951B60E08CE17C
:103CA0000E94C81A60E08DE10E94C81A83E70E9452
:103CB000951B0E947C1B0E947F1B8FEF0E94771B2D
:103CC00087E00E94461B80E090E00E94251E8FE85E
:103CD00091E00197F1F700C0000008951092CE0422
:103CE0001092CD0480910B0590E0FC013197EF30EC
:103CF000F10560F4E25BFF4F0C9443310C946206D3
:103D00000C94D3070C944B1E0C94C208089587E0C2
:103D10000E94461B8073803131F0803211F481E0C3
:103D2000089580E0089582E00895CF93DF9300D056
:103D3000CDB7DEB780917E058130B1F028F08230BA
:103D4000F9F0833041F153C088EE93E090937D0504
:103D500080937C050E94821B22E020937E0589834C
:103D60009A830E94B71B09C00E94821B23E0209304
:103D70007E0589839A830E94171B89819A8139C0A5
:103D8000809172058823B9F00E94871E813099F0D6
:103D900084E690E02EC080917305843019F410926F
:103DA000730525C0809172058823F1F00E94871E5B
:103DB000813071F719C081E00E94E11C80917C057F
:103DC00090917D05019790937D0580937C05892BCB
:103DD00071F483E080937E050E94171B80914F054C
:103DE000806880934F0503C080E00E94E11C80ED55
:103DF00097E00F900F90DF91CF910895282F98E0D2
:103E000080E0322F3170880F832B26959150C9F7AF
:103E10000895962748E09C01220F331F97FF06C0A4
:103E2000C90151E2852750E1952701C0C9014150E0
:103E300091F708950F931F93CF93DF9300D000D095
:103E400000D0CDB7DEB78C01962F663020F46330FA
:103E500018F493E001C095E085E0ECE3F1E0DE01C9
:103E6000119601900D928A95E1F790938704933013
:103E700041F48A8189838B818A838C818B838D81B4
:103E80008C836EEF690F83E09E830E94C81A45E021
:103E9000BE016F5F7F4F80E10E94ED1A9E81492F26
:103EA00050E0B80182E894E026960FB6F894DEBFA1
:103EB0000FBECDBFDF91CF911F910F910C94C031F8
:103EC00089E0809388040E94DC1A65E081E491E037
:103ED0000E941A1F0E947C1B0E947F1B60E081E0F1
:103EE0000E94C81A61E082E00E94C81A63E083E081
:103EF0000E94C81A60E084E00E94C81A80E00E9414
:103F0000A11B0E94C41B83E70E94951B60E08CE10B
:103F10000E94C81A61E08DE10E94C81A83E70C94E0
:103F2000951B80914F058F7780934F0588EE93E026
:103F300090937D0580937C050E94EE0610927E058D
:103F40000E94601F84EC99E0089589E080938804C2
:103F50000E94DC1A65E080E991E00E941A1F0E942D
:103F60007C1B0E947F1B60E787E00E94C81A60E00C
:103F700081E00E94C81A61E082E00E94C81A80E0D5
:103F80000E94A11B0C94C41B80914F058F778093D6
:103F90004F0580E293E090937D0580937C050E941D
:103FA000E8070E94A51F10927E0580910F058111E0
:103FB00003C08CEF91E2089588EF91E10895BF92DC
:103FC000CF92DF92EF92FF920F931F93CF93DF93E5
:103FD00000D000D01F92CDB7DEB77C01B62E85E0B1
:103FE000861730F0A2E0A61728F073E0B72E02C0C3
:103FF000E5E0BE2E8E010F5F1F4F85E0F8011192A4
:104000008A95E9F7CB2CD12CA601B701C8010E94F3
:10401000C031A601B7018DE794E00E94C0317091D4
:1040200087046DE7E62E64E0F62EF80180E090E06C
:10403000272F30E0265D3D4F01974E2F401B47173D
:1040400058F4D7016D917D01A901480F591FDA017C
:104050004C9164276193F0CF6EEF6B0D83E00E946B
:10406000C81A45E0B8018AE00E94ED1A0F900F903F
:104070000F900F900F90DF91CF911F910F91FF90B4
:10408000EF90DF90CF90BF90089589E080938804EF
:104090000E94DC1A65E086E991E00E941A1F65E043
:1040A00086E991E00E94DF1F0E947C1B0E947F1B1B
:1040B00060E787E00E94C81A60E081E00E94C81AA9
:1040C00061E082E00E94C81A6091710581E10E945E
:1040D000C81A62E085E00E94C81A80E00E94A11B15
:1040E0000C94C41B80910F058130B1F010F0823028
:1040F00071F58FE08093710584E295E090937505EA
:104100008093740581E080937B0588E091E1909332
:104110007D0580937C051BC083E18093710580E75A
:1041200097E1909375058093740582E080937B05F9
:1041300010927D0510927C058FEF8093C9058093C6
:10414000CA058093CB058093CC051092CD050E94C3
:10415000F7070E94452010927E0580914F058F77CA
:1041600080934F0584EF91E0089583FB992790F9A0
:1041700090937C04682F637F80E00C94C81A8F9220
:104180009F92AF92BF92CF92DF92EF92FF920F93E6
:104190001F93CF93DF93CDB7DEB7A0970FB6F894F8
:1041A000DEBF0FBECDBFA62EB090870413E0E12E78
:1041B000EB1420F025E5298361E001C060E0BAE25C
:1041C0008B2EB2E09B2ED40120E030E04B2D50E04E
:1041D0004E575B4F162F121B215031097A2F781939
:1041E0007B1588F4DD90E1E0F0E0EC0FFD1FE10FBE
:1041F000F11D8F017A01E20EF31EF70170817D251A
:10420000F8017083E7CF962E9B0C7C0100E010E054
:10421000CB2CD12CC601865D9D4F6C01892C800E64
:104220000A15A0F4F70181917F010E94FE1EA1E012
:10423000B0E0AC0FBD1FA80DB11DF601E00FF11FDE
:10424000908198279C930F5F1F4FE8CFF92CFA0CB1
:1042500080917C048823C1F1EE24E394F3E0FB1504
:1042600008F4E12C00E010E082ED95EB2E2D200FFC
:104270002F1560F4E1E0F0E0EC0FFD1FE20FF11DFF
:1042800060810E94091F0F5F1F4FF0CFEA2DF0E001
:10429000EB0DF11DEE0FFF1FE451FE4F2081318128
:1042A00028273927E1E0F0E0EC0FFD1FEF0DF11DAD
:1042B000308381E08F0DE1E0F0E0EC0FFD1FE80FAF
:1042C000F11DF394F39420836F2DCE0101960E948B
:1042D0001D1BA0960FB6F894DEBF0FBECDBFDF91B9
:1042E000CF911F910F91FF90EF90DF90CF90BF90F3
:1042F000AF909F908F900895CF93C82F882321F17E
:1043000084EA8093C405EFE7F5E0A5ECB5E0819180
:104310008D9325E0E438F207D1F780915A05809318
:10432000CA0580915B058093CB0580915C058093E5
:10433000CC0580915D058093CD0580917F058093AC
:10434000CE05809180055CC085EA8093C4058AEF24
:104350008093C5051092C6058091AC059091AD057E
:104360008F30964018F088E08093C6058091AE05A6
:104370009091AF058F30964028F08091C6058260FD
:104380008093C6058091B0059091B1058F3096401D
:1043900028F08091C60581608093C6051092C705FC
:1043A00080E00E94D9039C01369527953695279584
:1043B0002C7F290F2093C8058093C90581E00E94B6
:1043C000D9039C0136952795369527952C7F290F83
:1043D0002093CA058093CB0582E00E94D9039458AC
:1043E0009093CC058093CD0583E00E94D9039C0176
:1043F00036952795369527952C7F290F2093CE0546
:104400008093CF05809181058093D0058AE08093C9
:10441000D1051092D205E4ECF5E081919091D2059E
:10442000890F8093D20585E0E23DF807B1F78EE071
:104430000E94B520CC2311F060E00AC0E09157053E
:1044400081E08E0F80935705F0E0E65AFA4F6081C5
:1044500085E00E94C81A80915705837080935705A4
:1044600060E787E00E94C81A0E947C1B6FE084EC22
:1044700095E00E94BF20CF910C94C41B80917E05D3
:10448000882331F0813021F580E00E947C2120C01A
:1044900080917C0590917D05892B71F465E08FE713
:1044A00095E00E941A1F81E080937E0580914F0560
:1044B000806880934F050CC081E00E947C21809130
:1044C0007C0590917D05019790937D0580937C05F7
:1044D00080ED97E00895CF93C82F882311F08AEAE2
:1044E00001C085E58093C40580917F058093C50553
:1044F000809180058093C6051092C7051092C8056B
:1045000082E00E9468038093C9054CEB64E483E079
:104510000E94A003813818F08093CA0504C090E877
:10452000981B9093CA054BEB63E481E00E94A003C3
:104530008093CB054BEB63E480E00E94A003809363
:10454000CC0580E28093CD058093CE0580E48093F6
:10455000CF058093D00590910F05E091AC05F091C7
:10456000AD056091B0057091B1054091B2055091D3
:10457000B3052091B4053091B50591112BC08093FE
:10458000D105EF30F64018F081E48093D105E09139
:10459000AE05F091AF05EF30F64028F09091D105CF
:1045A00090619093D1056F30764028F09091D105BD
:1045B00098609093D1054F30564028F09091D105E6
:1045C00094609093D1052F30364028F19091D10519
:1045D00092601FC088E08093D105EF30F64018F05C
:1045E00089E08093D1056F30764028F09091D10515
:1045F00090689093D1054F30564028F09091D105A6
:1046000090649093D1052F30364028F09091D105D9
:1046100090629093D1051092D2058EE00E94B52051
:10462000CC2311F06DE202C06091570585E00E9435
:10463000C81A60E787E00E94C81A0E947C1B6FE0DE
:1046400084EC95E00E94BF20CF910C94C41B809114
:104650007E05882331F08130F9F480E00E946B22DE
:104660001BC080917C0590917D05892B49F481E0E8
:1046700080937E0580914F05806880934F050CC024
:1046800081E00E946B2280917C0590917D050197CD
:1046900090937D0580937C0580910F05811103C067
:1046A00088E090E2089584E090E108951F93CF930D
:1046B000DF93182F80910F05813011F0A0E001C029
:1046C000A4E0112311F09AEA01C095E59093C40586
:1046D00090917F059093C505909180059093C605B4
:1046E000909181059093C705909182059093C8059C
:1046F000B0E02091A4059091A505FD01EC53FA4F7F
:10470000258396832091A6059091A70527839087FE
:104710002091A8059091A905218792872091AA054B
:104720009091AB052387ED012C96CC53DA4F9883FB
:104730002091AC053091AD052F30364010F09061DE
:1047400098832091AE053091AF05273D96E039075B
:1047500010F092E006C0223E344010F4158602C0EC
:1047600091E0958710925105823019F52091B0059E
:104770003091B1052F30364018F084E08093510518
:104780002091B2053091B3052F30364028F090913A
:1047900051059260909351052091B4053091B50573
:1047A0002F30364030F01D96AC53BA4F9C91946038
:1047B0009C938091510586878EE00E94B52011233D
:1047C00029F062E085E00E94C81A12C0E091570506
:1047D00081E08E0F80935705F0E0E65AFA4F608132
:1047E00085E00E94C81A8091570583708093570511
:1047F00060E787E00E94C81A0E947C1B60917105E7
:1048000084EC95E00E94BF20DF91CF911F910C9422
:10481000C41BEF92FF920F931F93CF93DF938C01F2
:10482000F62E0E944E1BE80100E010E00F1598F4F0
:1048300088810E94FE1EE82E80918704F801E65DC3
:10484000FD4FE80FF11D80810E94FE1E8E25899389
:104850000F5F1F4FEBCFDF91CF911F910F91FF9013
:10486000EF90089580917E05813069F048F08230A4
:1048700031F1833009F057C080E00E94562353C0C5
:1048800080917B0531C080917C0590917D05892BBD
:1048900049F483E080937E0580914F058068809382
:1048A0004F0541C081E00E94562380917C05909184
:1048B0007D05019790937D0580937C0534C087E04A
:1048C0000E94461B86FF13C06091710584EC95E041
:1048D0000E94092480E090E00E94251E0E94DC1ABC
:1048E0008091CD058130F9F480937E051CC080E075
:1048F00090E00E94251E0E94DC1A81E00E9456234F
:1049000061E070E080E090E00E94AF2F80E090E0F6
:104910000E94251E0E947F1B82E090E00E94251EBF
:104920008FE00E94B52080917405909175050895DF
:1049300089E0809388046CE080E00E94C81A60E0FF
:1049400081E00E94C81A61E082E00E94C81A62E019
:1049500083E00E94C81A60E084E00E94C81A60E701
:1049600087E00E94C81A64E081E10E94C81A82E0D0
:104970000E94A11B0E94C41B44E06CE971E08AE024
:104980000E94ED1A0C947F1BEF92FF920F931F93DE
:10499000CF93DF936FE775E0DB0120E030E081E04B
:1049A00090E0EC01C370DD274A2F461B423018F01F
:1049B00050E1F52E02C043E0F42E4D91F901E65A84
:1049C000FA4F542F5F735F0D508350E08A011595A5
:1049D0000795159507950F0D0183C158DA4F18817A
:1049E000012F0370E02EEA0104E0D595C7950A95E2
:1049F000E1F700E1E09EC00D1124CF0DC2832C3001
:104A0000310561F0C12FCF70CC0FCC0F76E05595FA
:104A100047957A95E1F7C40FCF0DC38301962C5FBC
:104A20003F4F8530910509F0BCCF8AE595E0FC0148
:104A300020E030E0311115C0AAE5B5E031E04A2FA1
:104A4000481B4217B8F740815D914513F8CF37E016
:104A5000340F303510F4308302C04654408330E0C8
:104A6000EECF2F5F31962F3011F031E0E3CF44E0ED
:104A70006FE775E080E1DF91CF911F910F91FF907B
:104A8000EF900C94ED1A80917205811103C0109281
:104A90007205089587E00E94461B85FFFBCFF7CF84
:104AA0001F93CF93DF93EC01162F0E9443250E94A2
:104AB0007C1B60E787E00E94C81A612FCE010E942C
:104AC0001D1B81E080937205DF91CF911F910895A6
:104AD000BF92CF92DF92EF92FF920F931F93CF93EB
:104AE000DF9300D000D0CDB7DEB7198281E08A8392
:104AF00082E08B8383E08C838E010F5F1F4F74EC09
:104B0000E72E75E0F72E6E0185E0C80ED11CB12CA2
:104B1000F80181918F010E94D903F70181937F01F0
:104B20009695879596958795807CB694B694B82A85
:104B30000C151D0569F7B092C80584E00E94680352
:104B40008093C90585E00E9468038093CA05E091BF
:104B50005705F0E0E65AFA4F608185E00E94C81AD6
:104B6000809157058F5F8F3018F48093570502C0EE
:104B7000109257050F900F900F900F90DF91CF91EB
:104B80001F910F91FF90EF90DF90CF90BF9008950D
:104B900080917E05823009F441C068F5882381F157
:104BA000813009F06BC00E9443250E94C41B44E081
:104BB00061EA71E080E10E94ED1A60E585E00E9403
:104BC000C81A64E08FE795E00E9450250E944325B3
:104BD0000E94C41B44E06FE775E080E10E94ED1A7B
:104BE00082E080937E0580914F05806880934F0519
:104BF00088E39AE408958330D1F08430F9F03EC020
:104C00000E947C1B10927205109257050E94DC1ABC
:104C100081E080937E0586E990E008950E946825F2
:104C200067E084EC95E00E94502583E01DC067E0BA
:104C300084EC95E00E94502584E016C067E084EC87
:104C400095E00E9450258091ED059091EE0501962A
:104C50009093EE058093ED058436910550F0109207
:104C6000EE051092ED0581E080937E0588EE93E0DD
:104C700008950E94C41B82E080937E0580E29EE43A
:104C800008951092EE051092ED050E94982410925E
:104C90007E050E94C42480914F058F7780934F0535
:104CA00080E593EC0895FC0160812091710530E06E
:104CB00021503109A0910F0571E0472F50E04217B4
:104CC00053075CF4FC01E40FF51F4081A13011F49F
:104CD000640F01C064277F5FF0CFA13011F480E042
:104CE00001C085E5860F089580E00E9497038093B8
:104CF000520581E00E9497038093530582E00E9451
:104D000068038093550583E00E94970380935405C0
:104D10008091AC059091AD058F30964020F081E0F8
:104D20008093510502C0109251058091B005909179
:104D3000B1058F30964028F08091510584608093B2
:104D400051058091B2059091B3058F30964028F0BF
:104D5000809151058260809351058091B4059091B6
:104D6000B5058F30964028F080915105886080937A
:104D7000510508958823A1F04091710550E060E04D
:104D800070E084EC95E00E94C9318EEA8093CB05F7
:104D900089EA8093CC0580EC8093D20587E175C0C9
:104DA0000E947426809155058093C4059091540506
:104DB0009093C5055091530580E8850F8093C605F3
:104DC000409152054093C70520E8290F97FD05C083
:104DD0008FEF90E0821B910904C0822F90E08058F1
:104DE0009F4F9595879595958795805E8093C8058B
:104DF000252F30E057FF05C08FEF90E0821B930B0B
:104E000003C0C90180589F4F9595879595958795C3
:104E1000805E8093C90520E8240F47FD05C08FEF11
:104E200090E0821B910904C0822F90E080589F4F30
:104E30009595879595958795805E8093CA058EEAAE
:104E40008093CB0589EA8093CC051092CD05109212
:104E5000CE051092CF051092D0051092D105809109
:104E6000510581FF02C020E101C020E082FF02C0A5
:104E700098E001C090E081708460822B892B809340
:104E8000D20584EC95E00E9453268093D3050895C3
:104E90008823D1F0809183058093C4058091820599
:104EA0008093C505809181058093C605809180051A
:104EB0008093C70580917F058093C8058AEA809317
:104EC000C9058093CA053EC00E947426809155058D
:104ED0008093C405909153059093C5052091540586
:104EE0002093C605809152058093C70540915105D6
:104EF00041FF02C030E801C030E042FF02C050E490
:104F000001C050E0352B3093C80596959695906C6E
:104F10009093C90530E0359527953595279540FF45
:104F200002C090E401C090E0292B2093CA0590E0D4
:104F3000959587959595879543FF02C020E801C018
:104F400020E0822B8093CB051092CC0584EC95E079
:104F50000E9453268093CD05089590910F059130BE
:104F600019F40E94BA2602C00E94482760E787E031
:104F70000E94C81A6EE280E00E94C81AE0915705AC
:104F8000F0E0E65AFA4F608185E00E94C81A0E945C
:104F90007C1B6091710584EC95E00E941D1B809143
:104FA000760590917705A0917805B0917905AC01CF
:104FB000BD014F5F5F4F6F4F7F4F4093760550931A
:104FC0007705609378057093790580FF0BC0809119
:104FD000570590E001966091560570E00E94EE3012
:104FE000809357050C94C41BCF93DF93CDB7DEB7E6
:104FF0006F970FB6F894DEBF0FBECDBF8FE0E7E42A
:10500000F1E0DE01519601900D928A95E1F780E181
:10501000E6E5F1E0DE01119601900D928A95E1F747
:105020000E947C1B68E085E00E94C81A6FE0CE01F8
:1050300041960E941D1B80910F05813061F480E133
:1050400080935605FE013196AAE5B5E001900D92D8
:105050008A95E1F712C082EA8093830584E0809309
:1050600056058BE480935A0580E380935B0580E4CA
:1050700080935C0580E280935D0510925705109245
:1050800076051092770510927805109279056F9643
:105090000FB6F894DEBF0FBECDBFDF91CF9108955C
:1050A000982F9F7124E020935605903198F4963004
:1050B00009F497E08AE0890F80935A058AE1890F05
:1050C00080935B058AE2890F80935C05965C9093E0
:1050D0005D0508959831D8F487702AE2280F20934F
:1050E0005A052AE0280F20935B0522E4280F20931D
:1050F0005C0522E2280F20935D05963171F59BE255
:10510000980F90935A05855F80935B0508959E31B3
:1051100088F487709AE1980F90935A059AE3980F54
:1051200090935B0592E1980F90935C058E5C809361
:105130005D0508959E3129F481E291E4A8E1B8E388
:1051400004C081E291E4A9E1B9E380935A05909308
:105150005B05A0935C05B0935D050895CF93DF9345
:10516000CDB7DEB72F970FB6F894DEBF0FBECDBF19
:105170008FE0E6E6F1E0DE01119601900D928A954E
:10518000E1F780910F05813061F48FE0809356053F
:10519000FE013196AAE5B5E001900D928A95E1F7FE
:1051A0000AC080917F050E94502845E06FE775E0B6
:1051B00080E10E94ED1A1092570510927605109228
:1051C000770510927805109279052F960FB6F8940E
:1051D000DEBF0FBECDBFDF91CF91089580917E05D8
:1051E000813079F030F08230B9F08330A9F580E079
:1051F00031C00E94F42781E080937E0580EE9EE21C
:10520000089589E591E09093EE058093ED0582E0A5
:1052100080937E0581E01EC08091ED059091EE05A2
:10522000892B59F40E94AE2883E080937E058091FB
:105230004F05806880934F050FC081E00E94AD2725
:105240008091ED059091EE0501979093EE05809386
:10525000ED0502C00E94AD2780EA9FE008951092FC
:1052600076051092770510927805109279051092C4
:10527000510580914F058F7780934F0589E080938A
:1052800088040E94DC1A87E00E94461B6CE080E0E4
:105290000E94C81A60E081E00E94C81A6FE382E0B1
:1052A0000E94C81A63E083E00E94C81A6FEF84E08E
:1052B0000E94C81A68E085E00E94C81A80910F0514
:1052C000813029F480E00E94A11B80E104C082E0CB
:1052D0000E94A11B8AE0809371050E94C41B60E7B5
:1052E00087E00E94C81A60E088E00E94C81A60E067
:1052F00089E00E94C81A63EC8CE00E94C81A64EC32
:105300008DE00E94C81A65EC8EE00E94C81A66EC17
:105310008FE00E94C81A6AE081E10E94C81A6AE020
:1053200082E10E94C81A6AE083E10E94C81A6AE01A
:1053300084E10E94C81A6AE085E10E94C81A6AE006
:1053400086E10E94C81A60E087E10E94C81A809135
:105350000F05813019F466EA71E002C06CEA71E071
:1053600045E080E10E94ED1A87E00E94461B0E9402
:105370007C1B87E00E94461B6EE087E00E94C81AF3
:1053800080E00E94461B6CE080E00E94C81A6EE03C
:1053900080E00E94C81A10927E0584EF91E0089583
:1053A000CF93DF93CDB7DEB72A970FB6F894DEBF61
:1053B0000FBECDBF89E0809388046CE080E00E943E
:1053C000C81A60E081E00E94C81A6FE382E00E9480
:1053D000C81A63E083E00E94C81A6FEF84E00E945D
:1053E000C81A68E085E00E94C81A80E00E94A11BEC
:1053F0000E94C41B60E787E00E94C81A63EC8CE03F
:105400000E94C81A64EC8DE00E94C81A65EC8EE018
:105410000E94C81A66EC8FE00E94C81A60E181E120
:105420000E94C81A60E182E10E94C81A60E183E12B
:105430000E94C81A60E184E10E94C81A60E185E117
:105440000E94C81A60E186E10E94C81A60E087E104
:105450000E94C81A85E0E5E7F1E0DE0116960190AA
:105460000D928A95E1F785E0EAE7F1E0DE01119619
:1054700001900D928A95E1F745E0BE016A5F7F4F8A
:105480008AE00E94ED1A45E0BE016F5F7F4F8BE01E
:105490000E94ED1A45E0BE016A5F7F4F80E10E94E5
:1054A000ED1A2A960FB6F894DEBF0FBECDBFDF917E
:1054B000CF9108950E947C1B10927205109257059F
:1054C0000C94DC1AE091810580918005E80F8091B1
:1054D0008205E80F9E2F9E7196959695E37080E168
:1054E000E89FF0011124EE54FE4FAAE5B5E081914A
:1054F000890F282F2F7009F483508D9385E0AA36E9
:10550000B807A9F70895E4ECF5E080E09191890FE0
:1055100095E0E33DF907D1F78093D30508958823FB
:1055200099F080EC809351051092C4051092C50546
:105530001092C6051092C7051092C8051092C905B1
:105540001092CA0520E065C082E00E946803809343
:10555000C40583E00E9497038093C50581E00E9403
:1055600097038093C60580E00E9497038093C70548
:1055700080E48093C8058093C9058093CA05809113
:10558000AC059091AD058F30964028F08091510583
:105590008460809351058091AE059091AF058F3066
:1055A000964028F08091510580618093510580914B
:1055B000B0059091B1058F30964028F0809151054B
:1055C0008160809351058091B2059091B3058F3031
:1055D000964028F08091510582608093510580911A
:1055E000B4059091B5058F30964010F420E001C0CD
:1055F00022E08091B6059091B7058F30964008F073
:1056000028608091B8059091B9058F30964008F0D8
:105610002062809180058093CB05809181058093E5
:10562000CC05809182058093CD052093CE05109204
:10563000CF051092D0051092D1058091510580932D
:10564000D2050E94832A1092720580915705E82F97
:10565000F0E0F595E795E65AFA4F60818F5F8F711C
:105660008093570585E00E94C81A0E947C1B60E168
:1056700084EC95E00E941D1B809176059091770542
:10568000A0917805B09179050196A11DB11D809377
:10569000760590937705A0937805B093790581E01E
:1056A0008093720580915705811102C00C94C41B30
:1056B000089580917E05813051F028F0833079F093
:1056C0008430C1F03AC00E945A2A83E003C00E948D
:1056D0005A2A84E080937E0586E990E008958091BF
:1056E0007205882381F00E94871E813061F084E674
:1056F00090E00895809172058823E1F00E94871E52
:105700008130A9F717C081E00E948F2A8091ED05B2
:105710009091EE0501979093EE058093ED05892B0E
:1057200061F484E080937E0580914F0580688093CA
:105730004F0503C080E00E948F2A80EA9FE0089511
:105740001092510510927605109277051092780507
:10575000109279050E94D02980914F0584FF09C0DD
:1057600088EE93E09093EE058093ED0510927E0510
:1057700003C081E080937E050E94622A80E593EC5D
:1057800008951F93CF93DF93882311F180917F05B4
:105790008093C405809180058093C5058091810523
:1057A0008093C605809182058093C70586E5809326
:1057B000C8058AEA8093C90580910F05843011F4E9
:1057C00080E001C082E38093CA051092CB058AC0B5
:1057D00082E00E9468038093C40580910F058330A6
:1057E00061F40E946803809354052FEF30E0281B7A
:1057F000310935952795122F08C083E00E94680370
:10580000809580935405182F1695809154058093A8
:10581000C50581E00E94680380935305C82FD0E03E
:10582000D595C7958093C70580E00E946803809551
:1058300080935205482F50E0559547958093C805B1
:1058400080910F05811107C0C093C6054093C9051B
:105850001093CA0506C01093C605C093C9054093AE
:10586000CA058091AC059091AD058F30964020F02F
:105870008FE08093510502C0109251058091AE05D2
:105880009091AF058F30964028F080915105806847
:10589000809351058091B0059091B1058F3096406D
:1058A00028F0809151058064809351058091B20564
:1058B0009091B3058F30964028F080915105806219
:1058C000809351058091B4059091B5058F30964035
:1058D00028F0809151058061809351058091510598
:1058E0008093CB0560E387E00E94C81A0E947C1B6E
:1058F00080910F05811102C068E014C08091C40539
:105900008093CC05E5ECF5E081919091CC05890F71
:105910008093CC0595E0EC3CF907B1F78095809336
:10592000CC0569E084EC95E00E941D1BDF91CF91CE
:105930001F910C94C41B89E0809388040E94DC1A98
:105940006AE080E00E94C81A6FE381E00E94C81AF2
:105950006FE382E00E94C81A63E083E00E94C81AE5
:105960006AE184E00E94C81A6CE385E00E94C81ACC
:1059700080E00E94A11B0E94C41B60E787E00E9498
:10598000C81A63EC8CE00E94C81A64EC8DE00E9497
:10599000C81A65EC8EE00E94C81A66EC8FE00E947F
:1059A000C81A68E081E10E94C81A68E082E10E949A
:1059B000C81A68E083E10E94C81A68E084E10E9486
:1059C000C81A68E085E10E94C81A68E086E10E9472
:1059D000C81A60E087E10E94C81A83E70E94951BFD
:1059E0006FE38CE10E94C81A67E08DE10E94C81A3B
:1059F00083E70E94951B45E06FE775E08AE00E940F
:105A0000ED1A45E06FE775E080E10C94ED1ACF9355
:105A1000DF9300D000D01F92CDB7DEB785E0EFE76F
:105A2000F1E0DE01119601900D928A95E1F78091E7
:105A30000F05823011F480E603C0843031F484E62F
:105A400089838A838B838C838D8345E0BE016F5F5E
:105A50007F4F8AE00E94ED1A45E0BE016F5F7F4FE5
:105A600080E10E94ED1A0F900F900F900F900F9011
:105A7000DF91CF91089545E06FE775E08AE00E94DD
:105A8000ED1A45E06FE775E080E10C94ED1A809126
:105A90007E05813039F090F0823041F1833009F495
:105AA00044C04AC08091ED059091EE05892B69F4C0
:105AB0000E94871E882369F10E943B2D80E00E948E
:105AC000C12B82E080937E0537C00E94871E882309
:105AD00001F181E00E94C12B8091ED059091EE05CE
