:107E0000112484B714BE9FEF9BB99CE395B991E010
:107E100098B98370A9F08AEF80938500109284004E
:107E200085E08093810096BBB09BFECF10928100CD
:107E300093B186B181709C73892B8D3109F0B3D0D9
:107E400082E08093C00088E18093C10086E0809347
:107E5000C20081E28093C400259AC0E0D0E093E0A4
:107E6000F92EEE24E39425E0D22E31E1C32EA9D0E1
:107E7000813481F4A6D08EBBABD08EB3823811F49E
:107E800085E006C08EB3813811F484E001C083E040
:107E900091D086C0823411F484E103C0853419F492
:107EA00085E09DD07DC0853541F48BD0C82F89D029
:107EB000D0E0D82BCC0FDD1F72C0863521F484E0D2
:107EC0008ED080E0E5CF843609F03DC07AD079D0FD
:107ED000B82E77D0C11520E7D20718F000E011E0E6
:107EE00004C0FE01F7BEE895F9CF6BD0F80181938D
:107EF0008F01BE12FACFCE01905781159E4018F423
:107F0000FE01F7BEE89564D0C115FEE7DF0708F073
:107F100047C007B600FCFDCFFE01A0E0B1E08D91A7
:107F20009D910C01E7BEE89511243296A03821E01E
:107F3000B207A9F7FE01D7BEE89507B600FCFDCF52
:107F4000C7BEE8952DC08437B1F43BD03AD0B82EE7
:107F500038D03ED0FE01AC2EAB0C8F010F5F1F4F0F
:107F6000849128D0A01205C02196BA94CB0DD11DC2
:107F700017C0F801F2CF853739F42AD08EE11AD034
:107F800085E918D08FE084CF813549F421D080E194
:107F900011D08091C00086FFFCCF05D001C018D061
:107FA00080E108D064CFE0E0F0E084918F3F09F0F9
:107FB000099408959091C00095FFFCCF8093C6006E
:107FC00008958091C00087FFFCCF8091C60008957E
:107FD000F8DF803211F085E1EDDF84E1EBCFCF9364
:107FE000C82FEFDFC150E9F7CF91F2CFA8950895E0
:0C7FF000E0E6F0E098E1908380830895C3
:0400000300007E007B
:00000001FF
